:020000040800F2
:10000000C06B0020290300080D4500088D39000849
:100010001544000815090008E96E000800000000FA
:10002000000000000000000000000000690200085D
:100030006110000800000000C5020008974E00088B
:100040004303000843030008430300084303000878
:100050004303000843030008430300084303000868
:100060004303000843030008430300084303000858
:10007000A10C0008430300084303000843030008E1
:100080004303000843030008430300082509000850
:10009000190900084303000843030008430300084C
:1000A0004303000843030008430300084303000818
:1000B0004303000843030008430300084303000808
:1000C00043030008430300084303000843030008F8
:1000D00043030008430300084303000843030008E8
:1000E00043030008430300084303000843030008D8
:1000F00043030008430300084303000843030008C8
:1001000043030008430300084303000843030008B7
:1001100043030008430300084303000843030008A7
:100120004303000843030008AD0C00084303000824
:100130004303000843030008430300083D09000887
:100140003109000843030008430300081145000873
:100150004303000843030008B90C000843030008E8
:100160004303000843030008430300084303000857
:100170004303000843030008430300080000000095
:10018000430300084303000800F002F800F05CF8A5
:100190000AA090E8000C82448344AAF10107DA45E2
:1001A00001D100F051F8AFF2090EBAE80F0013F0D8
:1001B000010F18BFFB1A43F001031847548C0000CD
:1001C000748C00000A444FF0000C10F8013B13F04F
:1001D000070408BF10F8014B1D1108BF10F8015BA0
:1001E000641E05D010F8016B641E01F8016BF9D193
:1001F00013F0080F1EBF10F8014BAD1C0C1B09D1EA
:100200006D1E58BF01F801CBFAD505E014F8016B5B
:1002100001F8016B6D1EF9D59142D6D370470000ED
:100220000023002400250026103A28BF78C1FBD8FF
:10023000520728BF30C148BF0B6070471FB508F098
:100240001DFA1FBD10B510BD00F0A6F91146FFF74D
:10025000F5FF06F0C7FE00F0C4F903B4FFF7F2FFA4
:1002600003BC00F0CBF900002C4B19680868B0E81B
:10027000F04F80F30988BFF36F8F4FF0000080F3D9
:10028000118870470000000008480068006880F38B
:1002900008884FF0000080F3148862B661B6BFF39F
:1002A0004F8FBFF36F8F00DF00BF00BF08ED00E08E
:1002B000DFF80C00016841F470010160704700BF75
:1002C00088ED00E0EFF30980BFF36F8F134B1A68DE
:1002D0001EF0100F08BF20ED108A20E9F04F1060CB
:1002E00009B44FF0500080F31188BFF34F8FBFF374
:1002F0006F8F07F0BBFB4FF0000080F3118809BC43
:1003000019680868B0E8F04F1EF0100F08BFB0EC95
:10031000108A80F30988BFF36F8F7047B400002004
:10032000EFF30580704700000948804709480047FF
:10033000FEE7FEE7FEE7FEE7FEE7FEE7FEE7FEE795
:10034000FEE7FEE704480549054A064B70470000F2
:100350004D4F000889010008C0650020C06B0020D7
:10036000C0670020C067002053EA020C00F06980DB
:100370002DE9F04B4FF00006002B1FBFB3FA83F5B9
:1003800003FA05F424FA05F65E4012BF1643B2FAEA
:1003900082F502FA05F4C5F120051EBF22FA05FC1C
:1003A00044EA0C04203556EA044C4FEA144418BFC2
:1003B000641C4FF000084FF00009904271EB030CF1
:1003C00039D3002919BFB1FA81F701FA07F6B0FA5B
:1003D00080F700FA07F6C7F120071EBF20FA07FCD6
:1003E00046EA0C062037B6FBF4FCA7EB0507103FE6
:1003F00007F01F0BCBF120060CFA0BFB2CFA06F6CC
:1004000044BFB3460026202FA4BF5E464FF0000B2A
:100410005BEA060C08BF4FF0010B19EB0B09ABFBB5
:10042000027C48EB0608C01B06FB02CC0BFB03CC8E
:1004300071EB0C01C1E70B46024641464846BDE858
:10044000F08B13B54FF000004FF00001AFF30080C8
:10045000BDE81C407047032A40F2308010F0030CC6
:1004600000F0158011F8013BBCF1020F624498BF07
:1004700011F801CB00F8013B38BF11F8013BA2F1A4
:10048000040298BF00F801CB38BF00F8013B11F01F
:10049000030300F02580083AC0F0088051F8043BBF
:1004A000083A51F804CBA0E80810F5E7121D5CBF2C
:1004B00051F8043B40F8043BAFF30080D20724BF5F
:1004C00011F8013B11F801CB48BF11F8012B24BFF3
:1004D00000F8013B00F801CB48BF00F8012B704742
:1004E00010B5203AC0F00B80B1E81850203AA0E8CF
:1004F0001850B1E81850A0E81850BFF4F5AF5FEA03
:10050000027C24BFB1E81850A0E8185044BF18C9B5
:1005100018C0BDE810405FEA827C24BF51F8043B5C
:1005200040F8043B08BF7047D20728BF31F8023BB0
:1005300048BF11F8012B28BF20F8023B48BF00F844
:10054000012B70474FF0000200B5134694469646C3
:10055000203922BFA0E80C50A0E80C50B1F12001D6
:10056000BFF4F7AF090728BFA0E80C5048BF0CC084
:100570005DF804EB890028BF40F8042B08BF7047E2
:1005800048BF20F8022B11F0804F18BF00F8012B54
:100590007047704770477047754600F02BF8AE46BD
:1005A00005006946534620F00700854618B020B57F
:1005B000FFF7C8FEBDE820404FF000064FF00007EF
:1005C0004FF000084FF0000B21F00701AC46ACE8FB
:1005D000C009ACE8C009ACE8C009ACE8C0098D4668
:1005E000704710B50446AFF300802046BDE81040C8
:1005F000FFF733BE004870476065002001491820AE
:10060000ABBEFEE726000200704700002DED0E8B0A
:10061000524C9FED53DADFED53DADFED539A9FED45
:1006200053EA41F28836B500DFED51EA9FED519A69
:100630009FED51AADFED51AA9FED51BADFED51BAFE
:100640009FED51CADFED51CA5FEA650707F046F832
:10065000226801214E489047226802214D48904768
:10066000B0EE4D8AF0EE6D8AB2EE042AF0EE481A32
:10067000B3EE091AF0EE680AB0EE690A464806F0D1
:10068000A3FCB2EE042AF0EE481AB3EE091AF0EE1B
:10069000680AB0EE690A414806F096FCF0EE4E8A10
:1006A000B0EE082AF0EE681AB1EE041AFBEE0E0A5C
:1006B000B3EE0E0A3A4806F087FCB7EE002AF0EED9
:1006C000681AB0EE481AFAEE040AB2EE040A354887
:1006D00006F07AFCB0EE6E8A32462946B3EE0E1A68
:1006E000F0EE480AB0EE490A2F4803F0A1F932466D
:1006F0002946B3EE0E1AF0EE480AB0EE490A2B482E
:1007000003F096F9B0EE4A3AF0EE6A2AB0EE4B2AC0
:10071000F6EE001AB0EE6B1AF0EE4C0AB0EE6C0A70
:10072000234804F073F83A4646F2A811B2EE001AD4
:10073000F0EE040AB2EE0E0A1E4803F079F900F05A
:10074000E9F900F083FC1C48806B07F0D5F806F04F
:10075000E5FF012006F063FC78E70000700100204F
:10076000CDCCCC3D0000C8C20000C8420AD7233C13
:1007700000000000000020420000FA4300007A441C
:100780000000FA449A99993E8FC2753CCDCCCC3E7C
:100790007C050020A40500206C600020AC600020D7
:1007A000EC6000202C6100201C6400206C640020A0
:1007B000BC64002010650020000000208AB0084EB4
:1007C0006C464FF0FF3707AD3A466946306807F090
:1007D00081FB09AB2A46211D009800F0CDFEF3E70E
:1007E0000800002070B50C46050008D0022C06D980
:1007F000FF22611E00F0A0FE291901F8010C70BD56
:10080000F0B585B000202D4C03900490019002902B
:1008100020882B4D010A8DF80C108DF80D00608892
:10082000294E010A8DF80E108DF80F00A08840F2B5
:100830000F13010A8DF810108DF811002089010A9C
:100840008DF812108DF8130003A800906F68002235
:100850001C493068B847608940F21F13010A8DF8BF
:1008600004108DF80500E07D8DF80600617E9DF88E
:10087000070001F001010843217B01F0010140EA7A
:100880004100217E01F0010140EA8100A17D01F0DB
:10089000010140EAC1008DF807000C48B0F8620081
:1008A000010A8DF808108DF8090001A800906C6805
:1008B000002204493068A04705B0F0BD4C6200201A
:1008C00070010020A40500200800002074620020B0
:1008D000DDE9031288B243BA0C48090C49BAC38156
:1008E000418491B249BA09B200EE101ADFED080A4C
:1008F000110CB8EEC00A01F00102C1F3400180EE14
:10090000201A80ED041AC276818470474C62002060
:1009100000007A44FEE70000014800F096BF0000A6
:100920007C050020014800F090BF00007C050020FD
:10093000014800F08ABF0000A4050020014800F033
:1009400084BF0000A405002010B50446491EC8B2AB
:1009500000EB400101EB00100E49002201EB800189
:1009600001230A614A614A62C1E906230A604A60BA
:100970008A600B622046CA6000F066FE08B100F093
:100980001DFC204601F0DCF92046BDE810400221A4
:1009900000F0E0BD6C61002010B58AB00C9C0091A5
:1009A00092B102930021CDE90321082205928DF82E
:1009B0001810216807916168002308911A4669465A
:1009C00007F078F90AB010BD0193EBE700207047FB
:1009D0000020704710B500220449054804F03CFE91
:1009E0000449034804F02BFE002010BD78140020B9
:1009F0009C070020780C002010B50146034804F045
:100A00001EFE024804F0F4FD002010BD9C070020EB
:100A100000207047094A10B5D2F8BC22D2F814223F
:100A20000AB1012010BD0A460146044804F014FE34
:100A3000BDE81040014804F089BE00009C0700207A
:100A40008EB00E4E0E4F4FF0FF3809AD424605A94D
:100A5000306807F03FFA059CA4F201200228F5D87F
:100A6000142229466846FFF73BFDDDE90612D7F858
:100A700000C02046089BE047E8E700000000002097
:100A8000840100208EB0164F164E4FF0FF3809AD8E
:100A9000424605A9386807F01DFA9DF83000059C0C
:100AA00000F00F003080012811D0A4F580710F39BB
:100AB000EED1142229466846FFF712FD0A48D0F805
:100AC00004C0DDE906122046089BE047E0E7142257
:100AD00029466846FFF704FD0448D0F80CC0F0E74B
:100AE000040000208E0200207C010020DC01002098
:100AF000074800210068B0F8442022B180F8461071
:100B0000A0F844107047012280F84620F8E7000062
:100B1000D80100200D4810B5BAEE040A80ED030A92
:100B200080ED010A9FED0A0AF2EE040A80ED040A44
:100B3000B1EE080A143003F0F1FC0648002102224D
:100B40000176C2754176017710BD0000D8630020A0
:100B5000000000004C62002070B539483A4ADFEDD1
:100B60003B0AB0F90610057B364802EE101A384BE6
:100B7000D0ED041AB8EEC22A90ED060A354CBAEE52
:100B8000041A02EE210A012D10EE101A80ED060A59
:100B900004D0914218DDC0ED060A1BE0914202DD4F
:100BA000C0ED060A05E010EE101A994201D980ED59
:100BB000061A94ED040AD0ED061A012130EE210A3E
:100BC00084ED030A41610DE010EE101A994201D93B
:100BD00080ED061A416909B1012903D190ED060A99
:100BE00084ED030AE168914202DDC4ED030A03E0EB
:100BF000994201D984ED031A90ED020A164DBDEE1B
:100C0000C00A10EE101A05F8401F90ED030ABDEE61
:100C1000C00A10EE101A697090ED010A05ED040A81
:100C200090ED000A0B4805ED030A94ED030A143019
:100C300003F08CFC94ED030A05ED050A70BD00007D
:100C40004C620020F8010020000082420000824235
:100C5000000020C1D863002090630020FFF77CBF14
:100C600090ED000A90ED011AF0EEC00AB0EEC11A44
:100C7000F4EEC10AF1EE10FA04D29FED070A80EDFE
:100C8000000A70479FED051AF0EE400A40EE410A57
:100C9000C0ED000A7047000000000000CDCC4C3EC3
:100CA000014801F081B800003C070020014801F034
:100CB0007BB800007C060020014801F075B80000F8
:100CC000DC06002001681823CAB2103AB2FBF3F226
:100CD000054B6FF30901032A9B5CC36500D9091D0D
:100CE0008165084670470000BC87000810B50146C2
:100CF00000208B698A6A4FF0C07453B1B3F5005F6E
:100D000015D072B1012A0CD0022A0AD0032A09D1C7
:100D100004E01AB1012A06D0022A03D1C96AC90126
:100D200000D5012010BDC96AA142FAD010BD002A29
:100D3000F7D0012AF2D0022AF3D0032AF3D010BD53
:100D400030B50468256825F4802525600468636053
:100D50008368402B036803D099600068C26030BD8F
:100D60009A600068C16030BD08B507F0EFF90090E7
:100D700000F006F80521684606F078FDF8E7000067
:100D80002DE9F05FA3482DED028B417801297DD13B
:100D9000A149002545700888C0F30A07A1F1160093
:100DA000A7F5806707804A782D37D3088A7843EA09
:100DB0004213C3F30A06A6F580664680CB789209F3
:100DC00042EA83030A7943EA8223C3F30A03A3F5C1
:100DD0008063838052084C795A2F42EAC412C2F3CE
:100DE0000A02A2F58062C28000D80580761D0A2E14
:100DF00000D845805B1D0A2B00D88580521D0A2A29
:100E000000D8C580A2090272C4F301174772CB88CB
:100E100043810B8983814B89C3810B7B03744B7B9B
:100E20004374CB894382098AA1F5806109B281822A
:100E300001F52571B1F5A56F00D98582774C794B05
:100E40007449677393ED000A0978DFF8D4B1491C3F
:100E5000BDEEC08A744E01F0FF094FF0010A032A6B
:100E600004D0022A4ED0012A7CD0A9E039007AD0E1
:100E7000C188804649422180808840426080012F9D
:100E800005D0032F0FD0022F22D02CE0BBE08BF82F
:100E900005A084F819A0B8F81410504609B170756F
:100EA00021E075751FE07575758235708BF80550FA
:100EB0006576A576B8F9140007F0CBFA9FED5B1BB9
:100EC00053EC112B07F0DCFA07F094FAA0800AE04B
:100ED000504880F800905FEAC97002D084F820A0E2
:100EE00001E084F820502573B8F80210E180B8F8CA
:100EF00000102181B8F814004000A08018EE100AFC
:100F000060816AE039005BD08046C0884042208022
:100F1000B8F8040040426080B8F9020007F099FA7E
:100F20009FED441B53EC112B07F0AAFA07F062FA6D
:100F3000E080B8F800002081B8F91410A18018EE04
:100F4000102A84F80CA062813C4A5046012F92ED91
:100F5000000A3B4A82ED040A06D0032F19D0022F63
:100F600020D050E02AE02BE08BF805006076B1F548
:100F7000C87F01DD707538E001F28F1040F21F323A
:100F8000904201D2757530E011F5C87F2DDA02204C
:100F9000F0E77575758235708BF805506576A57626
:100FA000A18027E01B4A5FEAC97182F8009002D055
:100FB00084F8200023E084F8205020E0032F08D09C
:100FC000257325806580A5802581E58003206073D9
:100FD00010E002F077FF03F0D1FC607B012804D021
:100FE000032807D002280AD00DE016493575A1F86C
:100FF00004A008E0022030751248858003E0114902
:1010000035750220888010480068BDEC028BBDE871
:10101000F05F00478C0100207E6300204C620020BE
:10102000740200206001002040020020333333337B
:101030003333D33F9A9999999999C93F6401002014
:10104000D8630020880200207C010020122202497F
:10105000024802F071BB00007E63002034060020CD
:10106000704700000648DFED070A90ED150AB8EE5C
:10107000C00A30EE200ABDEEC00A80ED150A7047A6
:101080007462002013CDF5460648DFED070A90EDA7
:10109000150AB8EEC00A30EE600ABDEEC00A80ED57
:1010A000150A70477462002013CDF54610B501F0A3
:1010B000F7F801462748284C027D22B9407D0128D7
:1010C00015D0022843D00020A4F8500034F94A0F6C
:1010D00000EE100A2248F8EEC00A9FED200A02F046
:1010E00056FCBDEEC00A10EE100A208310BD194A4E
:1010F000143A1068081AB0F5FA6F02D3FFF7C4FF6C
:10110000116094ED170A17491748F8EEC00A94EDDC
:10111000150A4834B8EEC00A03F096FBBDEEC00ACB
:1011200010EE100A00B22081B4F9021000EE101A7D
:10113000F8EEC00A00EE100A0948B8EEC00A02F044
:1011400026FCBDEEC00A10EE100A608310BDFFF74A
:1011500089FFD6E7400200207462002000000000F2
:10116000106500201C010020BC64002010B540B1B7
:101170000E48006880470D491031088A401C0882DB
:1011800010BD0B4C0020A4F8500034F94A0F00EEBB
:10119000100A0948F8EEC00A9FED060A02F0F7FBB4
:1011A000BDEEC00A10EE100A208310BD30020020F0
:1011B00074620020000000001065002072B6FEE797
:1011C00070B5254AB2F908505088281A01B2234850
:1011D0000180B2F92C30D28C9A1A12B242800029C6
:1011E00000DC49420CB21D490839002A0C8000DCA1
:1011F000524200EE105ADFED1A0A16B2B8EEC00ADB
:101200004E8020EE200ABDEEC00A10EE101A00EE4D
:10121000103A09B2B8EEC00A0180002920EE200A77
:10122000BDEEC00A10EE102A12B2428000DC494224
:101230000A4809B2001F002A018000DC524212B2A3
:1012400042800648001D8C4203DA964201DA0121F1
:1012500000E00021017170BD746200207002002066
:10126000CDCC4C3D10B500F075F801F019F83249BD
:1012700000220B787BB34B68C01AB0F5FA6F05D328
:1012800091ED020A81ED030A0A7013E001EE100AE3
:101290009FED2A2AD1ED020AF8EE411AB6EE000AB5
:1012A00020EE800A81EE821A70EEC00A00EE810AFA
:1012B00081ED030AB5EEC00A214CF1EE10FA0EDD05
:1012C000B1EE400ABDEEC00A10EE100A208110EE09
:1012D000100AA08505E0FFE791ED020AE8E7228108
:1012E000A285B4F90200174900EE100AB4F908000B
:1012F000F8EEC00A00EE100A1348B8EEC00A03F078
:101300000AFABDEEC00A114910EE100A6083B4F962
:10131000260000EE100AB4F92C00F8EEC00A00EE28
:10132000100A0B48B8EEC00A03F0F5F9BDEEC00A8A
:1013300010EE100AE08710BD580200200000FA44A9
:10134000746200206C6000201C640020AC600020EF
:101350006C640020174810B5417EDFED170A17486E
:1013600011B1012903D006E0C0ED000A03E09FEDB2
:10137000140A80ED000A114C90ED000A1C3C84ED2B
:10138000020A607850B9B5EEC00AF1EE10FA05DD38
:1013900000F086FF60600120207008E0B5EEC00A12
:1013A000F1EE10FA04D800202070C4ED020A60703B
:1013B00010BD00004C6200200000000074020020FC
:1013C0000040B545F0B50446002500F1200102F0CB
:1013D000B3FD94ED080A04F1300104F1280003F094
:1013E0001BF894ED090A04F13C0104F1340003F008
:1013F00013F894F93000434EC0EBC002D4ED0A1A42
:10140000D4ED0D0A94F93C0006EB820303EB800156
:1014100061EEA02A91ED000A01EE105A94F93D10F8
:1014200094ED0B3A02EE801A94ED0E0A03EB810361
:1014300021EE802AD3ED001A94F93130C3EBC303B7
:1014400002EE211A06EB830663EE201A06EB8007F4
:1014500023EE003AD7ED000A06EB8106294F01EE94
:10146000A01A96ED000AC43707EB820606EB800C43
:1014700006EB810603EE001ADCED000A00EE105ABE
:1014800002EEA00AD6ED000A07EB830606EB800702
:1014900006EB810602EE200AD7ED000A01EEA00A53
:1014A000D6ED000A184E06EB820202EB800703EE2F
:1014B000200AD7ED003A00EE905A02EB810242EE8C
:1014C000A30AD2ED002A06EB830202EB800042EE73
:1014D000220A90ED002A02EB810041EE820AD0ED53
:1014E000001A43EE210AF0EE081A81EE212A80EE5E
:1014F000211A84ED002A80EEA10A84ED011A84ED00
:10150000020AF0BDDC87000864890008094A21B19D
:10151000012904D002290BD108E0D16800E09168CC
:10152000C14011F0010F03D0012070471169F7E7A6
:1015300000207047E062002010B5054C04E000BFB9
:1015400010F8013B5340E25C491EF9D2104610BD31
:10155000288A000890F82020012A07D0022A05D006
:10156000416A41F48021416201207047006842696C
:101570000A43426100207047F0B590F8205004689B
:10158000A468012D05D0022D03D0416A41F48021C9
:1015900057E014F0406F01D1E5004FD5C4F301646A
:1015A0000125A5401D608D684FF4C0739DB1CE68C4
:1015B00035434E6845EAC605066803EB0417F55146
:1015C0004FF4C275076805EB04150E697E51097D5D
:1015D000012905D009E00E88CD6845EA4655EBE7BC
:1015E00001684E5946F480764E511179D579567975
:1015F00041EA056195792D0445EA062529434FF412
:10160000C676056806EB0416A9511178D57841EA2B
:101610000561957852782D0445EA022211434FF472
:10162000C475026805EB04155151006803EB041101
:10163000425842F0010242500020F0BD416A41F49C
:10164000001141620120F0BD10B590F82020012A60
:1016500007D0022A05D0416A41F48021416201206D
:1016600010BD3B48D0F8002242F00102C0F8002231
:10167000D0F8002222F47C52C0F80022D0F80022D8
:101680004B6A42EA0322C0F800220A7D02F01F03DF
:1016900001229A40D0F81C329343C0F81C32CB6927
:1016A000B3B9D0F80C329343C0F80C328C894B6834
:1016B00064F31F434C6900EBC404C4F840320C8946
:1016C0000B6864F31F434C6900EBC404C4F8443254
:1016D000CB69012B16D1D0F80C321343C0F80C3271
:1016E0000C884B6864F31F434C6900EBC404C4F8D6
:1016F00040320C89CB6864F31F434C6900EBC4048F
:10170000C4F844328B69002BD0F804320ED0134356
:10171000C0F804320B69002BD0F8143208D0134300
:10172000C0F81432096A012904D008E09343EFE7B6
:101730009343F5E7D0F81C121143C0F81C12D0F8FF
:10174000001221F00101C0F80012002010BD0000BD
:1017500000640040704770B590F82040012C05D01F
:10176000022C03D0416A41F4802128E0046809B3C7
:101770002469A40720D04FF4D874056804EB011441
:101780002D5915F00405956005682D591AD0ED08FE
:10179000556005682C5904F00204D4604FF4DA74E3
:1017A000056804EB01142E5906F00F06082E0CD321
:1017B00008250DE0E468DCE7416A41F4001141626C
:1017C000012070BD6D0D1560E3E72D5905F00F0583
:1017D000156105682D59C5F30725956105682C59D4
:1017E000240C54614FF4DC72046802EB0112A4581B
:1017F0001C700468A458240A5C700468A458240C63
:101800009C700468A258120EDA704FF4DE720468FD
:1018100002EB0112A4581C710468A458240A5C71DC
:101820000468A458240C9C710468A258120EDA7142
:10183000006829B1016941F020010161002070BDFB
:10184000C16841F02001C160F8E72DE9F05F05466D
:10185000006800244669D0F804908768D0F80CB07E
:10186000D0F810A0D0F81880F10748D0F90714D0AC
:1018700001218160B80703D5284600F08EFA0CE0FC
:10188000780702D54FF4006407E0380702D54FF41B
:10189000805402E0284600F07FFAF80516D5296842
:1018A0004FF480708860B80503D5284600F077FAB9
:1018B0000CE0780502D544F4005407E0380502D561
:1018C00044F4804402E0284600F068FAF80316D594
:1018D00029684FF480308860B80303D5284600F0AB
:1018E00060FA0CE0780302D544F4004407E03803C2
:1018F00002D544F4803402E0284600F051FA300763
:1019000007D55FEACB6004D52968102044F4007441
:10191000C86070074FF0080707D55FEA0B7004D561
:101920002868C760284600F0A9F9B00706D52868DE
:10193000C068800702D0284600F0A2F9700607D5DB
:101940005FEACA6004D52968102044F48064086105
:10195000B00607D55FEA0A7004D5286807612846F3
:1019600000F0EAF9F00606D528680069800702D081
:10197000284600F0E2F9B00308D55FEAC96005D552
:10198000296810204860284600F0D8F9F00307D5F0
:101990005FEA097004D528684760284600F002FA1B
:1019A000300446D55FEA497040D5F00504D55FEABA
:1019B000C87001D044F00104B00504D55FEA887016
:1019C00001D544F00204700504D55FEA487001D5E2
:1019D00044F00404300529D518F0700F26D008F023
:1019E0007000402815D006DC102809D020280AD025
:1019F000302816D10AE050280ED0602811D10EE010
:101A000044F008040DE044F010040AE044F020041F
:101A100007E044F0400404E044F0800401E044F4B2
:101A200080742868816921F070018161296804202F
:101A30004860002C05D0686A204368622846FFF79A
:101A400089FEBDE8F09F70B5040003D094F8200033
:101A500010B104E0012070BD204600F081F820683C
:101A6000016841F00101016000F01AFC05460526FD
:101A700004E000F015FC401B0A2811D820684068DB
:101A8000C007F6D02068016821F00201016000F073
:101A900007FC05460BE000F003FC401B0A2806D9B2
:101AA000606A40F40030606284F82060D2E7206809
:101AB00040688007EFD4207E0128206801683DD06F
:101AC00021F080010160607E01282068016838D023
:101AD00021F040010160A07E01282068016833D018
:101AE00021F020010160E07E0128206801682ED0ED
:101AF00041F010010160207F01282068016829D091
:101B000021F008010160607F01282068016824D06D
:101B100021F004010160D4E902010843D4E9041270
:101B2000114308436168491E08432168C8610020C9
:101B30006062012084F82000002070BD41F0800127
:101B4000C0E741F04001C5E741F02001CAE721F0BC
:101B50001001CFE741F00801D4E741F00401D9E7D3
:101B6000F0B587B0044614216846FEF7EBFC3E4B07
:101B70003E48DFF8F0E01968D4F800C03B4A03257E
:101B80000226092710300024491CF4452AD1196087
:101B9000012907D1016841F000710160006800F07F
:101BA00000700590106840F0080010601068CDE9E2
:101BB000005600F00800CDE9047069462C48CDE9D4
:101BC000024500F075FA00220521132000F0DAFB2F
:101BD000132000F0C9FB00220521142000F0D2FBE5
:101BE00014203AE0DFF88CE0F44538D1D0F800C09A
:101BF0004CF0806CC0F800C0D0F800C001290CF097
:101C0000806CCDF814C0196007D1016841F00071F3
:101C10000160006800F000700590106840F002005C
:101C20001060106802AB00F0020005906020CDE962
:101C3000000683E8B00069460F4800F039FA002238
:101C400005213F2000F09EFB3F2000F08DFB00228D
:101C50000521402000F096FB402000F085FB07B0F6
:101C6000F0BD0000006400403C000020303802401D
:101C7000000C024000680040000402407047000071
:101C8000F8B5274B02680021264C9A4200D001216A
:101C90002170C9B201EB4102234E02EB011106EBA8
:101CA000810202F1440300212832FFF754FD20781D
:101CB00006F1980500EB400101EB001106EB8101F4
:101CC00000EBC00005EB80001C222831FEF708FC69
:101CD000207800EB400202EB001206EB820300EBDF
:101CE000C001D3E9112305EB8101C1E9072388B1C4
:101CF0000E4800236A46006806F08CF80098002819
:101D000007D00B494FF080500860BFF34F8FBFF3EF
:101D10006F8FF8BD294600236A460648EBE70000AE
:101D200000640040780100206C6100200400002065
:101D300004ED00E00000002070477047704700008D
:101D400070B5044690F82000012804D0606A40F481
:101D50000020606218E0022084F8200020680168FA
:101D600021F00101016000F09BFA05460EE000BF82
:101D700000F096FA401B0A2808D9606A40F4003047
:101D80006062052084F82000012070BD2068406852
:101D9000C007EDD1606270BD7047704770477047F3
:101DA00070477047704700002DE9F84304464FF034
:101DB0000009CDF8009063484FF41651A56D0068F6
:101DC000B0FBF1F72E6894F85C10082000FA01F1DE
:101DD00031420FD021680A6852070BD50A6822F0F9
:101DE00004020A6094F85C108840A860606D40F0BE
:101DF0000100606594F85C104FF0010808FA01F0EA
:101E0000304208D021684969090604D5A860606D90
:101E100040F00200606594F85C1004208840304275
:101E200008D021680968890704D5A860606D40F072
:101E30000400606594F85C1010208840304218D08F
:101E400021680968090714D5A8602068016849035A
:101E500004D50068000308D5A16C07E00168C90536
:101E600003D4016821F008010160216C09B120460A
:101E7000884794F85C1020208840304231D0216897
:101E80000968C9062DD5A86094F835000528206892
:101E9000016806D0490347D5006800031DD4616C72
:101EA0001CE021F0160101602068416921F08001E9
:101EB0004161206C08B9A06C20B12068016821F054
:101EC0000801016094F85C103F208840A86084F805
:101ED000358084F83490216D1FE0E16B09B1204614
:101EE0008847606D00282BD0606DC00714D0052096
:101EF00084F835002068016821F001010160009834
:101F0000401C0090B84203D820680068C007F6D192
:101F100084F8358084F83490E16C002910D001B049
:101F20002046BDE8F04308470168C905D5D40168DB
:101F300021F01001016084F8358084F83490CCE7FA
:101F4000BDE8F883B00000202DE9F041044600F020
:101F5000A7F906465CB1022084F83500002584F814
:101F600034502068016821F0010101600DE001207A
:101F7000BDE8F08100F094F9801B052805D92020E8
:101F80006065032084F83500F2E720680068C00728
:101F9000F0D12268116820480140D4E901031843B8
:101FA000D4E903363343184363691843A3691843DC
:101FB000E3691843236A18430843616A042903D17B
:101FC000D4E90B1319430843106020684069666A1E
:101FD00020F0070130460E43012704280CD1A06AE7
:101FE0000643E06A40B12046FEF780FE20B1402063
:101FF000606584F83570BAE7206846612046FEF7D0
:1020000061FE94F85C203F2191408160656584F811
:1020100035700020ACE700003F8010F02DE9F04162
:102020000446866D90F83400002501280DD001206B
:1020300084F8340094F835700020012F07D084F81C
:10204000340002252846BDE8F0810220FBE7022784
:1020500084F8357060652046FEF772FE94F85C10D7
:102060003F208840B0602068016841F0160101609F
:10207000206C20B12068016841F0080101602068EF
:10208000016841F001010160DCE7000070B5044621
:1020900000F006F90546601C02D0044800780444AC
:1020A00000F0FEF8401BA042FAD370BDA40000204F
:1020B0002DE9F84FDFF8BCA10022012503264FF0DF
:1020C0000F090AF1040BAAF1040E00BF0B6805FA10
:1020D00002F42340A34270D10F7907F00307012FC8
:1020E00001D0022F16D187684FEA420806FA08FC91
:1020F00027EA0C07D1F80CC00CFA08FC4CEA070CD4
:10210000C0F808C04768A7430C79C4F30014944092
:102110003C4344600C79E443A4070AD0C4684FEA06
:10212000420C06FA0CF7BC438F6807FA0CF72743FA
:10213000C7600C7904F00304022C12D1D40800EB20
:10214000840CDCF820405707FF0E09FA07F824EA50
:102150000804D1F8108008FA07F848EA0408CCF817
:10216000208004684FEA420C06FA0CF7BC430F7952
:1021700007F0030707FA0CF7274307604C6814F4CD
:10218000403F70D03C4C276847F480472760246864
:1021900022F0030704F480440094384C07EB040C4D
:1021A000DCF8084897074FEA177809FA08F7BC43A4
:1021B000334FB84202D1002724E054E0314FB842F7
:1021C00001D101271EE0304FB84201D1022719E0AA
:1021D0002E4FB84201D1032714E02D4FB84201D150
:1021E00004270FE02B4FB84201D105270AE02A4F00
:1021F000B84201D1062705E0284FB84201D1072790
:1022000000E0082707FA08F72743CCF80878DAF83F
:1022100000405746D1F804C09C435FEACC2C00D55F
:102220001C433C60DBF800405F46D1F804C09C438F
:102230005FEA8C2C00D51C433C60DEF800407746FA
:10224000D1F804C09C435FEA8C3C00D51C433C6041
:10225000084F083F3C68D1F804C09C435FEACC3C7F
:1022600000D51C433C60521C102AFFF42FAFBDE880
:10227000F88F0000083C0140443802400030014023
:10228000000002400004024000080240000C02402E
:10229000001002400014024000180240001C0240DE
:1022A0000148806870470000A4000020024881684F
:1022B0000278114481607047A40000200B4810B5DB
:1022C000016841F400710160016841F480610160BE
:1022D000016841F480710160032000F073F80F2061
:1022E00000F006F800F024F8002010BD003C024089
:1022F00070B50D4D04464FF47A712878B1FBF0F0BB
:102300000A490968B1FBF0F001F002FA48B9102C53
:1023100007D200222146501E00F034F800206C60E5
:1023200070BD012070BD0000A4000020B00000209E
:102330000C4882B0016841F480410160006800F4FB
:10234000804000900748001F016841F08051016003
:102350000068002200F0805000900F21901E02B013
:1023600000F010B844380240002809DB00F01F02DA
:10237000012191404009800000F1E020C0F80011E7
:1023800070470000F0B40E4B1B680C46C3F30223E9
:10239000C3F10705042D00D90425191D072901D211
:1023A000002300E0DB1E012606FA05F1491E21404C
:1023B00099409E40761E16403143F0BC04F0BFBDEC
:1023C0000CED00E0064900F0070208684FF6FF0335
:1023D000184040EA0220034A10430860704700009A
:1023E0000CED00E00000FA05704700684162002033
:1023F0007047F0B50368586A39B19C6A4FF4827629
:1024000000EB144400204D1E0AE040EA02409862AE
:102410000FE006EB8007DF59401C04EB1744C0B205
:10242000A842F6D344EA02404FF4807202EB8101E5
:1024300058500020F0BDD0F8E00403F020BC01EBC0
:10244000C10200EB8202D0F8E004126A03F071BB13
:1024500001EBC10200EB8202D0F8E004D2F8602266
:1024600003F0C3BBD0F8E00403F00BBC0A0601F094
:102470000F0101EBC10100EB810101D5143101E035
:1024800001F51571006804F0F1BA70B504460B0649
:1024900001F00F0000EBC00104EB81014FF00102DD
:1024A0004FF0000502D54A75143103E081F855520A
:1024B00001F51571087094F89404012808D084F887
:1024C0009424206803F0ECFF84F89454002070BD3D
:1024D000022070BD70B5044601F00F0022799042D1
:1024E00001D9012070BD0B0601F00F0101EBC10104
:1024F00004EB81014FF001024FF0000502D54A754F
:10250000143103E081F8555201F515718D70087092
:1025100094F89404012808D084F89424206804F0E6
:1025200031F984F89454002070BD022070BD01F090
:102530000F0101EBC10100EB8100D0F86802704788
:102540002DE9F04104460F0601F00F0000EBC00139
:1025500004EB81014FF001064FF0000502D54E75E6
:10256000143103E081F8555201F51571C2F30A02E6
:1025700008708A600B714A7802B14883022B00D13F
:102580004D7194F89404012809D084F8946420686B
:1025900003F0D4FE284684F89454BDE8F08102206C
:1025A000FBE710B501F00F0404EBC40100EB81015F
:1025B000C1E998230023C1F8683281F8553281F8C7
:1025C0005442837901F51571012B00D1CA618279DA
:1025D000006804F02FF9002010BD70B504460D46C8
:1025E00001F00F002179884201D9012070BD290630
:1025F0004FF000064FF0010206D500EBC00104EBDE
:1026000081014A75143107E005EBC50104EB810136
:1026100081F8556201F515718A70087094F8940478
:10262000012807D084F89424206804F0D7F82807FC
:1026300002D007E0022070BDA17904F29C4220681C
:1026400004F074F884F89464002070BD10B501F0B3
:102650000F0404EBC40100EB8101C1E9082300234E
:102660008B6201234B7501F8144F8379012B00D144
:10267000CA618279006804F0DDF8002010BD000016
:102680002DE9FC5F05680446284604F08BFA002813
:102690007DD1206804F0B2FA002878D0D5F8080877
:1026A000C0F30D20C4F8D404206804F0A7FA800712
:1026B00004D52068416901F002014161206804F0FD
:1026C0009DFAC10604F29C40009034D520688169CF
:1026D00021F0100181612F6A07F00F0000EBC000AC
:1026E00004EB8006C7F3434006F51576022802D0B6
:1026F000062811D01AE047F6F070074216D0C7F34B
:102700000A1217462846F16804F07CFAF06838444B
:10271000F0607069384408E008222846009904F007
:1027200071FA7069C7F30A11084470612068816901
:1027300041F010018161206804F060FA00034FF05D
:10274000080B4FF0000A4FF001097CD500262068E5
:1027500004F033FA074674E0F80770D0F1B220684D
:1027600004F044FA8046C00707D005EB4611C1F8D3
:10277000089B3146204601F017FF5FEA087024D518
:1027800005EB4611C1F808BB2068016C00E023E2AC
:1027900000EB46100191D0F8082BFB4B994205D96C
:1027A000110403D54FF40041C0F8081B204600F087
:1027B000F6FAF5490198884207D9A079012804D191
:1027C00020680121009A03F0B1FF5FEAC86004D5D8
:1027D00005EB46111020C1F8080B5FEA88701DD583
:1027E0006869000605D5D5F8040840F48061C5F88D
:1027F000041806EBC60004EB800090F8571200F5B1
:102800001570012905D180F803A0F1B2204600F02F
:10281000E9F905EB46110220C1F8080B5FEA886070
:1028200004D505EB46102021C0F8081B5FEA88405C
:1028300005D505EB46104FF40051C0F8081B7F0882
:10284000761C002F88D1206804F0D8F940036ED59B
:10285000206804F0ABF90746002666E0F80762D06E
:10286000F1B2206804F0B0F98046C00723D006F02A
:102870000F01D5F8342809FA01F18A43C5F8342844
:1028800005EB4611C1F80899A07901280FD106EB94
:10289000C60004EB8000D0E907211144016236B97B
:1028A000606A20B920680121009A03F03FFFF1B26D
:1028B0002046FFF7C4FD5FEA087003D505EB46111B
:1028C000C1F808B95FEAC86004D505EB46111020CD
:1028D000C1F808095FEA486004D505EB46104021BD
:1028E000C0F808195FEA887016D53146284604F00A
:1028F0002EF906EBC60004EB8000C17D14300129DF
:1029000005D180F803A0F1B2204600F067F905EB8D
:1029100046110220C1F808095FEA086003D5314674
:10292000204601F0A7FE7F08761C002F96D1206874
:1029300004F064F9002811DAD5F8040820F0010148
:10294000C5F8041894F8CC0401282BD0204600F0D8
:102950000BFA2068416901F000414161206804F0F0
:102960004DF900050BD5D5F80808C00702D0204660
:1029700000F03EFA2068416901F40061416120687D
:1029800004F03CF9C00467D5D5F8040820F0010034
:10299000C5F804081021206804F0D9F800214FF68A
:1029A0007F3220E084F8CCA400212046FFF71CFDF4
:1029B000CFE700BF05EB4110C0F80829D0F8003977
:1029C00023F40013C0F80039C0F8082BD0F8003BFE
:1029D00023F40013C0F8003BD0F8003B43F0006341
:1029E000C0F8003B491C20798842E3D8D5F81C0880
:1029F00040F00111C5F81C18E07B002828460DD0D6
:102A0000D0F8840840F00B01C5F88418D5F84408C4
:102A100040F00B012846C5F844180DE0D0F8140822
:102A200042F22B010843C5F81408D5F8100840F00D
:102A30000B012846C5F81018D0F8000820F4FE61F4
:102A4000C5F80018A1792068009A03F06FFE20688D
:102A5000416901F480514161206804F0CFF880049D
:102A600015D5206803F0AAFC206804F08EF8E07108
:102A700000F00EFB0146E279206804F021F92046BF
:102A800000F05CF92068416901F40051416120685F
:102A900004F0B4F8000707D5204600F069F9206873
:102AA000416901F008014161206804F0A7F80006BF
:102AB00016D5A86920F08001A96101260DE000BFAC
:102AC00006EBC60004EB800090F85702012803D102
:102AD000F1B22046FFF7CAFC761C2079B042EFD84D
:102AE000206804F08BF8C0021FD501264F4614E081
:102AF00005EB4610D0F8000906EBC60104EB810196
:102B00000A7E012A08D1002806DACF75F0B240F01B
:102B100080012046FFF7AAFC761C2079B042E7D856
:102B20002068416901F480114161206804F066F871
:102B3000800234D501204A4629E000BF05EB401150
:102B4000D1F8001B00EBC00304EB830393F8586239
:102B5000012E1BD1002919DA94F8D464C1F3004185
:102B600006F001068E4211D183F85722A96941F07F
:102B70008003AB616969090608D4D5F8040840F4FC
:102B80000070C5F8040805E00A30544F401C217954
:102B90008142D3D82068416901F400114161206865
:102BA00004F02CF8400007D52046FFF744FC2068CD
:102BB000416901F080414161206804F01FF840073D
:102BC0000AD520684568680702D52046FFF74AFC09
:102BD0002068416829434160BDE8FC9FD0F8E004CB
:102BE00003F0A1B8D0F8E00403F0B1B8F8B50400E0
:102BF00005D094F895042668002510B106E0012060
:102C0000F8BD84F89454204600F056F8032084F868
:102C10009504B6F1A04F00D1A571206803F080FDA6
:102C2000207C8DF8000094E80F0003F0D5FB02260D
:102C3000B8BB0021206804F004F890BB00200127F5
:102C40000DE000BF00EBC00104EB81014F7508757A
:102C5000C8850D76CD610D62401CC0B24D622179F0
:102C60008142EFD8002011E000EBC00104EB8101AC
:102C700081F8555281F8540281F85852C1F85C52DB
:102C8000C1F86052401CC0B2C1F86452217981423F
:102C9000EAD8207C8DF8000094E80F0003F082FC55
:102CA00010B184F89564AAE7657484F89574206877
:102CB00003F06AFC0020F8BD10B586B0044614216C
:102CC0006846FDF73FFC2068B0F1A04F2FD11948AE
:102CD0000021026842F001020260006800F0010079
:102CE00005904FF4C05000900220CDE9010103206F
:102CF00003900A20049069460F48FFF7D9F90D4860
:102D0000001D016841F0800101600A48143001682B
:102D100041F4804101600068002200F48040059089
:102D200005214320FFF72EFB4320FFF71DFB06B0D4
:102D300010BD0000303802400000024070B504466B
:102D4000C079012570B1022801D0FEF737FA294673
:102D5000D4F8E00403F06AF8D4F8E004BDE8704069
:102D600003F01EB80025F2E7D0F8E00403F047B8FE
:102D7000D0F8E00403F04DB810B5044690F8940480
:102D800001280AD0012084F894046174206803F0BB
:102D900086FF002084F8940410BD022010BDD0F8F6
:102DA000E02400F29C41104603F04CB810B50446F4
:102DB000006894F89414012909D0012184F894142E
:102DC000C168490609D5617B012902D005E00220CE
:102DD00010BD816B41F480318163206803F095FE62
:102DE000206803F0C3FB002084F8940410BD0000A9
:102DF00010B50446D0F8E00403F066F82068D0F877
:102E0000001E41F00101C0F8001EE07A002804D045
:102E10000248016841F00601016010BD10ED00E0BC
:102E20002DE9F843054600684FF00109C1074FF04E
:102E3000000601D1400727D5DFF80C81C8F868608B
:102E4000FFF72EFA0746414C05E000BFFFF728FACE
:102E5000C01B022857D820680001F7D46868810198
:102E6000287A41EA0070394984310860C8F86890CE
:102E7000FFF716FA074604E0FFF712FAC01B022814
:102E800041D820680001F7D52878800752D52F480F
:102E90004030016841F08051016000682C4C00F026
:102EA00080500090206840F480702060FFF7F8F9AF
:102EB000074604E0FFF7F4F9C01B022823D8206876
:102EC000C005F7D5214C7034206810F4407020D034
:102ED000A98901F4407181421BD020681D4920F46A
:102EE0004070C1F800900E6020602068C00710D0CC
:102EF000FFF7D6F9064641F2883707E0FFF7D0F929
:102F0000801BB84202D90320BDE8F88320688007FF
:102F1000F4D5E9680D48C1F301220830032A0BD02B
:102F2000016821F4F81101602068A989C1F30B013F
:102F3000084320600020E7E70268074B22F4F812FC
:102F400019400A430260EFE70000474200380240A0
:102F500000700040400E4742FFFCFF0F2DE9F04794
:102F60000E46050065D0DFF81481D8F80000F7B2EE
:102F700000F00700B04207D288F80070D8F80000CF
:102F800000F00700B04254D128683D4C810712D5AB
:102F9000400703D5206840F4E050206028780007FF
:102FA00003D5206840F4604020602068A96820F0C4
:102FB000F000084320602878C0072DD030496868A9
:102FC0000839012812D0022813D0032811D009682B
:102FD000890700292DDA216821F0030101432160CE
:102FE000FFF75EF9814641F2883A0EE009688903ED
:102FF000EFE709688901ECE7FFF752F9A0EB090157
:10300000514502D90320BDE8F0872068696800F0C7
:103010000C00B0EB810FEFD1D8F80010404601F062
:103020000701B14207D90770006800F00700B042FD
:1030300001D00120E7E72878400705D52068E96836
:1030400020F4E050084320602878000706D5206867
:10305000296920F4604040EAC100206000F03EF899
:103060002168084AC1F30311515CC8400649086051
:1030700006480068FFF73CF90020C4E7003C024026
:1030800008380240C4870008B0000020A8000020D3
:103090000148006870470000B0000020044805495E
:1030A00000680968044AC1F38221515CC840704736
:1030B000B000002008380240D487000804480549C1
:1030C00000680968044AC1F34231515CC840704746
:1030D000B000002008380240D4870008154810B519
:1030E000006810F00C02144813D01449042A0FD0C1
:1030F000082A0ED10F4C241F2268236802F03F02D9
:103100005B0207D52068C0F38810A0FB010106E030
:10311000084610BD2168C1F38811A1FB00010023FE
:10312000FDF722F92168C1F30141491C4900B0FBB8
:10313000F1F010BD083802400024F400001BB70075
:103140002DE9F84F04006ED02078DFF84C93C007CB
:10315000A9F104054AD009F104000168C1F3810115
:10316000012908D00068C0F3810002280AD1D9F8EB
:103170000000400206D52868800337D56068002823
:10318000E1D033E06068B0F5803F10D0B0F5A02FFB
:10319000286810D020F480302860286820F480202F
:1031A00028606068A8B1FFF77BF806460DE0286844
:1031B00040F48030F4E740F480202860F7E700BF57
:1031C000FFF76EF8801B642873D828688003F7D552
:1031D0000CE0FFF765F8064605E000BFFFF760F872
:1031E000801B6428F0D828688003F7D42078DFF8A3
:1031F000AC8280074FF0000A3ED5A748001D016849
:1032000011F00C0F08D00068C0F3810002280BD128
:10321000D9F80000400207D42868800716D5E06876
:10322000012800D112E033E1E068B8B10120C8F80C
:103230000000FFF735F8064605E000BFFFF730F85D
:10324000801B0228C0D828688007F7D52868216924
:1032500020F0F80040EAC10028600DE0C8F800A0A6
:10326000FFF71EF8064604E0FFF71AF8801B022855
:103270001FD828688007F7D42078000722D5864F0A
:1032800087486169703771B101210160FFF708F863
:10329000064604E0FFF704F8801B022809D83868C6
:1032A0008007F7D50EE0C0F800A0FEF7F9FF06464C
:1032B00005E082E0FEF7F4FF801B02287DD8386825
:1032C0008007F7D42078400768D5DFF8CCB1002715
:1032D0000BF13C0BDBF80000C0000BD4DBF8001056
:1032E00041F08051CBF80010DBF80000012700F01E
:1032F000805000906B4E3068C00510D4306840F4A8
:1033000080703060FEF7CCFF009005E0FEF7C8FF4C
:103310000099401A022850D83068C005F6D55E4E94
:10332000A0686C3601280FD00528306810D020F036
:1033300001003060306820F004003060A068B8B14F
:10334000FEF7AEFF00900FE0306840F00100F4E7B8
:1033500040F004003060F7E7FEF7A2FF0099411A41
:1033600041F28830814266D830688007F4D50EE09B
:10337000FEF796FF009007E0FEF792FF0099411AD2
:1033800041F28830814256D830688007F4D42FB19A
:10339000DBF8001021F08051CBF80010A069C8B311
:1033A0003D49091D0968C1F3810102294AD002285B
:1033B000504607D0C8F8600000E03CE0FEF770FF20
:1033C00004463BE04746C8F86000FEF769FF064642
:1033D00005E000BFFEF764FF801B02282BD8286899
:1033E0008001F7D4D4E907010843A16A2E4A4908AD
:1033F00002EB0141626A41EA8211084394F82C1001
:1034000040EA0161C9F8001001203866FEF748FF64
:10341000044606E03EE000BFFEF742FF001B022824
:1034200009D828688001F7D534E000BFFEF738FFDF
:10343000001B022802D90320BDE8F88F286880010C
:10344000F4D427E00128F7D0D9F80000E26900F4AD
:10345000800191421CD1226A00F03F01914217D1B4
:1034600047F6C071626A0140B1EB821F10D1A26AB7
:103470004FF0FF3300F4403103EB5202B1EB024F47
:1034800006D194F82C1000F07060B0EB016F01D001
:103490000120D1E70020CFE7043802400000474276
:1034A000800E4742007000400000FFFF10B504008E
:1034B00002D0607F10B106E0012010BD002020770F
:1034C000204600F041F8022060772068C168C943B7
:1034D000C90632D5CA21416221685320486220467C
:1034E00001F012FA20BB20688168164A1140816001
:1034F0002168886862681043D4E904231A431043A2
:1035000088602168E068086120680169228941EAD1
:1035100002410161204601F01BFA48B921680A6C9A
:1035200022F480220A6421680A6CA3691A430A649F
:103530002268FF21516208B110BD0020012161778E
:1035400010BD0000BFFF8FFF1FB50021009101914A
:10355000029103910068084988420CD10220009032
:10356000000203906846FFF75BFC08B1FDF726FEFA
:103570000249012008601FBD002800403C0E474260
:1035800070B50446007F0B46012819D00126267726
:1035900002206077B2B19878D97840EA014558782E
:1035A0001978000240EA413005432168CA20486288
:1035B000216853204862204601F0A6F9D0B122E0EC
:1035C000022070BD5878C10603D500F0EF000A3024
:1035D0005870D87801F08CF90204587801F088F915
:1035E00042EA0022987801F083F90243187842EA0F
:1035F0004035DAE70748054020684560204601F07D
:10360000A7F900B966772268FF215162002121776E
:1036100070BD00003FFFFF002DE9F0410446007F30
:103620000D46012823D04FF0010884F81C800220A9
:1036300060772068002780684FEA4060D2B1002898
:1036400000DBEF70A878297840EA01466878E978CD
:10365000000240EA815006432168CA20486221687E
:1036600053204862204601F04FF9B8B12CE0022007
:10367000BDE8F081002800DBEF70287801F038F910
:103680000204687801F034F942EA0022A87801F0D7
:103690002FF90243E87842EA8056DDE70D480640FC
:1036A000206806602068816821F480218160D5E966
:1036B0000301084321688A6810438860204601F0AE
:1036C00047F908B984F81D802268FF2151622777E5
:1036D000CEE700007F7F7F0070B504460B4821686D
:1036E000C860FEF7DDFD05464FF47A7607E000BFBF
:1036F000FEF7D6FD401BB04201D9032070BD206803
:10370000C0688006F4D5002070BD00005F7F010016
:1037100010B5401EB0F1807F01D3012010BD4FF0E5
:10372000E02460610F21601703F009FC0020A06114
:1037300007202061002010BD38B5044690F84200F3
:10374000202801D0022038BD51B14AB101202063A8
:1037500000206063204601F033FD216B012901D078
:10376000012038BD21680A684968009121680C3140
:1037700051E8002F42F0100241E80023002BF5D160
:1037800038BD000000680349884202D10249012087
:1037900008707047004800408D010020704770B5E8
:1037A000040004D094F84100002510B106E0012087
:1037B00070BD84F84050204600F024F8242084F89E
:1037C00041002068C16821F40051C160204601F029
:1037D00071FC2068016921F4904101612068416910
:1037E00021F02A0141612068C16841F40051C160A3
:1037F0006564202084F8410084F84200656300205D
:1038000070BD00002DE9F04F87B0054614216846D1
:10381000FCF798FE534B29685348022603270722DA
:1038200000244FF000694FF4806A4FF4807B994286
:103830005FD14D4914310B6843F010030B600968E8
:1038400001F010010591016841F002010160016879
:1038500001F002010591016841F001010160006879
:1038600002AB00F0010005908020CDE900069046F3
:1038700083E8900169463D48FEF71AFC3002CDE925
:10388000000602AB694683E890013948FEF710FC58
:10389000394F3848D0463860C7E90194C7E9034A30
:1038A0007C61C7E9064B3C625E4638467C62FEF7A7
:1038B0004BFB08B1FDF782FCEF63BD632E4F2D4833
:1038C00060377830E7E802094020A7E811012A486C
:1038D00047F814496030C7E906463C627C62FEF74F
:1038E00033FB08B1FDF76AFCAF63BD6307B0BDE809
:1038F000F08F224B9942F9D11B4910310B6843F4E8
:1039000080230B60096801F480210591016841F072
:10391000040101600068029400F0040005904FF477
:103920004060CDE90006CDE9037269461448FEF710
:10393000BFFB114E1348C0363060C6E90194C6E99A
:10394000034A7461C6E9064B4FF44030C6E90804E7
:103950003046FEF7F9FA08B1FDF730FCEE63B563C7
:10396000C4E700000010014030380240000402406B
:1039700000000240406402407C06002000480040F5
:10398000000802402860024070477047FEE710B50B
:10399000044680EC020A30EE600A80ED020AD0EDA7
:1039A000030AD0ED081A30EE601A21EE211A80EDDC
:1039B0000C1A90ED091A21EE001A80ED0D1AB0EEE6
:1039C000001A00EEC10AD0ED040A04F1340030EE12
:1039D000200AD4ED0A0A20EE200A84ED0E0A94EDA6
:1039E000120AB8EE400A03F0BAFA94ED0C0AD4EDCC
:1039F0000D0A04F1400030EE200AD4ED0E0A30EE3C
:103A0000200AD4ED100A30EE200A84ED100A94ED5D
:103A1000110AB8EE400A03F0A2FA94ED030A84ED0D
:103A2000040A94ED020A84ED030A94ED100A10BD15
:103A300000F1200383EC030AC0E911129FED0A0A8A
:103A400080ED0C0A80ED0E0A80ED0D0A80ED020A71
:103A500080ED030A80ED040A80ED100A80ED010A72
:103A600080ED000A7047000000000000F0B5002360
:103A70000A24302537261F4611E000BFB4EB107F23
:103A800002D905EB107C01E006EB107C01F813C0B5
:103A900001EB430C00015B1C8CF80170DBB293421C
:103AA000ECD3F0BD08B504F051FB0A4E0A4C0B4DA7
:103AB000CDF80000B4F844002988884201D170682C
:103AC0008047B4F8440028800121684603F0CEFE08
:103AD000F0E70000DC010020906300209802002045
:103AE00010B58AB001200290002008210490CDE991
:103AF00005018DF81C00FF208DF820008DF82100B5
:103B00008DF824008DF822008DF825008DF8230013
:103B10008DF82600FC208DF8270008A800900548A5
:103B2000012300224468054803490068A0470AB001
:103B300010BD0000700100207C050020080000205E
:103B400090ED010AFCEEC00A10EE901A018480ED9F
:103B50000F0A00210187704710B58AB0012002903A
:103B6000002008210490CDE905018DF81C00FF20FC
:103B70008DF820008DF821008DF824008DF82200AA
:103B80008DF825008DF823008DF82600FE208DF895
:103B9000270008A800900548012300224468054832
:103BA00003490068A0470AB010BD00007001002062
:103BB0007C050020080000200FB4F2EE090A70B561
:103BC0002DED028B9DF83400DFED668A069D664C74
:103BD0006D1E000954F82510B1EE0C8A91ED010A12
:103BE000BCEEC00A10EE102A0A8454F82510088092
:103BF000BDF8350040BA00EE100A54F82500B8EEC2
:103C0000400A80ED060A9DF837009DF83810000143
:103C100040EA111000EE100A54F825001021B8EE09
:103C2000400A80ED070A9DF8390000EE100A54F8AA
:103C30002500B8EE400A80ED040A54F8250090ED06
:103C4000060ABDEEC00A10EE100ABAEE090A03F029
:103C5000E1FC54F82500F6EE000A80ED010A20EEA2
:103C6000200A54F82500DFED410A0C2120EE200A3D
:103C7000DFED3F0A20EE200AF0EE680A80ED010A2F
:103C800054F8250090ED070ABDEEC00A10EE100AA8
:103C90009FED380A03F0BEFC54F825000C21F0EE2D
:103CA000480A80ED020A54F8250090ED040ABDEEA2
:103CB000C00A10EE100AB9EE0C0A03F0ABFC54F87F
:103CC000250080ED050A54F825109DF83A00087388
:103CD00054F825109DF83B00487354F82500018CDA
:103CE000D0ED010A00EE101A2349B8EE400A30EE7A
:103CF000C00A10EE102A8A4202D9028F521C028793
:103D000054F82500028CD0ED010A00EE102AB8EE1E
:103D1000400A30EE600A10EE102A8A4202D9018F62
:103D2000491E018754F82500B0F93810D0ED010A7A
:103D3000490300EE101AB8EEC00A30EE800A80ED9A
:103D40000F0A54F8250030F8441F491C018054F82C
:103D50002510012081F84200BDEC028B70BC5DF89B
:103D600014FB000000004843D8010020DB0F49404D
:103D700000001042000048C30020CBC52DE9F041EF
:103D800004462DED068BF0EE60AAF0EE419AB0EEFF
:103D900042AADFED2C0AB0EE619A9FED2C1A20EEBC
:103DA000200AF0EE000ADFED2A8AB1EE0C8A20EE3E
:103DB000200ADFED250A102020EE200ADFED250A7B
:103DC00003F0E2F807460C20B0EE681ADFED220A95
:103DD000B0EE6A0A03F0D8F806460C20B0EE481A96
:103DE000F9EE0C0AB0EE4A0A03F0CEF89FED1C8AF9
:103DF00080460C209FED191AF0EE480AB0EE690AD1
:103E000003F0C2F805460C20B1EE041AF0EE480AA1
:103E1000B0EE490A03F0B8F8390A21706770310929
:103E2000A170310141EA1521E1702571010961712B
:103E3000010141EA1820A07184F80780BDEC068BCF
:103E4000BDE8F08100000039DB0F4940DC0F49403C
:103E500000004843DC0F49C0000048C30000FA439B
:103E600000000000816270472DE9F04115460E46C2
:103E700080460024114F12E008EB840090ED000A08
:103E80000E4803F095F80020395C696029684906FE
:103E9000FCD5401CC0B20428F6D3641CA4B2B442C2
:103EA000EAD3074900200A5C6A602A685206FCD5FA
:103EB000401CC0B20428F6D3BDE8F081D401002034
:103EC000288D000870B51B480125017C427C09043F
:103ED00041EA4244408A174904430020B1F1880175
:103EE00001EB000305FA00F21E7D22420ED0761C83
:103EF000F6B21E75032E02D98E6816438E601B7DA6
:103F00003C2B13D90B6913430B610FE0361F382E7E
:103F1000CE6801D2164300E09643CE608E68964389
:103F20008E600E69964300220E611A75401C12289D
:103F3000D6DB70BD6863002030EE601AD0ED030A56
:103F4000D0ED041A1B4A30EEE12AF0EE081AF0EE2A
:103F5000000A20EE210A21EE211A20EE200AC0EEEE
:103F6000020AC1ED000A90ED030A90ED042A10EE5A
:103F7000900A30EE422A904281EE020AB1EE041A13
:103F800081ED010A01DB81ED001A0B480B68F9EEA7
:103F9000040A834201D3C1ED000A10EE103A9342A5
:103FA00001DB81ED011A4A68824201D3C1ED010AA9
:103FB000704700000000A0400000A0C070B5A0F253
:103FC0000120DDE90743A1B24DBA00EBC00216495A
:103FD000200C44BA01EB820021F8225044809CB2AC
:103FE00064BA84801B0C837131F82230048A0F4D2F
:103FF0001E1BAE4202DA038B5B1C04E0E31AAB42E9
:1040000002DA038B5B1E038331F82230B0F91840CB
:1040100003EB4433436131F822100182C18B491C08
:10402000C1830121017770BD7462002090E8FFFF19
:1040300030B5050A039C25706070080AA070E17015
:10404000100A20716271180AA071E37130BD00007E
:10405000104810B50E4901600321416000214FF462
:1040600010228160C0E903124FF400124261017610
:1040700041768176C176017701214177FDF7E3FC36
:10408000002803D0BDE81040FDF798B810BD00002F
:10409000006400407C050020104810B50E49016006
:1040A0000321416000214FF410228160C0E9031216
:1040B0004FF400124261017641768176C176017734
:1040C00001214177FDF7BFFC002803D0BDE8104077
:1040D000FDF774B810BD000000680040A405002082
:1040E000154808B5016841F400110160016801F448
:1040F00000110091016841F4800101600068002214
:1041000000F48000009005210C20FEF73BF90C2004
:10411000FEF72AF9002205213A20FEF733F93A206A
:10412000FEF722F9002205214620FEF72BF9BDE813
:1041300008404620FEF718B93038024010B5CEB01E
:1041400000222421102003F04FFD464C00222421A0
:104150002060102003F048FD606000222421102020
:1041600003F042FDA06000221921102003F03CFD65
:10417000E0601C223C496846FCF7B2F90021684621
:1041800002F059FF384960631C221C3107A8FCF774
:10419000A7F9002107A802F04EFF3349A0631C22B3
:1041A00038310EA8FCF79CF900210EA802F043FF5D
:1041B0002D4920611C22543115A8FCF791F90021EA
:1041C00015A802F038FF284960611C2270311CA834
:1041D000FCF786F900211CA802F02DFF2249A061FE
:1041E0001C228C3123A8FCF77BF9002123A802F0C4
:1041F00022FF1D49E0611C22A8312AA8FCF770F9B2
:1042000000212AA802F017FF174960621C22C4315E
:1042100031A8FCF765F9002131A802F00CFF124922
:1042200020621C22E03138A8FCF75AF9002138A896
:1042300002F001FF0C49A0621C22FC313FA8FCF7F0
:104240004FF900213FA802F0F6FEE0621C22074968
:1042500046A8FCF745F9002146A802F0ECFE2063D1
:104260004EB010BD0000002088860008A08700081E
:10427000154808B5016841F002010160016801F0CC
:1042800002010091016841F001010160016801F043
:1042900001010091016841F008010160016801F02D
:1042A00008010091016841F004010160016801F01A
:1042B00004010091016841F080010160006800F094
:1042C0008000009008BD00003038024010B586B074
:1042D00014216846FCF736F91B4800241949059457
:1042E000C0E900147F218160FF21C0E9031444610B
:1042F0008461FFF7DBF808B1FCF760FF8DF8004040
:104300008DF801408DF802400394012269460E4861
:104310000494FFF781F908B1FCF750FF01208DF8F4
:1043200014008DF815008DF8160002468DF8174020
:1043300005A90548FFF724F9002801D0FCF73EFF46
:1043400006B010BD00280040CC0500200C4810B578
:104350000A4901604FF4E1314160002181600C2283
:10436000C160C0E904128161C161FFF718FA002839
:1043700003D0BDE81040FCF721BF10BD0010014084
:10438000EC0500200C4810B50A4901600B4941605A
:10439000002181600C22C160C0E904128161C16109
:1043A000FFF7FDF9002803D0BDE81040FCF706BF79
:1043B00010BD00000048004034060020A086010027
:1043C00010B500220F49104801F08EFB08B1FCF730
:1043D000F5FE0E490C4801F0A3FD08B1FCF7EEFE16
:1043E0000B49094801F020F908B1FCF7E7FE06483F
:1043F00001F01AFE002803D0BDE81040FCF7DEBE35
:1044000010BD0000400000209C070020F0020020AA
:1044100090000020FEE7000070B510EE102A6FF04B
:1044200040434FF4800513440122B0EE082AAB420A
:104430000BD2F8EE000A002370EEC00A0B704A702F
:10444000C0ED000A30EE020A16E010EE103A2E4CD3
:104450004FF400061C440223B1EE401AF7EE000AA6
:10446000F0EE001AB4420AD271EE600A0A7030EE21
:10447000210A4B70C0ED000A80ED010A70BD10EEFC
:10448000104A032214F1814F0BD8B5EEC00AF1EEA9
:1044900010FA06D20B704A7080ED001A30EE200A36
:1044A000EAE7B5EEC00A0423F1EE10FA0BDB10EEDA
:1044B000104AB4F17E5F06DA70EEC00A0A704B70E3
:1044C000C0ED000AD8E710EE102A0524A2F17E52B2
:1044D000B24208D231EEC01A0B704C7080ED001A57
:1044E00030EE600AC8E710EE102AA2F18042AA421C
:1044F000C4D872EE400A0C7006224A70C0ED000A61
:1045000030EE610AB8E70000FFFF7F40FEE70000E1
:104510000148FEF7B5B80000981E00209FED0A1A6A
:10452000F7EE001A80ED001AC0ED031A80ED090ABB
:10453000C0ED0A0AC0ED071A80ED081AC0ED0B1A8B
:1045400080ED011A7047000000000000D0ED071A4E
:10455000D0ED000A21EEA01A80ED011AD0ED090A73
:1045600090ED032A41EE820AC0ED040AD0ED0A1A4A
:1045700030EEA12AC0EE821A30EE412AB0EE410A96
:10458000B7EE001AC0ED061A31EE611A01EE820A8A
:1045900061EE200A80ED020AC0ED050AC0ED030AB3
:1045A00080ED000A704700002DE9F04103680D46D8
:1045B00004461E6C03EB4511D1F8080B94F806E095
:1045C0004FF400474FF0200C04F29C42BEF1010F63
:1045D00009D0DFF898E0764539D1020432D500BF22
:1045E000C1F8087B3FE0224B5FEA007E04D59E4283
:1045F00039D90004F4D436E05FEA806E02D5C1F800
:1046000008CB30E010F0280F2DD19E4201D90004D4
:10461000E6D405EBC50004EB8000D1F8101BD0F800
:104620007432C1F31201591AC0F8681200F51570FE
:10463000ADB903691BB1C2681144C1600FE001212B
:1046400020680AE080060AD5C1F808CB07E035B932
:10465000D4F8640218B90021184602F067F8E9B2EC
:104660002046FDF7F5FE0020BDE8F0810A31544FE9
:104670000A30544F2DE9F84F0E4601EBC60100EB0E
:10468000810481460568D4E909101434884202D9AE
:104690000120BDE8F88F081AA168814200D20846BF
:1046A000C01C870805EB46181BE000BFA0EB010A01
:1046B000A068504500D282460AF10300870899F8A5
:1046C000060000901FFA8AF3F2B22846E16802F071
:1046D0006BFBE16801EB0A00E060616901EB0A0035
:1046E0006061D8F8180980B2B84205D3D4E9040152
:1046F000814201D20028D9D1D4E90401884208D8E6
:1047000006F00F0101208840D5F834188143C5F820
:1047100034180020BDE770B530EE601A2DED048B23
:1047200004460D4680EC020A80ED021AD0ED050A1F
:1047300030EE600A80ED060A90ED070AD0ED030A1C
:1047400030EE010A80ED070AB0EE410A0846FCF798
:1047500039FE94ED080AD5ED000A95ED051AD4ED61
:10476000098A94ED0A8A00EE810AD5ED010A95EDD9
:10477000061A94ED0B9A04F11C0040EE818AD5EDE7
:10478000020A95ED071A00EE818AD4ED020A20EEA6
:10479000800A84ED0C0A94ED120AB8EE400A02F089
:1047A000DEFB94ED070A04F1400020EE280A84EDB8
:1047B0000D0AD4ED020A94ED031A70EEC10A60EE00
:1047C000880AC4ED0E0A94ED061A21EE091A84ED4A
:1047D0000F1AD4ED0C1A31EE800A30EE200A30EEBA
:1047E000010A84ED100A94ED110AB8EE400A02F0B5
:1047F000B6FB94ED020A84ED030A94ED000A84ED01
:10480000050A94ED100ABDEC048B70BD00F1200187
:1048100081EC040A9FED0B0A80ED0C0A80ED0E0A74
:1048200080ED0D0A80ED020A80ED030A80ED040A96
:1048300080ED100A80ED010A80ED000A443080EC22
:10484000032A70470000000010B5044680EC020AFD
:1048500030EE600A80ED020AD0ED030A70EE600AC5
:10486000C0ED040A90ED081AD1ED001A31EE211ABC
:1048700021EE001A80ED0C1A90ED091AD1ED011A03
:1048800071EE211A90ED0D1A04F1340001EE801A38
:1048900084ED0D1A94ED0A0A91ED021A30EE010A28
:1048A00020EE200A84ED0E0A94ED130A02F057FB65
:1048B00094ED0C0AD4ED0D0A04F1400030EE200A0C
:1048C000D4ED0E0A30EE200A84ED100A94ED110AA0
:1048D00002F045FB94ED020A84ED030A94ED100A00
:1048E00010BD008800B200EE100AB8EEC00A704792
:1048F000002102E00A38C0B2491C0A28FAD209078E
:1049000040EA1160704700002DE9F041044600685C
:104910000025C168490618D4C16841F08001C16012
:10492000FDF7BEFC06464FF47A78042707E000BF87
:10493000FDF7B6FC801B404501D96777012520684B
:10494000C068400601D4002DF2D02846BDE8F081B1
:1049500070B5044600680025C16821F08001C1607F
:1049600020688068800606D42046FEF7B5FE10B1A8
:10497000042060770125284670BD00002DE9F05F16
:10498000CA4DCB4C00262DED028BA88C012801D0FE
:1049900040B112E001210820FCF7B8FD38B9688C5D
:1049A00028B10AE001210820FCF7B0FD28B1AE8053
:1049B0002662E6612661E6602E7601210020FCF782
:1049C000A5FD9FEDBC8ABA4F243710B194ED010AC2
:1049D00008E001210846FCF799FD40B160684042BB
:1049E00000EE100AB8EEC00A87ED010A05E0B048F3
:1049F0002430FCF735F987ED018AAD48243000F00A
:104A000011FA4042288001210220FCF77FFDDFF8E7
:104A1000A08208F1300820B1A068404200EE100AE0
:104A200006E001210320FCF771FD30B194ED020A8C
:104A3000B8EEC00A88ED010A05E09D483030FCF769
:104A40000FF988ED018A9A48303000F0EBF94042C6
:104A5000688001210620FCF759FD012308B1E068B8
:104A600028B101210620FCF751FD10B109E0E360F7
:104A700007E0E068012804D1E069282801DBE6614D
:104A8000E660DFF82C92B5F9041009F13C09B9F998
:104A90000A00814209DAE068012806D1E069282885
:104AA00003DA0A31A980401CE06101210720FCF7EC
:104AB0002DFD08B1206928B101210720FCF726FD52
:104AC00010B109E0236107E02069012804D1206AC0
:104AD000282801DB26622661B5F90400B9F908101F
:104AE000884209DD2169012906D1216A282903DAD2
:104AF0000A38A880491C216200211120FCF706FD1C
:104B000000286D496D4ADFF8B8C1287B12D010B17A
:104B100001280DD01BE02B7391ED000ABDEEC00AF9
:104B200010EE100A688192ED000A8CED040A03E091
:104B30002E730CE001280AD191ED000ABDEEC00AE7
:104B400010EE100A688192ED000A8CED040A012132
:104B50001020FCF7DBFC20B902211020FCF7D6FC6A
:104B600010B1687E012876D00320687301210D20E2
:104B7000FCF7CCFC80B14FF416727A815042388138
:104B8000A8F80A20A8F808004FF44871A9F80A10FC
:104B90004FF6E041A9F8081001210E20FCF7B6FC01
:104BA0004FF4966ACAF1000B60B14FF461727A81DA
:104BB00051423981A8F80A20A8F80810A9F80AA0DB
:104BC000A9F808B001210F20FCF7A0FC78B1A7F8E4
:104BD0000AA0A7F808B0A8F80AA0A8F808B04FF4EF
:104BE000C861A9F80A104FF6C011A9F808100021F1
:104BF0000B20FCF78BFC334F58B1B7F9120040F291
:104C00002621C84205DA00F507707882E87D801E0B
:104C1000E87500210C20FCF779FC58B1B7F91200B7
:104C200040F6B831C84205DDA0F507707882E87D0E
:104C3000801CE8752448418901EB81012981808924
:104C40000121C000E8800520FCF760FC78B1A06974
:104C500018B10DE0FFE76B7388E7287E10B10128DB
:104C600002D002E02B7600E02E76A36100E0A66180
:104C700001210920FCF74AFC58B1606950B9687EEF
:104C800010B1012802D002E06B7600E06E7663611D
:104C900000E0666101210A20FCF738FC20B12B7787
:104CA000BDEC028BBDE8F09F2E77F9E74C62002047
:104CB0008C01002000000000600100206401002041
:104CC000D8630020400200206863002030B5124BFA
:104CD00012481A461D7E0024B2F90420016A012DF3
:104CE00003D0511A9980046230BDC56955B1012DB8
:104CF000FAD1C91ED21E01629A8011F5967FF3DCAB
:104D0000C46130BDC91CD21C01629A80B1F5967F86
:104D1000F7DB0121C16130BD4C620020F8010020A9
:104D200086B003F013FADFF8A090284D284CDFF886
:104D3000A4A0294F0DF110080DF1040B0390D9F830
:104D40000C004E46804770688047244800688047C2
:104D5000CDF80080224B4646B5F96220D3F804C056
:104D6000B5F93E10B5F91A000023E04794F9410067
:104D700094ED0D2A00EE100A94F94000D4ED0C0ACF
:104D8000F8EEC01A00EE100A1648B8EEC01A016814
:104D900094ED0B0A01A888470096DAF804C056463D
:104DA0004FF40073002210493868E047CDF800B096
:104DB0007668012300220D493868B047022103A814
:104DC00002F054FDBBE700001C02002074620020CA
:104DD0009063002070010020080000208402002061
:104DE00084010020DC0100207C050020A4050020B7
:104DF0000178407841EA00207047000010B5064C69
:104E00002068804760688047044805490079496800
:104E1000BDE81040084700007C020020740200201A
:104E20003002002090EC020A30EE200A80ED000AE9
:104E3000B0F9081000EE901AF8EEE00AB4EEE00ABD
:104E4000F1EE10FA05D200EE101AB8EEC00A80EDAD
:104E5000000AB0F90A10F0EE400A00EE101AB8EE9F
:104E6000C00AF4EEC00AF1EE10FA02DCB0EE600AFD
:104E700005E000EE101AB8EEC00A80ED000ABDEEA3
:104E8000C00A10EE100A00B27047FFF799FA01202D
:104E900002F0C5F8FBE710B5FDF708FA03F048F992
:104EA000012803D0BDE8104002F088BE10BD00000C
:104EB00030B593B030216846FBF744FB14210CA8B1
:104EC000FBF740FB1F480025016841F0805101605D
:104ED000006800F0805011901B48016841F4804147
:104EE00001600068022400F48040119009200090C5
:104EF0004FF4803001900120CDE905048005079032
:104F000006200890A820CDE9090407200B906846E8
:104F1000FEF716F908B172B6FEE70CA90F2081E87A
:104F200031004FF4A0500F904FF4805010900521A5
:104F30000CA8FEF713F8002801D072B6FEE713B0F4
:104F400030BD000040380240007000400248016857
:104F500041F470010160704788ED00E070B5846B2A
:104F60002068406994F84110C0F3C0100025212941
:104F700004D118B1E584204600F08EF8206840691D
:104F800094F84210C0F38010222904D118B1E585AD
:104F9000204600F05AF8606C40F010006064204633
:104FA000FEF7FCFB70BD10B50146806B096809680F
:104FB0004FF00002C9052ED4C28501680C3151E8BA
:104FC000003F23F4807341E80034002CF5D10168E0
:104FD000143151E8003F23F0010341E80034002C74
:104FE000F5D10168143151E8003F23F0400341E856
:104FF0000034002CF5D1202180F84210016B0129EA
:1050000009D101680C3151E8003F23F0100341E859
:105010000034002CF5D14263016B012902D0FEF768
:10502000B3FC10BD818DFEF7ADFB10BD10B5806BDC
:1050300001214163016B012902D0FEF7A6FC10BDDE
:10504000818D4908FEF79EFB10BD01680C3151E8C7
:10505000002F22F4907241E80023002BF5D1016863
:10506000143151E8002F22F0010241E80023002B07
:10507000F5D1016B012909D101680C3151E8002FEC
:1050800022F0100241E80023002BF5D1202180F806
:10509000421000210163704701680C3151E8002F74
:1050A00022F0C00241E80023002BF5D1202180F836
:1050B0004110704770B5044600680169E26821F448
:1050C0004051114301612169A068E26908436169A7
:1050D000114308432168CA6849F20C639A430243AA
:1050E000CA6020684169A26921F44071114341619D
:1050F00031492068884202D03049884202D1FDF708
:10510000DDFF01E0FDF7CAFFE269002319216425F4
:105110003226B2F5004F626828D0A0FB0101930F40
:105120009200FBF721F90146B0FBF5F06FF0180291
:10513000504301EB800006EB0010B0FBF5F000F0EF
:10514000F002B1FBF5F002EB0012B1FBF5F06FF0ED
:105150001803584301EB800006EB0010B0FBF5F09C
:1051600000F00F0021681044886070BDA0FB0101B1
:1051700092185B41FBF7F8F80146B0FBF5F002012D
:10518000B1FBF5F06FF01803584301EB800006EB1C
:10519000C000B0FBF5F000F0F80002EB4002B1FBFC
:1051A000F5F0584301EB800006EBC000B0FBF5F0D2
:1051B00000F00700D6E70000001001400014014095
:1051C00038B581620446828500201346606422223D
:1051D00084F84220E56B1F4AEA63E56B1E4A2A64A5
:1051E000E56B1E4AEA64E26B10650A462168E06BD3
:1051F000091DFCF713FF30B110206064202084F8F3
:105200004200012038BD2068016840680090206994
:1052100048B120680C3050E8001F41F4807140E82C
:105220000012002AF5D12068143050E8001F41F028
:10523000010140E80012002AF5D12068143050E83E
:10524000001F41F0400140E80012002AF5D1002083
:1052500038BD0000A74F00082D5000085D4F000822
:10526000064D88B04FF0FF3422466946286802F0A8
:1052700031FE684601F0ACFDF6E700000C000020AE
:10528000CD2001F0E5FD022002F0CAFAF8E72DE991
:10529000F0410C46D0F8D412D0F8C82200EB8101BE
:1052A000D1F8C01229B304F00F0606EB860300EB19
:1052B000830500276B694BB106EBC60602EB86023D
:1052C000D269B3FBF2F602FB1632A2B1C1F8147236
:1052D000D0F8D42200EB8200D0F8C40203692BB1CD
:1052E000D1F80802224601F5047198470020BDE874
:1052F000F0810320FBE700231A4621466F6100F08E
:10530000F0FDF3E770B50546D0F8D40205EB800058
:10531000D0F8C04294B1284600F0C2FCC4F80C0298
:10532000D5F8D412D4F8040205EB8101D1F8C412E7
:10533000CA6804F503719047002070BD032070BD5A
:1053400070B5234D0446297800F0EAFB2878002642
:1053500000F00F0000EB800004EB800080F8236079
:105360006978204600F0DCFB687800F00F0000EB65
:10537000800004EB800080F86361A978204600F08B
:10538000CFFBA87800F00F0000EB800004EB80005A
:1053900080F82360C661D4F8D40204EB8000D0F812
:1053A000C01299B1D0F8C40240688047D4F8D40242
:1053B00004EB8000D0F8C00200F0BAFFD4F8D402A9
:1053C00004EB8000C0F8C062C4F8BC62002070BD6D
:1053D0009C02002010B5D0F8D41200EB8100D0F868
:1053E000C04284B1D0F8C41259B194F80002FF2829
:1053F00007D08B6894F8012221469847FF2084F853
:105400000002002010BD032010BD00000A21018011
:1054100000487047A002002070B5064682210C4863
:1054200000F001FB05460121094800F0FCFA0446A2
:105430008121074800F0F7FA0DB11021A971402130
:1054400004B1A18000B1818043203080004870BD4C
:10545000AC02002070B5064682210D4800F0E3FA48
:10546000054601210A4800F0DEFA04468121084879
:1054700000F0D9FA0DB11021A9714FF4007104B1F7
:10548000A18000B1818043203080014870BD0000C0
:10549000AC02002070B5064682210C4800F0C3FA29
:1054A00005460121094800F0BEFA0446812107485B
:1054B00000F0B9FA0DB11021A971402104B1A18009
:1054C00000B1818043203080004870BDAC020020D4
:1054D0002DE9F04704464FF40775284600F02AFFEF
:1054E00006004FF0000865D02946FBF72BF8D4F8EA
:1054F000D4023E4D04EB80004FF01009C0F8C062AA
:10550000C4F8BC62207C4FF4007A0127E8B3402342
:1055100002222978204600F02EFC2878402300F053
:105520000F0000EB800004EB800080F82370022263
:105530006978204600F01FFC6878082300F00F000F
:1055400000EB800004EB8000032280F86371A978EF
:10555000204601F00F0101EB810104EB8101C1F84C
:105560001C90A97800F007FCA87800F00F0000EB71
:10557000800004EB800080F82370C6F80482D4F821
:10558000D402474604EB800000E01BE0D0F8C402E0
:1055900006F50176006880473761776132687AB135
:1055A000207C00B340236978204600F0F0FB002007
:1055B000BDE8F087D4F8D41204EB8101C1F8C082B1
:1055C0000220F5E7534602222978204600F0D3FB5B
:1055D0002878534600F00F0000EB800004EB8000B9
:1055E00080F82370A3E75346DDE700009C0200200B
:1055F00010B5D0F8D41200EB8101D1F8C01259B126
:10560000027C084C002AD1F8042207D0402361789C
:1056100000F0BDFB002010BD032010BD4FF400734F
:10562000F5E700009C02002039B1D0F8D42200EB4D
:105630008200C0F8C4120020704703207047D0F8E1
:10564000D42200EB8200D0F8C00218B1C0F80412D6
:105650000020704703207047D0F8D43200EB83005D
:10566000D0F8C00228B1C0F81022C0F808120020FB
:105670007047032070472DE9FC410646D0F8D4025C
:105680000C4606EB80000021D0F8C0728DF80010A7
:10569000ADF804100D4637B1217811F060022FD01B
:1056A000202A4BD102E00320BDE8FC81E288F2B160
:1056B00009060DD5D0F8C40263783946D0F808C081
:1056C0001846E047E288072A00D9072239462DE02C
:1056D000607887F80002E088402800D34020C2B2FA
:1056E00087F801223946304600F081F82BE0D0F8E7
:1056F000C40263780022866821461846B04722E03B
:10570000607830B101281ED00A2809D00B2815D1A5
:1057100010E096F89C02032810D1022201A905E0AE
:1057200096F89C02032809D101226946304600F010
:105730007AF808E096F89C02032804D02146304607
:1057400000F04AF803252846AEE7000010B5D0F86F
:10575000D41200EB8101D1F8C02201211AB1D2F894
:10576000143213B116E0032010BD0121C2F8141247
:105770000949D2F81032097801F00F0404EB8404CF
:1057800000EB84046361D2F81032D2F8082200F0F2
:10579000A8FB0021084610BD9C02002010B5D0F8DF
:1057A000B82200245268904700B10324204610BD5F
:1057B0000020704700207047134610B50A460021AC
:1057C00000F0E5FA002010BD134610B50A4600218E
:1057D00000F087FB002010BD10B50446802100F0CA
:1057E00061FB2046BDE81040002100F05BBB10B516
:1057F0000323C0F89432C0F85421C0F8582113464E
:10580000C0F864110A46002100F0C1FA002010BD62
:1058100010B50521C0F8941200231A46194600F06D
:10582000B6FA002010BD10B50223C0F894324261D0
:105830008261134641620A46002100F052FB0020BB
:1058400010BD10B50421C0F8941200231A46194661
:1058500000F047FB002010BD10B50A46024903A026
:1058600000F00FF9004810BD780A0020434443209F
:10587000436F6E6669670000122008800048704719
:105880006000002010B50A46024903A000F0F9F8B4
:10589000004810BD780A002043444320496E7465D7
:1058A000726661636500000004200880004870474C
:1058B0005C00002010B50A46024903A000F0E1F8A0
:1058C000004810BD780A002053544D6963726F651B
:1058D0006C656374726F6E696373000010B50A467D
:1058E000024903A000F0CDF8004810BD780A00205E
:1058F00053544D3332205669727475616C20436F76
:105900006D506F727400000010B51A2008800A48AC
:105910000168001D0468001D0068081809D00822ED
:105920000649FEF7A3F80549042210312046FEF788
:105930009DF80248801E10BD107AFF1F76000020DF
:10594000F8B504460020ADF8000048880D46010A6D
:1059500008295FD2DFE801F05E0409175E5E3C456E
:10596000D4F8B412207C0A6819E0207C02260028B2
:10597000D4F8B80205D0C16A684688470146467027
:1059800039E0816AF8E7C0B2062843D2DFE800F0C8
:10599000030A1014181CD4F8B402426805E06946E2
:1059A00090471CE0D4F8B402826892B3207CF6E7FA
:1059B000D4F8B402C268F8E7D4F8B4020269F4E794
:1059C000D4F8B4024269F0E7D4F8B4028269ECE793
:1059D000207CF0B9D4F8B802416B6846884701468C
:1059E00009E0207CA8B9D4F8B802016B6846884762
:1059F000014607204870EA888AB1BDF8000040B12E
:105A0000824200D90246ADF800202046FFF70BFF86
:105A1000F8BDFFE729462046FFF7DEFEF8E72046FF
:105A2000FFF70FFFF4E778B50E46428801780025AE
:105A300004468A4212D9ADF800100AE0694600F027
:105A400019F84178052904D181780546B14205D07D
:105A500000256188BDF800209142EFD8284678BD26
:105A60000146002002E0401CC0B2491C0A78002A0E
:105A7000F9D170470A8803781A440A8001780844EB
:105A8000704770B516460D46002820D00446FFF733
:105A9000E7FF022101EB40014FF40070814204D87E
:105AA0002046FFF7DDFF4000801C308030782870F2
:105AB000032068700220002206E02954401CC0B276
:105AC0002A54401CC0B2641C21780029F5D170BD55
:105AD00001004FF0000004D0012901D0022901D0BB
