:020000040800F2
:10000000886E0020290300089D460008C93B0008AF
:10001000A5450008E90900086D710008000000000E
:10002000000000000000000000000000690200085D
:10003000F110000800000000C50200081B51000874
:100040004303000843030008430300084303000878
:100050004303000843030008430300084303000868
:100060004303000843030008430300084303000858
:10007000A90D0008430300084303000843030008D8
:10008000430300084303000843030008F90900087C
:10009000ED09000843030008430300084303000878
:1000A0004303000843030008430300084303000818
:1000B0004303000843030008430300084303000808
:1000C00043030008430300084303000843030008F8
:1000D00043030008430300084303000843030008E8
:1000E00043030008430300084303000843030008D8
:1000F00043030008430300084303000843030008C8
:1001000043030008430300084303000843030008B7
:1001100043030008430300084303000843030008A7
:100120004303000843030008B50D0008430300081B
:10013000430300084303000843030008110A0008B2
:10014000050A00084303000843030008A14600080D
:100150004303000843030008C10D000843030008DF
:100160004303000843030008430300084303000857
:100170004303000843030008430300080000000095
:10018000430300084303000800F002F800F05CF8A5
:100190000AA090E8000C82448344AAF10107DA45E2
:1001A00001D100F051F8AFF2090EBAE80F0013F0D8
:1001B000010F18BFFB1A43F001031847D88E000047
:1001C000F88E00000A444FF0000C10F8013B13F0C9
:1001D000070408BF10F8014B1D1108BF10F8015BA0
:1001E000641E05D010F8016B641E01F8016BF9D193
:1001F00013F0080F1EBF10F8014BAD1C0C1B09D1EA
:100200006D1E58BF01F801CBFAD505E014F8016B5B
:1002100001F8016B6D1EF9D59142D6D370470000ED
:100220000023002400250026103A28BF78C1FBD8FF
:10023000520728BF30C148BF0B6070471FB508F098
:100240005FFB1FBD10B510BD00F0A6F91146FFF70A
:10025000F5FF07F009F800F0C4F903B4FFF7F2FF67
:1002600003BC00F0CBF900002C4B19680868B0E81B
:10027000F04F80F30988BFF36F8F4FF0000080F3D9
:10028000118870470000000008480068006880F38B
:1002900008884FF0000080F3148862B661B6BFF39F
:1002A0004F8FBFF36F8F00DF00BF00BF08ED00E08E
:1002B000DFF80C00016841F470010160704700BF75
:1002C00088ED00E0EFF30980BFF36F8F134B1A68DE
:1002D0001EF0100F08BF20ED108A20E9F04F1060CB
:1002E00009B44FF0500080F31188BFF34F8FBFF374
:1002F0006F8F07F0FDFC4FF0000080F3118809BC00
:1003000019680868B0E8F04F1EF0100F08BFB0EC95
:10031000108A80F30988BFF36F8F7047B400002004
:10032000EFF30580704700000948804709480047FF
:10033000FEE7FEE7FEE7FEE7FEE7FEE7FEE7FEE795
:10034000FEE7FEE704480549054A064B70470000F2
:10035000D15100088901000888680020886E0020BB
:10036000886A0020886A002053EA020C00F0698045
:100370002DE9F04B4FF00006002B1FBFB3FA83F5B9
:1003800003FA05F424FA05F65E4012BF1643B2FAEA
:1003900082F502FA05F4C5F120051EBF22FA05FC1C
:1003A00044EA0C04203556EA044C4FEA144418BFC2
:1003B000641C4FF000084FF00009904271EB030CF1
:1003C00039D3002919BFB1FA81F701FA07F6B0FA5B
:1003D00080F700FA07F6C7F120071EBF20FA07FCD6
:1003E00046EA0C062037B6FBF4FCA7EB0507103FE6
:1003F00007F01F0BCBF120060CFA0BFB2CFA06F6CC
:1004000044BFB3460026202FA4BF5E464FF0000B2A
:100410005BEA060C08BF4FF0010B19EB0B09ABFBB5
:10042000027C48EB0608C01B06FB02CC0BFB03CC8E
:1004300071EB0C01C1E70B46024641464846BDE858
:10044000F08B13B54FF000004FF00001AFF30080C8
:10045000BDE81C407047032A40F2308010F0030CC6
:1004600000F0158011F8013BBCF1020F624498BF07
:1004700011F801CB00F8013B38BF11F8013BA2F1A4
:10048000040298BF00F801CB38BF00F8013B11F01F
:10049000030300F02580083AC0F0088051F8043BBF
:1004A000083A51F804CBA0E80810F5E7121D5CBF2C
:1004B00051F8043B40F8043BAFF30080D20724BF5F
:1004C00011F8013B11F801CB48BF11F8012B24BFF3
:1004D00000F8013B00F801CB48BF00F8012B704742
:1004E00010B5203AC0F00B80B1E81850203AA0E8CF
:1004F0001850B1E81850A0E81850BFF4F5AF5FEA03
:10050000027C24BFB1E81850A0E8185044BF18C9B5
:1005100018C0BDE810405FEA827C24BF51F8043B5C
:1005200040F8043B08BF7047D20728BF31F8023BB0
:1005300048BF11F8012B28BF20F8023B48BF00F844
:10054000012B70474FF0000200B5134694469646C3
:10055000203922BFA0E80C50A0E80C50B1F12001D6
:10056000BFF4F7AF090728BFA0E80C5048BF0CC084
:100570005DF804EB890028BF40F8042B08BF7047E2
:1005800048BF20F8022B11F0804F18BF00F8012B54
:100590007047704770477047754600F02BF8AE46BD
:1005A00005006946534620F00700854618B020B57F
:1005B000FFF7C8FEBDE820404FF000064FF00007EF
:1005C0004FF000084FF0000B21F00701AC46ACE8FB
:1005D000C009ACE8C009ACE8C009ACE8C0098D4668
:1005E000704710B50446AFF300802046BDE81040C8
:1005F000FFF733BE004870472868002001491820E3
:10060000ABBEFEE726000200704700002DED0C8B0C
:10061000824C9FED83BADFED83BA9FED83CADFED95
:1006200083CA41F28836B5009FED81DADFED81DAC9
:10063000DFED819A9FED81AADFED81AA814F4FF412
:100640007A7842F2107900BF07F08AF92268012116
:100650007D489047226802217C489047B0EE4B8A43
:10066000F0EE6B8AB0EE4C9AB2EE042AF0EE481A25
:10067000B3EE091AF0EE680AB0EE490A744806F0C3
:10068000E5FDB2EE042AF0EE481AB3EE091AF0EED8
:10069000680AB0EE490A6F4806F0D8FDB2EE042AA7
:1006A000F0EE481AB3EE091AF0EE680AB0EE490A05
:1006B000694806F0CBFDB2EE042AF0EE481AB3EE1C
:1006C000091AF0EE680AB0EE490A644806F0BEFD69
:1006D000B2EE042AF0EE481AB3EE091AF0EE680AF8
:1006E000B0EE490A5E4806F0B1FDB2EE042AF0EE23
:1006F000481AB3EE091AF0EE680AB0EE490A5948F2
:1007000006F0A4FDF0EE6C8AB0EE082AF0EE681A4E
:10071000B1EE041AFBEE0E0AB3EE0E0A524806F0D2
:1007200095FDB7EE002AF0EE681AB0EE481AFAEE20
:10073000040AB2EE040A4D4806F088FDB0EE4D8A78
:10074000B0EE6D9A32462946B3EE0E1AF0EE480A24
:10075000B0EE490A464803F039FA32462946B3EE6C
:100760000E1AF0EE480AB0EE490A424803F02EFA9B
:1007700032462946B3EE0E1AF0EE480AB0EE490AA8
:100780003D4803F023FA32462946B3EE0E1AF0EE46
:10079000480AB0EE490A394803F018FA32462946A9
:1007A000B3EE0E1AF0EE480AB0EE490A344803F0F0
:1007B0000DFA32462946B3EE0E1AF0EE480AB0EEB4
:1007C000490A304803F002FAB0EE693AF0EE4A2ADC
:1007D000B0EE6A2AF6EE001AB6EE001AF0EE680ADB
:1007E000B3EE040A284804F065F942464946B0EEE3
:1007F000081AF6EE000AB2EE090A244803F0E6F9F8
:1008000000F0F4F900F06AFCB86B07F0B7F907F0F4
:10081000C7F8012006F045FD16E700003001002072
:10082000CDCCCC3D0000C8C20000C8420AD7233C52
:10083000000000000000204200002F440000FA45A4
:1008400000409C4600000020340500205C0500208C
:100850005460002094600020D460002014610020C7
:100860005461002094610020D461002014620020B3
:10087000A4650020F46500204466002094660020F2
:10088000E46600203467002084670020D8670020D9
:100890008AB0084E6C464FF0FF3707AD3A466946BE
:1008A000306807F059FC09AB2A46211D009800F07A
:1008B00081FFF3E70800002070B50C46050008D062
:1008C000022C06D9FF22611E00F054FF291901F8FD
:1008D000010C70BDF0B585B000202D4C0390049044
:1008E0000190029020882B4D010A8DF80C108DF894
:1008F0000D006088294E010A8DF80E108DF80F004A
:10090000A08840F20F13010A8DF810108DF8110025
:100910002089010A8DF812108DF8130003A80090A9
:100920006F6800221C493068B847608940F21F1385
:10093000010A8DF804108DF80500E07D8DF80600A1
:10094000617E9DF8070001F001010843217B01F061
:10095000010140EA4100217E01F0010140EA8100ED
:10096000A17D01F0010140EAC1008DF807000C48AB
:10097000B0F86400010A8DF808108DF8090001A88C
:1009800000906C68002204493068A04705B0F0BDB3
:1009900034630020300100205C05002008000020A6
:1009A00058630020DDE9031288B243BA0C48090CF1
:1009B00049BAC381018491B249BA09B200EE101A52
:1009C000DFED080A110CB8EEC00A01F00102C1F314
:1009D000400180EE201A80ED041A8276418470472F
:1009E0003463002000007A44FEE70000014801F073
:1009F0004AB8000034050020014801F044B8000066
:100A000034050020014801F03EB800005C050020DC
:100A1000014801F038B800005C05002010B504461C
:100A2000491EC8B200EB400101EB00100E49002244
:100A300001EB800101230A614A614A62C1E9062390
:100A40000A604A608A600B622046CA6000F01AFFA2
:100A500008B100F0FDFC204601F090FA2046BDE808
:100A60001040022100F094BE5462002010B58AB0FC
:100A70000C9C009192B102930021CDE90321082240
:100A800005928DF81810216807916168002308917C
:100A90001A46694607F050FA0AB010BD0193EBE719
:100AA000002070470020704710B500220449054817
:100AB00004F014FF0449034804F003FF002010BDB4
:100AC0003014002054070020300C002010B50146DF
:100AD000034804F0F6FE024804F0CCFE002010BDEE
:100AE0005407002000207047094A10B5D2F8BC22F4
:100AF000D2F814220AB1012010BD0A46014604486A
:100B000004F0ECFEBDE81040014804F061BF0000B5
:100B1000540700208EB00E4E0E4F4FF0FF3809AD37
:100B2000424605A9306807F017FB059CA4F2012096
:100B30000628F5D8142229466846FFF7D1FCDDE9DE
:100B40000612D7F800C02046089BE047E8E70000FF
:100B500000000020440100208EB0174E174D4FF0CA
:100B6000FF3940F20F170DF124084A4605A93068F5
:100B700007F0F2FA9DF83000059C00F00F00288085
:100B8000BC4208D1142241466846FFF7A9FC0C4834
:100B9000D0F804C009E00128E7D114224146684694
:100BA000FFF79EFC0748D0F80CC0DDE9061220468E
:100BB000089BE047D9E7000004000020460200201F
:100BC0003C010020A0010020074800210068B0F887
:100BD000442022B180F84610A0F84410704701224A
:100BE00080F84620F8E700009C010020154810B569
:100BF00090ED0B0A1448DFED160A80ED030A80ED34
:100C0000010A9FED120A80ED040AB7EE080A1430BB
:100C100003F04CFDF2EE040AB7EE000A0D4803F0B3
:100C200045FD0948F2EE040AB1EE080A443003F02B
:100C30003DFD0948002102220176C2754176C17648
:100C400010BD0000E86400203065002000000000B6
:100C500000002042246000203463002070B53B482F
:100C60003C4A3D4BB0F90610057B394802EE101A9C
:100C70003A4CD0ED041AB8EEC22A90ED060AB2EE54
:100C8000041AFAEE0E0A02EE210A012D10EE101AD5
:100C900080ED060A04D091421ADD80ED061A1DE0AF
:100CA000914202DD80ED061A05E010EE101A99421D
:100CB00001D9C0ED060A94ED040AD0ED061A01210F
:100CC00030EE200A30EE210A84ED030A41610FE084
:100CD00010EE101A994201D9C0ED060A416909B116
:100CE000012905D190ED060A30EE200A84ED030AB1
:100CF000E168914202DD84ED031A03E0994201D9D3
:100D0000C4ED030A90ED020A154DBDEEC00A10EEC7
:100D1000101A05F8401F90ED030ABDEEC00A10EE50
:100D2000101A697090ED010A05ED040A90ED000AB1
:100D30000A4805ED030A94ED030A443003F0CEFCA3
:100D400094ED030A05ED050A70BD00003463002030
:100D5000BC01002000002041000070C1306500206F
:100D6000E8640020FFF77ABF90ED000A90ED011AC9
:100D7000F0EEC00AB0EEC11AF4EEC10AF1EE10FABC
:100D800004D29FED070A80ED000A70479FED051A17
:100D9000F0EE400A40EE410AC0ED000A7047000044
:100DA00000000000CDCC4C3E014801F01BB9000012
:100DB000F4060020014801F015B9000034060020B7
:100DC000014801F00FB900009406002001681823C3
:100DD000CAB2103AB2FBF3F2054B6FF30901032AD2
:100DE0009B5CC36500D9091D8165084670470000FA
:100DF000408A000810B5014600208B698A6A4FF0CE
:100E0000C07453B1B3F5005F15D072B1012A0CD094
:100E1000022A0AD0032A09D104E01AB1012A06D015
:100E2000022A03D1C96AC90100D5012010BDC96ACF
:100E3000A142FAD010BD002AF7D0012AF2D0022A2E
:100E4000F3D0032AF3D010BD30B50468256825F42B
:100E500080252560046863608368402B036803D0A5
:100E600099600068C26030BD9A600068C16030BDA2
:100E700008B507F0ADFA009000F006F805216846C5
:100E800006F036FEF8E700002DE9F05F884A2DED08
:100E9000028B107801287BD18649002515700888BF
:100EA000C0F30A07A1F11600A7F5806707804B7809
:100EB0002D37DC088B7844EA4314C4F30A06A6F500
:100EC00080664680CC789B0943EA84040B7944EA27
:100ED0008324C4F30A04A4F5806484805B0891F839
:100EE00005C05A2F43EACC13C3F30A03A3F580636A
:100EF000C38000D80580761D0A2E00D84580641D69
:100F00000A2C00D885805B1D0A2B00D8C5804FEACB
:100F10009C130372CCF301164672CC8844810C8971
:100F200084814C89C4810C7B04744C7B4474CC89CF
:100F30004482098AA1F5806109B2818201F5257197
:100F4000B1F5A56F00D985825B4C0321DFF86CA158
:100F500094ED000A5A4F5B4CBDEEC08A4FF0020B75
:100F60004FF00108032B04D0022B33D0012B74D097
:100F700075E0002E73D0C3885B42238083885B4278
:100F80006380022E05D0032E09D0012E0CD015E06F
:100F900086E084F816806576556261730EE0A5756B
:100FA00065766673556209E0A57584F81980516A03
:100FB000322902DA491C516200E0667325734188C8
:100FC000E18001882181808A4000A08018EE100A0B
:100FD000608150E09EB38146C08840422080B9F8CD
:100FE0000400404260806673B9F9020007F073FBA9
:100FF0009FED351B53EC112B07F084FB07F03CFBF6
:10100000E080B9F80000208118EE101A84F80C80F6
:1010100061812F494046022E91ED000A2D4981ED54
:10102000040A04D0012E0CD0032E14D038E0B9F8F5
:10103000141001EB81017981A57560762DE00EE039
:101040000BE0A5756076B9F8140000EB8001C1EBE8
:101050000040788117E065761AE0032E07D02573EB
:1010600025806580A5802581E580617310E002F010
:10107000F7FF03F089FD607B012804D0032807D027
:1010800002280AD00CE087F80C80AAF8048007E058
:1010900087F80CB0AAF8045002E03D73AAF804B037
:1010A0000D480068BDEC028BBDE8F05F0047000012
:1010B0004C010020D66400202001002040020020C6
:1010C00004020020346300209A9999999999C93FA4
:1010D00024010020306500203C010020122202493A
:1010E000024802F047BC0000D6640020EC05002056
:1010F0007047000010B51749174C0A7BB4F962001D
:10110000012A02D1497B012910D000EE100A1449AE
:101110001448F8EEC00A9FED110A03F0FBFBBDEE88
:10112000C00A10EE100AA4F8760010BD00EE100AF6
:101130000D4924F8681FF8EEC00A9FED0C0A084913
:10114000084803F0E7FBBDEEC00A10EE100AE0818C
:1011500010BD0000040200205863002000000000C1
:10116000D4610020D867002018FCFFFF00007AC47B
:101170003E4810B5017B3E4C012902D1407B01283D
:1011800014D00020A4F8680034F9620F3A4900EE48
:10119000100A3A48F8EEC00A9FED360A03F0BAFB8F
:1011A000BDEEC00A10EE100AA08210BD34F86A0F1E
:1011B000401F80B224F80A0994ED040AF8EEC00A30
:1011C00000EE100A2E48B8EE400A03F01EFCBDEEF9
:1011D000C00A10EE100A00B22081B4F9021000EE2D
:1011E000101A2549F8EEC00A00EE100A2348B8EE9E
:1011F000C00A03F08FFBBDEEC00A42F2107110EE80
:10120000100AE082B4F90400603C084444F621610D
:101210008842CAD334F86A0F00F57A7080B224F895
:101220000A0994ED040AF8EEC00A00EE100A144808
:10123000B8EE400A03F0E9FBBDEEC00A10EE100A5A
:1012400000B22081B4F9021000EE101A0A49F8EE3B
:10125000C00A00EE100A0948B8EEC00A03F05AFBB3
:10126000BDEEC00A10EE100AE08210BD040200209C
:101270005863002000000000D4610020D8670020DF
:10128000846700202DE9F0472DED028B01F026F94F
:10129000654C064620789FED658A654D4FF47A7956
:1012A000002728B1E068301AB0F5FA7F0DD3277017
:1012B000DFF8748108F1140898F80C00DFED5D8AFE
:1012C0004FF0010A01280BD048E0A5F8689035F9E5
:1012D000620F00EE100AF8EEC00AB0EE480A52E0C3
:1012E00098F80D0001283DD15348A5F8680035F95C
:1012F000620F00EE100AF8EEC00A9FED500A504946
:10130000504803F007FBBDEEC00A10EE100AA88299
:101310006068623D301A484520D3286FA268801A61
:1013200000D54042142816DA84F800A0E660A5F83B
:101330006890B5F96200424900EE100A4148F8EEA3
:10134000C00AB0EE480A03F0E5FABDEEC00A10EE9E
:10135000100AA5F876006660286FA06098F80C0067
:10136000022802D0607810B104E0677002E098F8BB
:101370000C00A8B1678035F9620F00EE100AF8EE94
:10138000C00AB0EE680A2E492E4803F0C3FABDEE3B
:10139000C00A10EE100AA882BDEC028BBDE8F087EF
:1013A000A4F802A095ED1C0A9FED271A5646F8EE08
:1013B000C00A2648603530EE811AF8EEC00A84ED86
:1013C000041AB0EE410A03F020FBBDEEC00A10EE95
:1013D000100A00B22881B5F9021000EE101A18495F
:1013E000F8EEC00A00EE100A1648B8EEC00A03F084
:1013F00091FABDEEC00A10EE100AE88295ED040ADB
:10140000D4ED040A603DB8EEC00A30EE600AB0EEDA
:10141000C00A10EE100AB0F1804FBDDCA5F876705E
:101420006670C4ED048AB7E7F001002000007A443A
:10143000586300200000000018FCFFFF00007AC481
:10144000D4610020D867002000007042846700202B
:1014500072B6FEE77047000010B500F0BBF84F48C9
:101460004F4C90ED000ABDEEC00A10EE100A01B21A
:1014700010EE100A2181208510EE100AA4F8480011
:1014800010EE100AA4F8880010EE100AA4F8A800C4
:1014900010EE100AA4F8C800B4F9020000EE100A19
:1014A0004148F8EEC00A00EE101A3E49B8EEC00AF4
:1014B00003F030FABDEEC00A3C4910EE100AE0829B
:1014C000B4F9220000EE100AB4F92800F8EEC00AC0
:1014D00000EE100A3648B8EEC00A03F01BFABDEE63
:1014E000C00A344910EE100AE086B4F9420000EE5A
:1014F000100AB4F94800F8EEC00A00EE100A2E48AF
:10150000B8EEC00A03F006FABDEEC00A2B4910EE91
:10151000100AA4F85600B4F9820000EE100AB4F9DB
:101520008800F8EEC00A00EE100A2548B8EEC00A9E
:1015300003F0F0F9BDEEC00A224910EE100AA4F83B
:101540009600B4F9A20000EE100AB4F9A800F8EE73
:10155000C00A00EE100A1C48B8EEC00A03F0DAF91F
:10156000BDEEC00A194910EE100AA4F8B600B4F98D
:10157000C20000EE100AB4F9C800F8EEC00A00EE8E
:10158000100A1348B8EEC00A03F0C4F9BDEEC00A51
:1015900010EE100AA4F8D60010BD0000340200209E
:1015A0005863002054600020A4650020946000204F
:1015B000F4650020D46000204466002014610020FF
:1015C0009466002054610020E466002094610020AD
:1015D000346700200648417E064831B1012903D115
:1015E0009FED050A80ED000A70479FED040AF9E7B8
:1015F000346300203402002000C0C1450000000018
:10160000F0B50446002500F1200102F063FD94EDE1
:10161000080A04F1300104F1280002F0C5FF94ED3E
:10162000090A04F13C0104F1340002F0BDFF94F911
:101630003000434EC0EBC002D4ED0A1AD4ED0D0ABF
:1016400094F93C0006EB820303EB800161EEA02AD3
:1016500091ED000A01EE105A94F93D1094ED0B3A09
:1016600002EE801A94ED0E0A03EB810321EE802A2C
:10167000D3ED001A94F93130C3EBC30302EE211A03
:1016800006EB830663EE201A06EB800723EE003A92
:10169000D7ED000A06EB8106294F01EEA01A96ED60
:1016A000000AC43707EB820606EB800C06EB8106C6
:1016B00003EE001ADCED000A00EE105A02EEA00A5A
:1016C000D6ED000A07EB830606EB800706EB8106E2
:1016D00002EE200AD7ED000A01EEA00AD6ED000ABC
:1016E000184E06EB820202EB800703EE200AD7EDCC
:1016F000003A00EE905A02EB810242EEA30AD2EDCC
:10170000002A06EB830202EB800042EE220A90EDF3
:10171000002A02EB810041EE820AD0ED001A43EE6E
:10172000210AF0EE081A81EE212A80EE211A84EDBA
:10173000002A80EEA10A84ED011A84ED020AF0BDB0
:10174000608A0008E88B0008094A21B1012904D009
:1017500002290BD108E0D16800E09168C14011F086
:10176000010F03D0012070471169F7E7002070478F
:101770003864002010B5054C04E000BF10F8013BB0
:101780005340E25C491EF9D2104610BDAC8C0008F3
:1017900090F82020012A07D0022A05D0416A41F49E
:1017A0008021416201207047006842690A4342611A
:1017B00000207047F0B590F820500468A468012D0F
:1017C00005D0022D03D0416A41F4802157E014F086
:1017D000406F01D1E5004FD5C4F301640125A54058
:1017E0001D608D684FF4C0739DB1CE6835434E685F
:1017F00045EAC605066803EB0417F5514FF4C275B8
:10180000076805EB04150E697E51097D012905D095
:1018100009E00E88CD6845EA4655EBE701684E5968
:1018200046F480764E511179D579567941EA0561B1
:1018300095792D0445EA062529434FF4C6760568B7
:1018400006EB0416A9511178D57841EA056195781F
:1018500052782D0445EA022211434FF4C475026800
:1018600005EB04155151006803EB0411425842F096
:10187000010242500020F0BD416A41F40011416272
:101880000120F0BD10B590F82020012A07D0022ACF
:1018900005D0416A41F480214162012010BD3B48DE
:1018A000D0F8002242F00102C0F80022D0F8002255
:1018B00022F47C52C0F80022D0F800224B6A42EA9F
:1018C0000322C0F800220A7D02F01F0301229A4081
:1018D000D0F81C329343C0F81C32CB69B3B9D0F8AE
:1018E0000C329343C0F80C328C894B6864F31F436D
:1018F0004C6900EBC404C4F840320C890B6864F3F3
:101900001F434C6900EBC404C4F84432CB69012B7B
:1019100016D1D0F80C321343C0F80C320C884B6847
:1019200064F31F434C6900EBC404C4F840320C89D3
:10193000CB6864F31F434C6900EBC404C4F8443221
:101940008B69002BD0F804320ED01343C0F8043258
:101950000B69002BD0F8143208D01343C0F81432AE
:10196000096A012904D008E09343EFE79343F5E7C0
:10197000D0F81C121143C0F81C12D0F8001221F04C
:101980000101C0F80012002010BD000000640040FA
:10199000704770B590F82040012C05D0022C03D080
:1019A000416A41F4802128E0046809B32469A4074E
:1019B00020D04FF4D874056804EB01142D5915F0AC
:1019C0000405956005682D591AD0ED085560056825
:1019D0002C5904F00204D4604FF4DA74056804EB67
:1019E00001142E5906F00F06082E0CD308250DE021
:1019F000E468DCE7416A41F400114162012070BDF6
:101A00006D0D1560E3E72D5905F00F0515610568AB
:101A10002D59C5F30725956105682C59240C54618F
:101A20004FF4DC72046802EB0112A4581C700468C5
:101A3000A458240A5C700468A458240C9C700468A0
:101A4000A258120EDA704FF4DE72046802EB011233
:101A5000A4581C710468A458240A5C710468A45832
:101A6000240C9C710468A258120EDA71006829B126
:101A7000016941F020010161002070BDC16841F0A1
:101A80002001C160F8E72DE9F05F054600680024F9
:101A90004669D0F804908768D0F80CB0D0F810A050
:101AA000D0F81880F10748D0F90714D001218160DF
:101AB000B80703D5284600F08EFA0CE0780702D567
:101AC0004FF4006407E0380702D54FF4805402E079
:101AD000284600F07FFAF80516D529684FF4807083
:101AE0008860B80503D5284600F077FA0CE0780541
:101AF00002D544F4005407E0380502D544F480448C
:101B000002E0284600F068FAF80316D529684FF479
:101B100080308860B80303D5284600F060FA0CE0F6
:101B2000780302D544F4004407E0380302D544F4B6
:101B3000803402E0284600F051FA300707D55FEA0A
:101B4000CB6004D52968102044F40074C860700785
:101B50004FF0080707D55FEA0B7004D52868C76007
:101B6000284600F0A9F9B00706D52868C0688007A4
:101B700002D0284600F0A2F9700607D55FEACA60D5
:101B800004D52968102044F480640861B00607D5A4
:101B90005FEA0A7004D528680761284600F0EAF970
:101BA000F00606D528680069800702D0284600F0B4
:101BB000E2F9B00308D55FEAC96005D529681020AD
:101BC0004860284600F0D8F9F00307D55FEA0970AD
:101BD00004D528684760284600F002FA300446D54C
:101BE0005FEA497040D5F00504D55FEAC87001D0BE
:101BF00044F00104B00504D55FEA887001D544F0D3
:101C00000204700504D55FEA487001D544F004046D
:101C1000300529D518F0700F26D008F07000402844
:101C200015D006DC102809D020280AD0302816D17B
:101C30000AE050280ED0602811D10EE044F00804CC
:101C40000DE044F010040AE044F0200407E044F002
:101C5000400404E044F0800401E044F48074286807
:101C6000816921F070018161296804204860002C9D
:101C700005D0686A204368622846FFF789FEBDE800
:101C8000F09F70B5040003D094F8200010B104E078
:101C9000012070BD204600F081F82068016841F005
:101CA0000101016000F01AFC0546052604E000F081
:101CB00015FC401B0A2811D820684068C007F6D0E0
:101CC0002068016821F00201016000F007FC054670
:101CD0000BE000F003FC401B0A2806D9606A40F4C0
:101CE0000030606284F82060D2E720684068800796
:101CF000EFD4207E0128206801683DD021F08001CA
:101D00000160607E01282068016838D021F0400120
:101D10000160A07E01282068016833D021F02001F5
:101D20000160E07E0128206801682ED041F010019A
:101D30000160207F01282068016829D021F0080176
:101D40000160607F01282068016824D021F004012F
:101D50000160D4E902010843D4E9041211430843A5
:101D60006168491E08432168C86100206062012043
:101D700084F82000002070BD41F08001C0E741F0F0
:101D80004001C5E741F02001CAE721F01001CFE78B
:101D900041F00801D4E741F00401D9E7F0B587B07C
:101DA000044614216846FEF7CDFB3E4B3E48DFF863
:101DB000F0E01968D4F800C03B4A03250226092741
:101DC00010300024491CF4452AD11960012907D19B
:101DD000016841F000710160006800F0007005903A
:101DE000106840F0080010601068CDE9005600F05F
:101DF0000800CDE9047069462C48CDE9024500F0A1
:101E000075FA00220521132000F0DAFB132000F000
:101E1000C9FB00220521142000F0D2FB14203AE077
:101E2000DFF88CE0F44538D1D0F800C04CF0806C7D
:101E3000C0F800C0D0F800C001290CF0806CCDF8CB
:101E400014C0196007D1016841F000710160006899
:101E500000F000700590106840F0020010601068FB
:101E600002AB00F0020005906020CDE9000683E897
:101E7000B00069460F4800F039FA002205213F20E2
:101E800000F09EFB3F2000F08DFB0022052140204A
:101E900000F096FB402000F085FB07B0F0BD00008D
:101EA000006400403C00002030380240000C02403A
:101EB000006800400004024070470000F8B5274B5E
:101EC00002680021264C9A4200D001212170C9B23B
:101ED00001EB4102234E02EB011106EB810202F1FC
:101EE000440300212832FFF754FD207806F19805BD
:101EF00000EB400101EB001106EB810100EBC0009B
:101F000005EB80001C222831FEF7EAFA207800EB6E
:101F1000400202EB001206EB820300EBC001D3E9A2
:101F2000112305EB8101C1E9072388B10E48002385
:101F30006A46006806F0B0F80098002807D00B4900
:101F40004FF080500860BFF34F8FBFF36F8FF8BD25
:101F5000294600236A460648EBE70000006400407B
:101F600038010020546200200400002004ED00E04D
:101F700000000020704770477047000070B50446AD
:101F800090F82000012804D0606A40F400206062CC
:101F900018E0022084F820002068016821F0010187
:101FA000016000F09BFA05460EE000BF00F096FAD3
:101FB000401B0A2808D9606A40F40030606205209E
:101FC00084F82000012070BD20684068C007EDD172
:101FD000606270BD704770477047704770477047C8
:101FE000704700002DE9F84304464FF00009CDF892
:101FF000009063484FF41651A56D0068B0FBF1F7EF
:102000002E6894F85C10082000FA01F131420FD0DC
:1020100021680A6852070BD50A6822F004020A6098
:1020200094F85C108840A860606D40F00100606525
:1020300094F85C104FF0010808FA01F0304208D023
:1020400021684969090604D5A860606D40F0020066
:10205000606594F85C1004208840304208D0216804
:102060000968890704D5A860606D40F004006065C8
:1020700094F85C1010208840304218D0216809681C
:10208000090714D5A86020680168490304D50068D1
:10209000000308D5A16C07E00168C90503D40168F5
:1020A00021F008010160216C09B12046884794F8AD
:1020B0005C1020208840304231D021680968C90670
:1020C0002DD5A86094F8350005282068016806D051
:1020D000490347D5006800031DD4616C1CE021F062
:1020E000160101602068416921F080014161206C86
:1020F00008B9A06C20B12068016821F008010160D6
:1021000094F85C103F208840A86084F8358084F8FB
:102110003490216D1FE0E16B09B120468847606D66
:1021200000282BD0606DC00714D0052084F835003E
:102130002068016821F0010101600098401C0090B6
:10214000B84203D820680068C007F6D184F835800B
:1021500084F83490E16C002910D001B02046BDE82D
:10216000F04308470168C905D5D4016821F0100182
:10217000016084F8358084F83490CCE7BDE8F883BA
:10218000B00000202DE9F041044600F0A7F9064612
:102190005CB1022084F83500002584F834502068B2
:1021A000016821F0010101600DE00120BDE8F0812E
:1021B00000F094F9801B052805D9202060650320D4
:1021C00084F83500F2E720680068C007F0D1226883
:1021D000116820480140D4E901031843D4E90336CB
:1021E0003343184363691843A3691843E3691843E9
:1021F000236A18430843616A042903D1D4E90B1305
:1022000019430843106020684069666A20F007019E
:1022100030460E43012704280CD1A06A0643E06A29
:1022200040B12046FEF7E6FD20B14020606584F80D
:102230003570BAE7206846612046FEF7C7FD94F87E
:102240005C203F2191408160656584F835700020F5
:10225000ACE700003F8010F02DE9F0410446866DA8
:1022600090F83400002501280DD0012084F83400B6
:1022700094F835700020012F07D084F8340002252F
:102280002846BDE8F0810220FBE7022784F835707C
:1022900060652046FEF7D8FD94F85C103F2088402A
:1022A000B0602068016841F016010160206C20B127
:1022B0002068016841F0080101602068016841F070
:1022C00001010160DCE7000070B5044600F006F98A
:1022D0000546601C02D004480078044400F0FEF873
:1022E000401BA042FAD370BDA40000202DE9F84F96
:1022F000DFF8BCA10022012503264FF00F090AF1E7
:10230000040BAAF1040E00BF0B6805FA02F4234087
:10231000A34270D10F7907F00307012F01D0022FDC
:1023200016D187684FEA420806FA08FC27EA0C072C
:10233000D1F80CC00CFA08FC4CEA070CC0F808C035
:102340004768A7430C79C4F3001494403C434460AD
:102350000C79E443A4070AD0C4684FEA420C06FA99
:102360000CF7BC438F6807FA0CF72743C7600C795A
:1023700004F00304022C12D1D40800EB840CDCF826
:1023800020405707FF0E09FA07F824EA0804D1F89D
:10239000108008FA07F848EA0408CCF8208004689E
:1023A0004FEA420C06FA0CF7BC430F7907F003071B
:1023B00007FA0CF7274307604C6814F4403F70D0CD
:1023C0003C4C276847F480472760246822F00307C5
:1023D00004F480440094384C07EB040CDCF8084803
:1023E00097074FEA177809FA08F7BC43334FB8420A
:1023F00002D1002724E054E0314FB84201D1012737
:102400001EE0304FB84201D1022719E02E4FB842EA
:1024100001D1032714E02D4FB84201D104270FE06A
:102420002B4FB84201D105270AE02A4FB84201D10B
:10243000062705E0284FB84201D1072700E008270A
:1024400007FA08F72743CCF80878DAF8004057462F
:10245000D1F804C09C435FEACC2C00D51C433C60FF
:10246000DBF800405F46D1F804C09C435FEA8C2C47
:1024700000D51C433C60DEF800407746D1F804C02C
:102480009C435FEA8C3C00D51C433C60084F083FEE
:102490003C68D1F804C09C435FEACC3C00D51C43A7
:1024A0003C60521C102AFFF42FAFBDE8F88F0000EB
:1024B000083C014044380240003001400000024026
:1024C0000004024000080240000C024000100240DC
:1024D0000014024000180240001C024001488068BD
:1024E00070470000A400002002488168027811446F
:1024F00081607047A40000200B4810B5016841F4CA
:1025000000710160016841F480610160016841F47B
:1025100080710160032000F073F80F2000F006F8CE
:1025200000F024F8002010BD003C024070B50D4DB5
:1025300004464FF47A712878B1FBF0F00A49096833
:10254000B1FBF0F001F002FA48B9102C07D20022DA
:102550002146501E00F034F800206C6070BD012050
:1025600070BD0000A4000020B00000200C4882B024
:10257000016841F480410160006800F480400090EF
:102580000748001F016841F0805101600068002287
:1025900000F0805000900F21901E02B000F010B8A3
:1025A00044380240002809DB00F01F02012191405D
:1025B0004009800000F1E020C0F8001170470000E1
:1025C000F0B40E4B1B680C46C3F30223C3F107059E
:1025D000042D00D90425191D072901D2002300E08C
:1025E000DB1E012606FA05F1491E214099409E4056
:1025F000761E16403143F0BC04F0E3BD0CED00E064
:10260000064900F0070208684FF6FF03184040EA49
:102610000220034A10430860704700000CED00E000
:102620000000FA0570470068416200207047F0B56D
:102630000368586A39B19C6A4FF4827600EB1444FF
:1026400000204D1E0AE040EA024098620FE006EBCF
:102650008007DF59401C04EB1744C0B2A842F6D3F0
:1026600044EA02404FF4807202EB8101585000208E
:10267000F0BDD0F8E00403F044BC01EBC10200EB74
:102680008202D0F8E004126A03F095BB01EBC102AC
:1026900000EB8202D0F8E004D2F8602203F0E7BB3E
:1026A000D0F8E00403F02FBC0A0601F00F0101EBA3
:1026B000C10100EB810101D5143101E001F5157173
:1026C000006804F015BB70B504460B0601F00F005E
:1026D00000EBC00104EB81014FF001024FF0000557
:1026E00002D54A75143103E081F8555201F5157190
:1026F000087094F89404012808D084F89424206881
:1027000004F010F884F89454002070BD022070BDCD
:1027100070B5044601F00F002279904201D90120E2
:1027200070BD0B0601F00F0101EBC10104EB81014B
:102730004FF001024FF0000502D54A75143103E055
:1027400081F8555201F515718D70087094F8940454
:10275000012808D084F89424206804F055F984F8FE
:102760009454002070BD022070BD01F00F0101EBF8
:10277000C10100EB8100D0F8680270472DE9F041FB
:1027800004460F0601F00F0000EBC00104EB8101CD
:102790004FF001064FF0000502D54E75143103E0ED
:1027A00081F8555201F51571C2F30A0208708A606A
:1027B0000B714A7802B14883022B00D14D7194F815
:1027C0009404012809D084F89464206803F0F8FE8A
:1027D000284684F89454BDE8F0810220FBE710B548
:1027E00001F00F0404EBC40100EB8101C1E998235F
:1027F0000023C1F8683281F8553281F85442837958
:1028000001F51571012B00D1CA618279006804F0CD
:1028100053F9002010BD70B504460D4601F00F00BD
:102820002179884201D9012070BD29064FF00006A8
:102830004FF0010206D500EBC00104EB81014A759F
:10284000143107E005EBC50104EB810181F8556205
:1028500001F515718A70087094F89404012807D066
:1028600084F89424206804F0FBF8280702D007E0DD
:10287000022070BDA17904F29C42206804F098F80F
:1028800084F89464002070BD10B501F00F0404EBCF
:10289000C40100EB8101C1E9082300238B620123FD
:1028A0004B7501F8144F8379012B00D1CA618279ED
:1028B000006804F001F9002010BD00002DE9FC5F64
:1028C00005680446284604F0AFFA00287DD1206848
:1028D00004F0D6FA002878D0D5F80808C0F30D2007
:1028E000C4F8D404206804F0CBFA800704D520682B
:1028F000416901F002014161206804F0C1FAC1069A
:1029000004F29C40009034D52068816921F01001C8
:1029100081612F6A07F00F0000EBC00004EB800616
:10292000C7F3434006F51576022802D0062811D0D9
:102930001AE047F6F070074216D0C7F30A1217469E
:102940002846F16804F0A0FAF0683844F060706935
:10295000384408E008222846009904F095FA706986
:10296000C7F30A11084470612068816941F01001C1
:102970008161206804F084FA00034FF0080B4FF0E7
:10298000000A4FF001097CD50026206804F057FAB0
:10299000074674E0F80770D0F1B2206804F068FAD6
:1029A0008046C00707D005EB4611C1F8089B3146A9
:1029B000204601F0C1FE5FEA087024D505EB461100
:1029C000C1F808BB2068016C00E023E200EB461070
:1029D0000191D0F8082BFB4B994205D9110403D57E
:1029E0004FF40041C0F8081B204600F0F6FAF54904
:1029F0000198884207D9A079012804D120680121D3
:102A0000009A03F0D5FF5FEAC86004D505EB4611D4
:102A10001020C1F8080B5FEA88701DD568690006B0
:102A200005D5D5F8040840F48061C5F8041806EB14
:102A3000C60004EB800090F8571200F515700129CC
:102A400005D180F803A0F1B2204600F0E9F905EBCA
:102A500046110220C1F8080B5FEA886004D505EB37
:102A600046102021C0F8081B5FEA884005D505EB19
:102A700046104FF40051C0F8081B7F08761C002F49
:102A800088D1206804F0FCF940036ED5206804F07A
:102A9000CFF90746002666E0F80762D0F1B2206859
:102AA00004F0D4F98046C00723D006F00F01D5F812
:102AB000342809FA01F18A43C5F8342805EB461198
:102AC000C1F80899A07901280FD106EBC60004EBE4
:102AD0008000D0E907211144016236B9606A20B94B
:102AE00020680121009A03F063FFF1B22046FFF74E
:102AF000C4FD5FEA087003D505EB4611C1F808B9BB
:102B00005FEAC86004D505EB46111020C1F808093A
:102B10005FEA486004D505EB46104021C0F808196B
:102B20005FEA887016D53146284604F052F906EB64
:102B3000C60004EB8000C17D1430012905D180F866
:102B400003A0F1B2204600F067F905EB4611022020
:102B5000C1F808095FEA086003D53146204601F054
:102B600051FE7F08761C002F96D1206804F088F96A
:102B7000002811DAD5F8040820F00101C5F804187E
:102B800094F8CC0401282BD0204600F00BFA2068E2
:102B9000416901F000414161206804F071F90005CC
:102BA0000BD5D5F80808C00702D0204600F03EFA41
:102BB0002068416901F400614161206804F060F916
:102BC000C00467D5D5F8040820F00100C5F8040852
:102BD0001021206804F0FDF800214FF67F3220E03C
:102BE00084F8CCA400212046FFF71CFDCFE700BFEE
:102BF00005EB4110C0F80829D0F8003923F4001380
:102C0000C0F80039C0F8082BD0F8003B23F40013BB
:102C1000C0F8003BD0F8003B43F00063C0F8003B35
:102C2000491C20798842E3D8D5F81C0840F00111EE
:102C3000C5F81C18E07B002828460DD0D0F8840881
:102C400040F00B01C5F88418D5F8440840F00B019A
:102C50002846C5F844180DE0D0F8140842F22B01BC
:102C60000843C5F81408D5F8100840F00B012846B1
:102C7000C5F81018D0F8000820F4FE61C5F8001857
:102C8000A1792068009A03F093FE2068416901F45D
:102C900080514161206804F0F3F8800415D5206864
:102CA00003F0CEFC206804F0B2F8E07100F00EFBF7
:102CB0000146E279206804F045F9204600F05CF90D
:102CC0002068416901F400514161206804F0D8F89E
:102CD000000707D5204600F069F92068416901F036
:102CE00008014161206804F0CBF8000616D5A869F8
:102CF00020F08001A96101260DE000BF06EBC600AF
:102D000004EB800090F85702012803D1F1B220466D
:102D1000FFF7CAFC761C2079B042EFD8206804F097
:102D2000AFF8C0021FD501264F4614E005EB461050
:102D3000D0F8000906EBC60104EB81010A7E012AE6
:102D400008D1002806DACF75F0B240F080012046A5
:102D5000FFF7AAFC761C2079B042E7D820684169C9
:102D600001F480114161206804F08AF8800234D5B2
:102D700001204A4629E000BF05EB4011D1F8001BB5
:102D800000EBC00304EB830393F85862012E1BD1C0
:102D9000002919DA94F8D464C1F3004106F0010661
:102DA0008E4211D183F85722A96941F08003AB61AB
:102DB0006969090608D4D5F8040840F40070C5F81C
:102DC000040805E00A30544F401C21798142D3D8D1
:102DD0002068416901F400114161206804F050F855
:102DE000400007D52046FFF744FC2068416901F008
:102DF00080414161206804F043F840070AD520680B
:102E00004568680702D52046FFF74AFC20684168FC
:102E100029434160BDE8FC9FD0F8E00403F0C5B849
:102E2000D0F8E00403F0D5B8F8B5040005D094F864
:102E300095042668002510B106E00120F8BD84F84D
:102E40009454204600F056F8032084F89504B6F117
:102E5000A04F00D1A571206803F0A4FD207C8DF85F
:102E6000000094E80F0003F0F9FB0226B8BB002134
:102E7000206804F028F890BB002001270DE000BF77
:102E800000EBC00104EB81014F750875C8850D7614
:102E9000CD610D62401CC0B24D6221798142EFD8F4
:102EA000002011E000EBC00104EB810181F85552D4
:102EB00081F8540281F85852C1F85C52C1F860524E
:102EC000401CC0B2C1F8645221798142EAD8207C0A
:102ED0008DF8000094E80F0003F0A6FC10B184F810
:102EE0009564AAE7657484F89574206803F08EFCF5
:102EF0000020F8BD10B586B0044614216846FDF7E1
:102F000021FB2068B0F1A04F2FD1194800210268A1
:102F100042F001020260006800F0010005904FF4E9
:102F2000C05000900220CDE90101032003900A2047
:102F3000049069460F48FFF7D9F90D48001D016854
:102F400041F0800101600A481430016841F4804179
:102F500001600068002200F48040059005214320B4
:102F6000FFF72EFB4320FFF71DFB06B010BD00004E
:102F7000303802400000024070B50446C079012597
:102F800070B1022801D0FEF763FA2946D4F8E004B4
:102F900003F08EF8D4F8E004BDE8704003F042B8C6
:102FA0000025F2E7D0F8E00403F06BB8D0F8E004B5
:102FB00003F071B810B5044690F8940401280AD0C3
:102FC000012084F894046174206803F0AAFF0020B3
:102FD00084F8940410BD022010BDD0F8E02400F263
:102FE0009C41104603F070B810B50446006894F890
:102FF0009414012909D0012184F89414C168490668
:1030000009D5617B012902D005E0022010BD816B4A
:1030100041F480318163206803F0B9FE206803F039
:10302000E7FB002084F8940410BD000010B50446AE
:10303000D0F8E00403F08AF82068D0F8001E41F0D0
:103040000101C0F8001EE07A002804D0024801689F
:1030500041F00601016010BD10ED00E02DE9F843DC
:10306000054600684FF00109C1074FF0000601D185
:10307000400727D5DFF80C81C8F86860FFF72EFA03
:103080000746414C05E000BFFFF728FAC01B0228A5
:1030900057D820680001F7D468688101287A41EA8E
:1030A0000070394984310860C8F86890FFF716FA53
:1030B000074604E0FFF712FAC01B022841D8206837
:1030C0000001F7D52878800752D52F484030016895
:1030D00041F08051016000682C4C00F0805000905D
:1030E000206840F480702060FFF7F8F9074604E09C
:1030F000FFF7F4F9C01B022823D82068C005F7D5D4
:10310000214C7034206810F4407020D0A98901F45B
:10311000407181421BD020681D4920F44070C1F8E5
:1031200000900E6020602068C00710D0FFF7D6F92D
:10313000064641F2883707E0FFF7D0F9801BB84216
:1031400002D90320BDE8F88320688007F4D5E96838
:103150000D48C1F301220830032A0BD0016821F485
:10316000F81101602068A989C1F30B0108432060B0
:103170000020E7E70268074B22F4F81219400A43DF
:103180000260EFE700004742003802400070004054
:10319000400E4742FFFCFF0F2DE9F0470E460500A9
:1031A00065D0DFF81481D8F80000F7B200F007000E
:1031B000B04207D288F80070D8F8000000F007008D
:1031C000B04254D128683D4C810712D5400703D541
:1031D000206840F4E05020602878000703D520687C
:1031E00040F4604020602068A96820F0F0000843A7
:1031F00020602878C0072DD0304968680839012838
:1032000012D0022813D0032811D009688907002999
:103210002DDA216821F0030101432160FFF75EF9F7
:10322000814641F2883A0EE009688903EFE70968B0
:103230008901ECE7FFF752F9A0EB0901514502D9EA
:103240000320BDE8F0872068696800F00C00B0EB4F
:10325000810FEFD1D8F80010404601F00701B142CC
:1032600007D90770006800F00700B04201D00120C4
:10327000E7E72878400705D52068E96820F4E050A2
:10328000084320602878000706D52068296920F4C3
:10329000604040EAC100206000F03EF82168084A22
:1032A000C1F30311515CC840064908600648006834
:1032B000FFF73CF90020C4E7003C02400838024018
:1032C000488A0008B0000020A800002001480068DB
:1032D00070470000B00000200448054900680968F4
:1032E000044AC1F38221515CC8407047B0000020FD
:1032F00008380240588A00080448054900680968EF
:10330000044AC1F34231515CC8407047B00000200C
:1033100008380240588A0008154810B5006810F0B7
:103320000C02144813D01449042A0FD0082A0ED1D5
:103330000F4C241F2268236802F03F025B0207D56E
:103340002068C0F38810A0FB010106E0084610BD0C
:103350002168C1F38811A1FB00010023FDF704F8E7
:103360002168C1F30141491C4900B0FBF1F010BDD7
:10337000083802400024F400001BB7002DE9F84F84
:1033800004006ED02078DFF84C93C007A9F1040543
:103390004AD009F104000168C1F38101012908D074
:1033A0000068C0F3810002280AD1D9F80000400269
:1033B00006D52868800337D560680028E1D033E05F
:1033C0006068B0F5803F10D0B0F5A02F286810D00D
:1033D00020F480302860286820F48020286060680D
:1033E000A8B1FFF77BF806460DE0286840F480306E
:1033F000F4E740F480202860F7E700BFFFF76EF89D
:10340000801B642873D828688003F7D50CE0FFF789
:1034100065F8064605E000BFFFF760F8801B6428EA
:10342000F0D828688003F7D42078DFF8AC828007D2
:103430004FF0000A3ED5A748001D016811F00C0F9F
:1034400008D00068C0F3810002280BD1D9F8000031
:10345000400207D42868800716D5E068012800D10B
:1034600012E033E1E068B8B10120C8F80000FFF7CE
:1034700035F8064605E000BFFFF730F8801B02284C
:10348000C0D828688007F7D52868216920F0F8009F
:1034900040EAC10028600DE0C8F800A0FFF71EF860
:1034A000064604E0FFF71AF8801B02281FD8286898
:1034B0008007F7D42078000722D5864F87486169B6
:1034C000703771B101210160FFF708F8064604E08A
:1034D000FFF704F8801B022809D838688007F7D561
:1034E0000EE0C0F800A0FEF7F9FF064605E082E016
:1034F000FEF7F4FF801B02287DD838688007F7D4D8
:103500002078400768D5DFF8CCB100270BF13C0BE1
:10351000DBF80000C0000BD4DBF8001041F0805154
:10352000CBF80010DBF80000012700F0805000907D
:103530006B4E3068C00510D4306840F48070306045
:10354000FEF7CCFF009005E0FEF7C8FF0099401A97
:10355000022850D83068C005F6D55E4EA0686C369B
:1035600001280FD00528306810D020F0010030600D
:10357000306820F004003060A068B8B1FEF7AEFFFC
:1035800000900FE0306840F00100F4E740F00400E4
:103590003060F7E7FEF7A2FF0099411A41F2883048
:1035A000814266D830688007F4D50EE0FEF796FFBA
:1035B000009007E0FEF792FF0099411A41F288302F
:1035C000814256D830688007F4D42FB1DBF8001060
:1035D00021F08051CBF80010A069C8B33D49091D06
:1035E0000968C1F3810102294AD00228504607D058
:1035F000C8F8600000E03CE0FEF770FF04463BE0E6
:103600004746C8F86000FEF769FF064605E000BFC0
:10361000FEF764FF801B02282BD828688001F7D4AE
:10362000D4E907010843A16A2E4A490802EB014187
:10363000626A41EA8211084394F82C1040EA016161
:10364000C9F8001001203866FEF748FF044606E07E
:103650003EE000BFFEF742FF001B022809D82868A1
:103660008001F7D534E000BFFEF738FF001B0228C9
:1036700002D90320BDE8F88F28688001F4D427E040
:103680000128F7D0D9F80000E26900F480019142E6
:103690001CD1226A00F03F01914217D147F6C07158
:1036A000626A0140B1EB821F10D1A26A4FF0FF3372
:1036B00000F4403103EB5202B1EB024F06D194F813
:1036C0002C1000F07060B0EB016F01D00120D1E749
:1036D0000020CFE70438024000004742800E4742F6
:1036E000007000400000FFFF10B5040002D0607FB2
:1036F00010B106E0012010BD00202077204600F028
:1037000041F8022060772068C168C943C90632D5F4
:10371000CA214162216853204862204601F0FAF92B
:1037200020BB20688168164A114081602168886842
:1037300062681043D4E904231A4310438860216867
:10374000E068086120680169228941EA024101615B
:10375000204601F003FA48B921680A6C22F480225D
:103760000A6421680A6CA3691A430A642268FF216B
:10377000516208B110BD00200121617710BD000029
:10378000BFFF8FFF1FB500210091019102910391AE
:103790000068084988420CD1022000900002039082
:1037A0006846FFF75BFC08B1FDF752FE02490120B5
:1037B00008601FBD002800403C0E474270B504461B
:1037C000007F0B46012819D001262677022060775A
:1037D000B2B19878D97840EA014558781978000252
:1037E00040EA413005432168CA20486221685320DD
:1037F0004862204601F08EF9D0B122E0022070BD6F
:103800005878C10603D500F0EF000A305870D87818
:1038100001F075F90204587801F071F942EA0022CA
:10382000987801F06CF90243187842EA4035DAE7FB
:103830000748054020684560204601F08FF900B92F
:1038400066772268FF2151620021217770BD000058
:103850003FFFFF002DE9F0410446007F0D4601289F
:1038600023D04FF0010884F81C8002206077206884
:10387000002780684FEA4060D2B1002800DBEF707B
:10388000A878297840EA01466878E978000240EA99
:10389000815006432168CA2048622168532048624B
:1038A000204601F037F9B8B12CE00220BDE8F081E4
:1038B000002800DBEF70287801F021F90204687815
:1038C00001F01DF942EA0022A87801F018F902433C
:1038D000E87842EA8056DDE70D4806402068066039
:1038E0002068816821F480218160D5E903010843C3
:1038F00021688A6810438860204601F02FF908B9D2
:1039000084F81D802268FF2151622777CEE70000EE
:103910007F7F7F0070B504460B482168C860FEF7C2
:10392000DDFD05464FF47A7607E000BFFEF7D6FDD1
:10393000401BB04201D9032070BD2068C0688006DA
:10394000F4D5002070BD00005F7F010010B5401E5F
:10395000B0F1807F01D3012010BD4FF0E024606101
:103960000F21601703F02DFC0020A06107202061CB
:10397000002010BD38B5044690F84200202801D040
:10398000022038BD51B14AB101202063002060639C
:10399000204601F057FD216B012901D0012038BDDF
:1039A00021680A684968009121680C3151E8002FAC
:1039B00042F0100241E80023002BF5D138BD000091
:1039C00000680349884202D102490120087070470B
:1039D000004800404C010020704770B5040004D03E
:1039E00094F84100002510B106E0012070BD84F874
:1039F0004050204600F024F8242084F8410020683C
:103A0000C16821F40051C160204601F095FC206896
:103A1000016921F4904101612068416921F02A0186
:103A200041612068C16841F40051C1606564202093
:103A300084F8410084F842006563002070BD0000F6
:103A40002DE9F04F87B0054614216846FCF77AFD52
:103A5000534B2968534802260327072200244FF0BE
:103A600000694FF4806A4FF4807B99425FD14D49E1
:103A700014310B6843F010030B60096801F010016A
:103A80000591016841F002010160016801F0020145
:103A90000591016841F001010160006802AB00F08E
:103AA000010005908020CDE90006904683E8900152
:103AB00069463D48FEF71AFC3002CDE9000602AB2C
:103AC000694683E890013948FEF710FC394F3848C1
:103AD000D0463860C7E90194C7E9034A7C61C7E969
:103AE000064B3C625E4638467C62FEF74BFB08B1F3
:103AF000FDF7AEFCEF63BD632E4F2D486037783085
:103B0000E7E802094020A7E811012A4847F81449CC
:103B10006030C7E906463C627C62FEF733FB08B1C1
:103B2000FDF796FCAF63BD6307B0BDE8F08F224B95
:103B30009942F9D11B4910310B6843F480230B6083
:103B4000096801F480210591016841F004010160D8
:103B50000068029400F0040005904FF44060CDE945
:103B60000006CDE9037269461448FEF7BFFB114E0B
:103B70001348C0363060C6E90194C6E9034A74614F
:103B8000C6E9064B4FF44030C6E908043046FEF75C
:103B9000F9FA08B1FDF75CFCEE63B563C4E7000019
:103BA0000010014030380240000402400000024092
:103BB00040640240340600200048004000080240F3
:103BC0002860024070477047FEE7000000F12003C4
:103BD00083EC030AC0E911129FED0A0A80ED0C0A7A
:103BE00080ED0E0A80ED0D0A80ED020A80ED030AD9
:103BF00080ED040A80ED100A80ED010A80ED000AD4
:103C00007047000000000000F0B500230A243025B2
:103C100037261F4611E000BFB4EB107F02D905EB39
:103C2000107C01E006EB107C01F813C001EB430CA3
:103C300000015B1C8CF80170DBB29342ECD3F0BD49
:103C400008B504F0C5FB0A4E0A4C0B4DCDF8000038
:103C5000B4F844002988884201D170688047B4F8DC
:103C6000440028800121684603F042FFF0E700008D
:103C7000A0010020E86400205002002010B58AB0A6
:103C800001200290002008210490CDE905018DF863
:103C90001C00FF208DF820008DF821008DF82400F5
:103CA0008DF822008DF825008DF823008DF8260070
:103CB000FC208DF8270008A8009005480123002269
:103CC0004468054803490068A0470AB010BD0000D9
:103CD000300100205C0500200800002090ED010A62
:103CE000FCEEC00A10EE901A018480ED0F0A00214C
:103CF0000187704710B58AB001200290002008218A
:103D00000490CDE905018DF81C00FF208DF82000FE
:103D10008DF821008DF824008DF822008DF8250003
:103D20008DF823008DF82600FE208DF8270008A8C6
:103D300000900548012300224468054803490068B3
:103D4000A0470AB010BD0000300100205C05002033
:103D5000080000200FB4F2EE090A70B52DED028BB9
:103D60009DF83400DFED668A069D664C6D1E0009E5
:103D700054F82510B1EE0C8A91ED010ABCEEC00A90
:103D800010EE102A0A8454F825100880BDF835007A
:103D900040BA00EE100A54F82500B8EE400A80ED53
:103DA000060A9DF837009DF83810000140EA11100E
:103DB00000EE100A54F825001021B8EE400A80EDFC
:103DC000070A9DF8390000EE100A54F82500B8EEF5
:103DD000400A80ED040A54F8250090ED060ABDEE75
:103DE000C00A10EE100ABAEE090A03F055FD54F8A5
:103DF0002500F6EE000A80ED010A20EE200A54F8B4
:103E00002500DFED410A0C2120EE200ADFED3F0AFC
:103E100020EE200AF0EE680A80ED010A54F8250031
:103E200090ED070ABDEEC00A10EE100A9FED380AA9
:103E300003F032FD54F825000C21F0EE480A80ED25
:103E4000020A54F8250090ED040ABDEEC00A10EEF7
:103E5000100AB9EE0C0A03F01FFD54F8250080ED9E
:103E6000050A54F825109DF83A00087354F82510F7
:103E70009DF83B00487354F82500018CD0ED010AF1
:103E800000EE101A2349B8EE400A30EEC00A10EED8
:103E9000102A8A4202D9028F521C028754F8250048
:103EA000028CD0ED010A00EE102AB8EE400A30EE86
:103EB000600A10EE102A8A4202D9018F491E01873A
:103EC00054F82500B0F93810D0ED010A490300EE8E
:103ED000101AB8EEC00A30EE800A80ED0F0A54F8CE
:103EE000250030F8441F491C018054F8251001209A
:103EF00081F84200BDEC028B70BC5DF814FB000041
:103F0000000048439C010020DB0F494000001042A4
:103F1000000048C30020CBC52DE9F04104462DED3B
:103F2000068BF0EE60AAF0EE419AB0EE42AADFED09
:103F30002C0AB0EE619A9FED2C1A20EE200AF0EECA
:103F4000000ADFED2A8AB1EE0C8A20EE200ADFEDAE
:103F5000250A102020EE200ADFED250A03F056F98D
:103F600007460C20B0EE681ADFED220AB0EE6A0AAE
:103F700003F04CF906460C20B0EE481AF9EE0C0A94
:103F8000B0EE4A0A03F042F99FED1C8A80460C20ED
:103F90009FED191AF0EE480AB0EE690A03F036F9FF
:103FA00005460C20B1EE041AF0EE480AB0EE490ABC
:103FB00003F02CF9390A217067703109A1703101C1
:103FC00041EA1521E170257101096171010141EAA0
:103FD0001820A07184F80780BDEC068BBDE8F08145
:103FE00000000039DB0F4940DC0F49400000484326
:103FF000DC0F49C0000048C30000FA430000000085
:10400000816270472DE9F04115460E468046002436
:10401000114F12E008EB840090ED000A0E4803F007
:1040200009F90020395C696029684906FCD5401C03
:10403000C0B20428F6D3641CA4B2B442EAD3074940
:1040400000200A5C6A602A685206FCD5401CC0B297
:104050000428F6D3BDE8F08198010020AC8F000859
:1040600070B51B480125017C427C090441EA4244A9
:10407000408A174904430020B1F1880101EB000395
:1040800005FA00F21E7D22420ED0761CF6B21E7595
:10409000032E02D98E6816438E601B7D3C2B13D9EC
:1040A0000B6913430B610FE0361F382ECE6801D227
:1040B000164300E09643CE608E6896438E600E698C
:1040C000964300220E611A75401C1228D6DB70BD83
:1040D000C064002030EE601AD0ED030AD0ED041A5F
:1040E0001B4A30EEE12AF0EE081AF0EE000A20EE4C
:1040F000210A21EE211A20EE200AC0EE020AC1EDAB
:10410000000A90ED030A90ED042A10EE900A30EEBA
:10411000422A904281EE020AB1EE041A81ED010AB0
:1041200001DB81ED001A0B480B68F9EE040A8342AB
:1041300001D3C1ED000A10EE103A934201DB81ED8C
:10414000011A4A68824201D3C1ED010A704700009A
:104150000000A0400000A0C010B5A0F20120DDE9E1
:10416000052193B25CBA144B120C03EB401052BA07
:10417000048042808AB252BA8280090C817182899D
:10418000A1B20E4B8C1A9C4202DA818A491C04E0CF
:10419000511A994202DA818A491E81820188B0F956
:1041A000142001EB4231016101888181418B491C5E
:1041B00041830121017610BD5863002090E8FFFF84
:1041C00030B5050A039C25706070080AA070E17084
:1041D000100A20716271180AA071E37130BD0000ED
:1041E000104810B50E4901600321416000214FF4D1
:1041F00010228160C0E903124FF40012426101767F
:1042000041768176C176017701214177FDF739FD4D
:10421000002803D0BDE81040FDF71AB910BD00001A
:104220000064004034050020104810B50E490160BC
:104230000321416000214FF410228160C0E9031284
:104240004FF400124261017641768176C1760177A2
:1042500001214177FDF715FD002803D0BDE810408E
:10426000FDF7F6B810BD0000006800405C050020B6
:10427000154808B5016841F400110160016801F4B6
:1042800000110091016841F4800101600068002282
:1042900000F48000009005210C20FEF791F90C201D
:1042A000FEF780F9002205213A20FEF789F93A202D
:1042B000FEF778F9002205214620FEF781F9BDE8D6
:1042C00008404620FEF76EB93038024010B5CEB037
:1042D00000222421102003F0C9FD464C0022242195
:1042E0002060102003F0C2FD606000222421102015
:1042F00003F0BCFDA06000221921102003F0B6FDE0
:10430000E0601C223C496846FCF7EAF80021684658
:1043100002F0D3FF384960631C221C3107A8FCF768
:10432000DFF8002107A802F0C8FF3349A0631C2270
:1043300038310EA8FCF7D4F800210EA802F0BDFF1A
:104340002D4920611C22543115A8FCF7C9F8002121
:1043500015A802F0B2FF284960611C2270311CA828
:10436000FCF7BEF800211CA802F0A7FF2249A061BB
:104370001C228C3123A8FCF7B3F8002123A802F0FB
:104380009CFF1D49E0611C22A8312AA8FCF7A8F86F
:1043900000212AA802F091FF174960621C22C43153
:1043A00031A8FCF79DF8002131A802F086FF1249E0
:1043B00020621C22E03138A8FCF792F8002138A8CE
:1043C00002F07BFF0C49A0621C22FC313FA8FCF7E5
:1043D00087F800213FA802F070FFE0621C22074925
:1043E00046A8FCF77DF8002146A802F066FF20638E
:1043F0004EB010BD000000200C890008248A00087F
:10440000154808B5016841F002010160016801F03A
:1044100002010091016841F001010160016801F0B1
:1044200001010091016841F008010160016801F09B
:1044300008010091016841F004010160016801F088
:1044400004010091016841F080010160006800F002
:104450008000009008BD00003038024010B586B0E2
:1044600014216846FCF76EF81B480024194905948E
:10447000C0E900147F218160FF21C0E90314446179
:104480008461FFF731F908B1FCF7E2FF8DF80040D5
:104490008DF801408DF802400394012269460E48D0
:1044A0000494FFF7D7F908B1FCF7D2FF01208DF88B
:1044B00014008DF815008DF8160002468DF817408F
:1044C00005A90548FFF77AF9002801D0FCF7C0FFDD
:1044D00006B010BD00280040840500200C4810B52F
:1044E0000A4901604FF4E1314160002181600C22F2
:1044F000C160C0E904128161C161FFF76EFA002852
:1045000003D0BDE81040FCF7A3BF10BD0010014070
:10451000A40500200C4810B50A4901600B49416010
:10452000002181600C22C160C0E904128161C16177
:10453000FFF753FA002803D0BDE81040FCF788BF0E
:1045400010BD000000480040EC050020A0860100DE
:1045500010B500220F49104801F008FC08B1FCF723
:1045600077FF0E490C4801F01DFE08B1FCF770FF03
:104570000B49094801F09AF908B1FCF769FF0648B0
:1045800001F094FE002803D0BDE81040FCF760BFA6
:1045900010BD00004000002054070020A8020020A9
:1045A00090000020FEE7000070B510EE102A6FF0BA
:1045B00040434FF4800513440122B0EE082AAB4279
:1045C0000BD2F8EE000A002370EEC00A0B704A709E
:1045D000C0ED000A30EE020A16E010EE103A2E4C42
:1045E0004FF400061C440223B1EE401AF7EE000A15
:1045F000F0EE001AB4420AD271EE600A0A7030EE90
:10460000210A4B70C0ED000A80ED010A70BD10EE6A
:10461000104A032214F1814F0BD8B5EEC00AF1EE17
:1046200010FA06D20B704A7080ED001A30EE200AA4
:10463000EAE7B5EEC00A0423F1EE10FA0BDB10EE48
:10464000104AB4F17E5F06DA70EEC00A0A704B7051
:10465000C0ED000AD8E710EE102A0524A2F17E5220
:10466000B24208D231EEC01A0B704C7080ED001AC5
:1046700030EE600AC8E710EE102AA2F18042AA428A
:10468000C4D872EE400A0C7006224A70C0ED000ACF
:1046900030EE610AB8E70000FFFF7F40FEE7000050
:1046A0000148FEF70BB90000501E00209FED0A1ACA
:1046B000F7EE001A80ED001AC0ED031A80ED090A2A
:1046C000C0ED0A0AC0ED071A80ED081AC0ED0B1AFA
:1046D00080ED011A7047000000000000D0ED071ABD
:1046E000D0ED000A21EEA01A80ED011AD0ED090AE2
:1046F00090ED032A41EE820AC0ED040AD0ED0A1AB9
:1047000030EEA12AC0EE821A30EE412AB0EE410A04
:10471000B7EE001AC0ED061A31EE611A01EE820AF8
:1047200061EE200A80ED020AC0ED050AC0ED030A21
:1047300080ED000A704700002DE9F04103680D4646
:1047400004461E6C03EB4511D1F8080B94F806E003
:104750004FF400474FF0200C04F29C42BEF1010FD1
:1047600009D0DFF898E0764539D1020432D500BF90
:10477000C1F8087B3FE0224B5FEA007E04D59E42F1
:1047800039D90004F4D436E05FEA806E02D5C1F86E
:1047900008CB30E010F0280F2DD19E4201D9000443
:1047A000E6D405EBC50004EB8000D1F8101BD0F86F
:1047B0007432C1F31201591AC0F8681200F515706D
:1047C000ADB903691BB1C2681144C1600FE001219A
:1047D00020680AE080060AD5C1F808CB07E035B9A1
:1047E000D4F8640218B90021184602F0E1F8E9B2E1
:1047F0002046FDF74BFF0020BDE8F0810A31544F01
:104800000A30544F2DE9F84F0E4601EBC60100EB7C
:10481000810481460568D4E909101434884202D91C
:104820000120BDE8F88F081AA168814200D208462D
:10483000C01C870805EB46181BE000BFA0EB010A6F
:10484000A068504500D282460AF10300870899F813
:10485000060000901FFA8AF3F2B22846E16802F0DF
:10486000E5FBE16801EB0A00E060616901EB0A0029
:104870006061D8F8180980B2B84205D3D4E90401C0
:10488000814201D20028D9D1D4E90401884208D854
:1048900006F00F0101208840D5F834188143C5F88F
:1048A00034180020BDE7000010B59FED103ADFED91
:1048B000102A9FED102AF6EE001A9FED0F1ADFED79
:1048C0000F0A9FED0F0A0F4800F0F4F8BDE8104002
:1048D0004FF47A7242F210719FED0B1AF6EE000A55
:1048E000B2EE090A0948FFF771B9000000002F4431
:1048F0000000FA4500409C46CDCCCC3E6F12833A76
:104900009A99993E8467002000000000D867002033
:104910007047704770B530EE601A2DED048B044679
:104920000D4680EC020A80ED021AD0ED050A30EE49
:10493000600A80ED060A90ED070AD0ED030A30EE1A
:10494000010A80ED070AB0EE410A0846FCF758FE5E
:1049500094ED080AD5ED000A95ED051AD4ED098A03
:1049600094ED0A8A00EE810AD5ED010A95ED061A4A
:1049700094ED0B9A04F11C0040EE818AD5ED020AF9
:1049800095ED071A00EE818AD4ED020A20EE800A26
:1049900084ED0C0A94ED120AB8EE400A02F021FCF4
:1049A00094ED070A04F1400020EE280A84ED0D0A78
:1049B000D4ED020A94ED031A70EEC10A60EE880A83
:1049C000C4ED0E0A94ED061A21EE091A84ED0F1AB1
:1049D000D4ED0C1A31EE800A30EE200A30EE010AD6
:1049E00084ED100A94ED110AB8EE400A02F0F9FBCA
:1049F00094ED020A84ED030A94ED000A84ED050AA1
:104A000094ED100ABDEC048B70BD10B5044680EC2B
:104A1000020A70EE600AC0ED020A90ED031A30EE51
:104A2000C11A80ED041AD0ED051A30EE610A80ED4E
:104A3000060AD0ED081A61EEA01AC0ED0C1AD0EDEE
:104A40000D1A90ED092A04F1340042EE201AC4ED4B
:104A50000D1AD4ED0A0A61EE200AC4ED0E0AD4ED57
:104A60000B0A20EE800A84ED0F0A94ED130A02F07F
:104A7000B8FB94ED0C0AD4ED0D0A04F1400030EEC1
:104A8000200AD4ED0E0A30EE200AD4ED0F0A30EEE3
:104A9000200A84ED100A94ED110A02F0A2FB94EDB5
:104AA000020A84ED030A94ED000A84ED050A94EDF0
:104AB000100A10BD00F1200181EC040A9FED0B0AE1
:104AC00080ED0C0A80ED0E0A80ED0D0A80ED020AE1
:104AD00080ED030A80ED040A80ED100A80ED010AE2
:104AE00080ED000A443080EC032A7047000000008B
:104AF000008800B200EE100AB8EEC00A704700212C
:104B000002E00A38C0B2491C0A28FAD2090740EA72
:104B1000116070472DE9F041044600680025C16826
:104B2000490618D4C16841F08001C160FDF7D6FC88
:104B300006464FF47A78042707E000BFFDF7CEFC65
:104B4000801B404501D9677701252068C068400671
:104B500001D4002DF2D02846BDE8F08170B504469E
:104B600000680025C16821F08001C160206880686C
:104B7000800606D42046FEF7CDFE10B104206077F3
:104B80000125284670BD00002DE9F05FCA4DCB4CD1
:104B900000262DED028B688C012801D040B112E077
:104BA00001210820FCF7D0FD38B9288C28B10AE093
:104BB00001210820FCF7C8FD28B1AE802662E6611D
:104BC0002661E6602E7601210020FCF7BDFD9FEDF9
:104BD000BC8ABA4F283710B194ED010A08E00121D0
:104BE0000846FCF7B1FD40B16068404200EE100A93
:104BF000B8EEC00A87ED010A05E0B0482830FCF79E
:104C0000B3F887ED018AAD48283000F04DFA4042F4
:104C1000288001210220FCF797FDDFF8A08208F12F
:104C2000340820B1A068404200EE100A06E00121DD
:104C30000320FCF789FD30B194ED020AB8EEC00AFA
:104C400088ED010A05E09D483430FCF78DF888EDC9
:104C5000018A9A48343000F027FA404268800121E6
:104C60000620FCF771FD012308B1E06828B101219D
:104C70000620FCF769FD10B109E0E36007E0E06899
:104C8000012804D1E069282801DBE661E660DFF84D
:104C90002C92B5F9041009F14009B9F90A008142D2
:104CA00009DAE068012806D1E069282803DA0A3128
:104CB000A980401CE06101210720FCF745FD08B1F7
:104CC000206928B101210720FCF73EFD10B109E061
:104CD000236107E02069012804D1206A282801DB2C
:104CE00026622661B5F90400B9F90810884209DD89
:104CF0002169012906D1216A282903DA0A38A88006
:104D0000491C216200211120FCF71EFD00286D497D
:104D10006D4ADFF8B8C1287B12D010B101280DD040
:104D20001BE02B7391ED000ABDEEC00A10EE100AD5
:104D3000688192ED000A8CED040A03E02E730CE00A
:104D400001280AD191ED000ABDEEC00A10EE100A4A
:104D5000688192ED000A8CED040A01211020FCF715
:104D6000F3FC20B902211020FCF7EEFC10B1687EA4
:104D7000012876D00320687301210D20FCF7E4FCA4
:104D800080B14FF416727A8150423881A8F80A2017
:104D9000A8F808004FF44871A9F80A104FF6E0414E
:104DA000A9F8081001210E20FCF7CEFC4FF4966AFA
:104DB000CAF1000B60B14FF461727A8151423981BE
:104DC000A8F80A20A8F80810A9F80AA0A9F808B0BD
:104DD00001210F20FCF7B8FC78B1A7F80AA0A7F8CA
:104DE00008B0A8F80AA0A8F808B04FF4C861A9F85C
:104DF0000A104FF6C011A9F8081000210B20FCF78B
:104E0000A3FC334F58B1B7F90A0040F22621C8423B
:104E100005DA00F507707881E87D801EE8750021CD
:104E20000C20FCF791FC58B1B7F90A0040F6B831F4
:104E3000C84205DDA0F507707881E87D801CE87523
:104E40002448418901EB8101298180890121C00029
:104E5000E8800520FCF778FC78B1A06918B10DE076
:104E6000FFE76B7388E7287E10B1012802D002E0CB
:104E70002B7600E02E76A36100E0A66101210920D7
:104E8000FCF762FC58B1606950B9687E10B1012826
:104E900002D002E06B7600E06E76636100E066614E
:104EA00001210A20FCF750FC20B1EB76BDEC028B0F
:104EB000BDE8F09FEE76F9E7346300204C01002056
:104EC00000000000200100202401002030650020A7
:104ED00004020020C064002030B5124B12481A466C
:104EE0001D7E0024B2F90420016A012D03D0511A5D
:104EF0009980046230BDC56955B1012DFAD1C91E32
:104F0000D21E01629A8011F5967FF3DCC46130BD38
:104F1000C91CD21C01629A80B1F5967FF7DB012192
:104F2000C16130BD34630020BC01002088B003F0B3
:104F30004FFADFF8C890324EDFF8C880DFF8C8A01B
:104F40000DF1100B06AF0390304CE06880476068AD
:104F500080472F4800688047CDF800B0D6F804C0DD
:104F60005D464C46B9F97630B9F95620B9F9361094
:104F7000B9F91600E0470097B4F9D620B4F9B61095
:104F8000B4F9960074680023A04798F941102148AD
:104F900000EE101A98F9401098ED0D2AF8EEC01A9C
:104FA00000EE101A0168D8ED0C0AB8EEC01A98EDA0
:104FB0000B0A01A88847184C00954FF40073D4F8E9
:104FC00004C0002215495546DAF80000E047009772
:104FD000D4F804C040F2FF13002210492868E047CB
:104FE00001A800906468012300220D492868A047A9
:104FF000022103A802F07CFDA6E700005863002010
:1050000044010020E864002008000020E0010020A6
:105010003C020020A00100203001002034050020C7
:105020005C0500200178407841EA002070470000CC
:10503000054810B50068804700F00AF8034840684A
:10504000BDE81040004700002402002014020020A8
:105050001148124A017B012903D1B2F87010A2F85D
:105060006A100F4900238988012905D011B102294E
:1050700002D002E0437300E041730A48417B0329F8
:1050800004D1C07E012802D0A2F8683070474FF4E6
:10509000FA60A2F8680070470402002058630020FC
:1050A000400200203463002090EC020A30EE200A17
:1050B00080ED000AB0F9081000EE901AF8EEE00A50
:1050C000B4EEE00AF1EE10FA05D200EE101AB8EED6
:1050D000C00A80ED000AB0F90A10F0EE400A00EEB6
:1050E000101AB8EEC00AF4EEC00AF1EE10FA02DCB3
:1050F000B0EE600A05E000EE101AB8EEC00A80EDCE
:10510000000ABDEEC00A10EE100A00B27047FFF7A9
:105110001FFA012002F0C5F8FBE710B5FDF7E4F92E
:1051200003F048F9012803D0BDE8104002F088BE22
:1051300010BD000030B593B030216846FBF702FA8D
:1051400014210CA8FBF7FEF91F480025016841F067
:1051500080510160006800F0805011901B48016888
:1051600041F4804101600068022400F48040119005
:10517000092000904FF4803001900120CDE9050412
:105180008005079006200890A820CDE90904072093
:105190000B906846FEF7F2F808B172B6FEE70CA96C
:1051A0000F2081E831004FF4A0500F904FF4805051
:1051B000109005210CA8FDF7EFFF002801D072B672
:1051C000FEE713B030BD00004038024000700040E0
:1051D0000248016841F470010160704788ED00E009
:1051E00070B5846B2068406994F84110C0F3C0101A
:1051F0000025212904D118B1E584204600F08EF85D
:105200002068406994F84210C0F38010222904D12C
:1052100018B1E585204600F05AF8606C40F01000A7
:1052200060642046FEF7D8FB70BD10B50146806B68
:10523000096809684FF00002C9052ED4C2850168CB
:105240000C3151E8003F23F4807341E80034002C16
:10525000F5D10168143151E8003F23F0010341E822
:105260000034002CF5D10168143151E8003F23F0DF
:10527000400341E80034002CF5D1202180F8421091
:10528000016B012909D101680C3151E8003F23F07D
:10529000100341E80034002CF5D14263016B012971
:1052A00002D0FEF78FFC10BD818DFEF789FB10BD8B
:1052B00010B5806B01214163016B012902D0FEF71B
:1052C00082FC10BD818D4908FEF77AFB10BD016894
:1052D0000C3151E8002F22F4907241E80023002B9A
:1052E000F5D10168143151E8002F22F0010241E8A4
:1052F0000023002BF5D1016B012909D101680C3184
:1053000051E8002F22F0100241E80023002BF5D1D4
:10531000202180F8421000210163704701680C31A0
:1053200051E8002F22F0C00241E80023002BF5D104
:10533000202180F84110704770B50446006801696B
:10534000E26821F44051114301612169A068E269DA
:1053500008436169114308432168CA6849F20C6334
:105360009A430243CA6020684169A26921F44071EE
:105370001143416131492068884202D03049884256
:1053800002D1FDF7B9FF01E0FDF7A6FFE2690023B6
:10539000192164253226B2F5004F626828D0A0FB9F
:1053A0000101930F9200FAF7DFFF0146B0FBF5F021
:1053B0006FF01802504301EB800006EB0010B0FBC9
:1053C000F5F000F0F002B1FBF5F002EB0012B1FBDA
:1053D000F5F06FF01803584301EB800006EB001066
:1053E000B0FBF5F000F00F0021681044886070BD3C
:1053F000A0FB010192185B41FAF7B6FF0146B0FB32
:10540000F5F00201B1FBF5F06FF01803584301EB22
:10541000800006EBC000B0FBF5F000F0F80002EBF6
:105420004002B1FBF5F0584301EB800006EBC000F1
:10543000B0FBF5F000F00700D6E7000000100140D7
:105440000014014038B5816204468285002013466D
:105450006064222284F84220E56B1F4AEA63E56B10
:105460001E4A2A64E56B1E4AEA64E26B10650A462E
:105470002168E06B091DFCF7EFFE30B1102060647D
:10548000202084F84200012038BD2068016840686F
:105490000090206948B120680C3050E8001F41F4AA
:1054A000807140E80012002AF5D12068143050E8DD
:1054B000001F41F0010140E80012002AF5D12068E8
:1054C000143050E8001F41F0400140E80012002A6B
:1054D000F5D1002038BD00002B520008B152000861
:1054E000E1510008064D88B04FF0FF34224669466E
:1054F000286802F031FE684601F0ACFDF6E70000D6
:105500000C000020CD2001F0E5FD022002F0CAFAD7
:10551000F8E72DE9F0410C46D0F8D412D0F8C822B3
:1055200000EB8101D1F8C01229B304F00F0606EB9D
:10553000860300EB830500276B694BB106EBC606BB
:1055400002EB8602D269B3FBF2F602FB1632A2B17D
:10555000C1F81472D0F8D42200EB8200D0F8C40253
:1055600003692BB1D1F80802224601F5047198476E
:105570000020BDE8F0810320FBE700231A46214606
:105580006F6100F0F0FDF3E770B50546D0F8D40286
:1055900005EB8000D0F8C04294B1284600F0C2FC70
:1055A000C4F80C02D5F8D412D4F8040205EB81013A
:1055B000D1F8C412CA6804F503719047002070BD89
:1055C000032070BD70B5234D0446297800F0EAFB36
:1055D0002878002600F00F0000EB800004EB80002C
:1055E00080F823606978204600F0DCFB687800F0E2
:1055F0000F0000EB800004EB800080F86361A97865
:10560000204600F0CFFBA87800F00F0000EB8000F0
:1056100004EB800080F82360C661D4F8D40204EB68
:105620008000D0F8C01299B1D0F8C4024068804719
:10563000D4F8D40204EB8000D0F8C00200F0BAFF26
:10564000D4F8D40204EB8000C0F8C062C4F8BC6295
:10565000002070BD5402002010B5D0F8D41200EB29
:105660008100D0F8C04284B1D0F8C41259B194F886
:105670000002FF2807D08B6894F801222146984742
:10568000FF2084F80002002010BD032010BD0000A0
:105690000A210180004870475802002070B5064674
:1056A00082210C4800F001FB05460121094800F069
:1056B000FCFA04468121074800F0F7FA0DB11021E9
:1056C000A971402104B1A18000B1818043203080C4
:1056D000004870BD6402002070B5064682210D4866
:1056E00000F0E3FA054601210A4800F0DEFA04461C
:1056F0008121084800F0D9FA0DB11021A9714FF4A9
:10570000007104B1A18000B1818043203080014844
:1057100070BD00006402002070B5064682210C486E
:1057200000F0C3FA05460121094800F0BEFA04461C
:105730008121074800F0B9FA0DB11021A97140216B
:1057400004B1A18000B1818043203080004870BD49
:10575000640200202DE9F04704464FF407752846FF
:1057600000F02AFF06004FF0000865D02946FAF73E
:10577000E9FED4F8D4023E4D04EB80004FF010094E
:10578000C0F8C062C4F8BC62207C4FF4007A0127E4
:10579000E8B3402302222978204600F02EFC287826
:1057A000402300F00F0000EB800004EB800080F845
:1057B000237002226978204600F01FFC68780823D5
:1057C00000F00F0000EB800004EB8000032280F863
:1057D0006371A978204601F00F0101EB810104EB10
:1057E0008101C1F81C90A97800F007FCA87800F0AE
:1057F0000F0000EB800004EB800080F82370C6F8F7
:105800000482D4F8D402474604EB800000E01BE099
:10581000D0F8C40206F501760068804737617761E9
:1058200032687AB1207C00B340236978204600F0CA
:10583000F0FB0020BDE8F087D4F8D41204EB81011E
:10584000C1F8C0820220F5E753460222297820469B
:1058500000F0D3FB2878534600F00F0000EB8000E7
:1058600004EB800080F82370A3E75346DDE70000D7
:105870005402002010B5D0F8D41200EB8101D1F809
:10588000C01259B1027C084C002AD1F8042207D07A
:105890004023617800F0BDFB002010BD032010BD47
:1058A0004FF40073F5E700005402002039B1D0F83E
:1058B000D42200EB8200C0F8C412002070470320FD
:1058C0007047D0F8D42200EB8200D0F8C00218B1A3
:1058D000C0F804120020704703207047D0F8D4327B
:1058E00000EB8300D0F8C00228B1C0F81022C0F845
:1058F000081200207047032070472DE9FC4106463E
:10590000D0F8D4020C4606EB80000021D0F8C0721B
:105910008DF80010ADF804100D4637B1217811F064
:1059200060022FD0202A4BD102E00320BDE8FC8189
:10593000E288F2B109060DD5D0F8C4026378394681
:10594000D0F808C01846E047E288072A00D90722A5
:1059500039462DE0607887F80002E088402800D3BF
:105960004020C2B287F801223946304600F081F863
:105970002BE0D0F8C40263780022866821461846DE
:10598000B04722E0607830B101281ED00A2809D043
:105990000B2815D110E096F89C02032810D10222A2
:1059A00001A905E096F89C02032809D10122694665
:1059B000304600F07AF808E096F89C02032804D0FC
:1059C0002146304600F04AF803252846AEE700009D
:1059D00010B5D0F8D41200EB8101D1F8C02201211A
:1059E0001AB1D2F8143213B116E0032010BD012110
:1059F000C2F814120949D2F81032097801F00F04E4
:105A000004EB840400EB84046361D2F81032D2F812
:105A1000082200F0A8FB0021084610BD5402002017
:105A200010B5D0F8B82200245268904700B1032482
:105A3000204610BD0020704700207047134610B567
:105A40000A46002100F0E5FA002010BD134610B50B
:105A50000A46002100F087FB002010BD10B5044667
:105A6000802100F061FB2046BDE81040002100F0DD
:105A70005BBB10B50323C0F89432C0F85421C0F8C2
:105A800058211346C0F864110A46002100F0C1FAFB
:105A9000002010BD10B50521C0F8941200231A464D
:105AA000194600F0B6FA002010BD10B50223C0F868
:105AB000943242618261134641620A46002100F03D
:105AC00052FB002010BD10B50421C0F89412002331
:105AD0001A46194600F047FB002010BD10B50A46D3
