:020000040800F2
:10000000306F002045030008795C0008F9500008B3
:10001000815B0008D51D00088186000800000000F3
:100020000000000000000000000000008502000841
:100030003D25000800000000E10200082F660008CE
:100040005F0300085F0300085F0300085F03000808
:100050005F0300085F0300085F0300085F030008F8
:100060005F0300085F0300085F0300085F030008E8
:100070007D2100085F0300085F0300085F0300089C
:100080005F0300085F0300085F030008E51D000828
:10009000D91D00085F0300085F0300085F03000824
:1000A0005F0300085F0300085F0300085F030008A8
:1000B0005F0300085F0300085F0300085F03000898
:1000C0005F0300085F0300085F0300085F03000888
:1000D0005F0300085F0300085F0300085F03000878
:1000E0005F0300085F0300085F0300085F03000868
:1000F0005F0300085F0300085F0300085F03000858
:100100005F0300085F0300085F0300085F03000847
:100110005F0300085F0300085F0300085F03000837
:100120005F0300085F030008892100085F030008DF
:100130005F0300085F0300085F030008FD1D00085F
:10014000F11D00085F0300085F0300087D5C0008E4
:100150005F0300085F030008952100085F030008A3
:100160005F0300085F0300085F0300085F030008E7
:100170005F0300085F0300085F0300080000000041
:100180005F0300085F03000800F002F800F06AF85F
:100190000AA090E8000C82448344AAF10107DA45E2
:1001A00001D100F05FF8AFF2090EBAE80F0013F0CA
:1001B000010F18BFFB1A43F001031847C8AA00003B
:1001C000E8AA00000A444FF0000C10F8013B13F0BD
:1001D000070408BF10F8014B1D1108BF10F8015BA0
:1001E000641E05D010F8016B641E01F8016BF9D193
:1001F00013F0080F1EBF10F8014BAD1C0C1B09D1EA
:100200006D1E58BF01F801CBFAD505E014F8016B5B
:1002100001F8016B6D1EF9D59142D6D370470000ED
:100220000023002400250026103A28BF78C1FBD8FF
:10023000520728BF30C148BF0B6070471FB50AF096
:1002400087F800F04BFD04000020002109F032FE89
:10025000401C60600020002109F016FEE0601FBD18
:1002600010B510BD00F006FA1146FFF7E7FF08F0E1
:1002700003FC00F058FA03B4FFF7F2FF03BC00F0F0
:1002800027FD00002C4B19680868B0E8F04F80F398
:100290000988BFF36F8F4FF0000080F3118870471B
:1002A0000000000008480068006880F308884FF0EC
:1002B000000080F3148862B661B6BFF34F8FBFF3BE
:1002C0006F8F00DF00BF00BF08ED00E0DFF80C001B
:1002D000016841F470010160704700BF88ED00E0E3
:1002E000EFF30980BFF36F8F134B1A681EF0100FE6
:1002F00008BF20ED108A20E9F04F106009B44FF0DC
:10030000500080F31188BFF34F8FBFF36F8F09F058
:10031000F7F84FF0000080F3118809BC19680868ED
:10032000B0E8F04F1EF0100F08BFB0EC108A80F359
:100330000988BFF36F8F7047B4000020EFF305808A
:10034000704700000948804709480047FEE7FEE77C
:10035000FEE7FEE7FEE7FEE7FEE7FEE7FEE7FEE775
:1003600004480549054A064B70470000E566000849
:100370008901000830690020306F0020306B0020B8
:10038000306B002053EA020C00F069802DE9F04B3D
:100390004FF00006002B1FBFB3FA83F503FA05F4F4
:1003A00024FA05F65E4012BF1643B2FA82F502FA4D
:1003B00005F4C5F120051EBF22FA05FC44EA0C0431
:1003C000203556EA044C4FEA144418BF641C4FF021
:1003D00000084FF00009904271EB030C39D300295B
:1003E00019BFB1FA81F701FA07F6B0FA80F700FAFF
:1003F00007F6C7F120071EBF20FA07FC46EA0C06E5
:100400002037B6FBF4FCA7EB0507103F07F01F0BE6
:10041000CBF120060CFA0BFB2CFA06F644BFB346D0
:100420000026202FA4BF5E464FF0000B5BEA060CAF
:1004300008BF4FF0010B19EB0B09ABFB027C48EB3B
:100440000608C01B06FB02CC0BFB03CC71EB0C01B6
:10045000C1E70B46024641464846BDE8F08B13B55E
:100460004FF000004FF00001AFF30080BDE81C40EA
:100470007047032A40F2308010F0030C00F0158022
:1004800011F8013BBCF1020F624498BF11F801CB97
:1004900000F8013B38BF11F8013BA2F1040298BFFC
:1004A00000F801CB38BF00F8013B11F0030300F066
:1004B0002580083AC0F0088051F8043B083A51F80A
:1004C00004CBA0E80810F5E7121D5CBF51F8043B0F
:1004D00040F8043BAFF30080D20724BF11F8013B82
:1004E00011F801CB48BF11F8012B24BF00F8013BE4
:1004F00000F801CB48BF00F8012B704710B5203A37
:10050000C0F00B80B1E81850203AA0E81850B1E8CC
:100510001850A0E81850BFF4F5AF5FEA027C24BF82
:10052000B1E81850A0E8185044BF18C918C0BDE879
:1005300010405FEA827C24BF51F8043B40F8043B42
:1005400008BF7047D20728BF31F8023B48BF11F8F7
:10055000012B28BF20F8023B48BF00F8012B704751
:100560004FF0000200B5134694469646203922BF4C
:10057000A0E80C50A0E80C50B1F12001BFF4F7AF97
:10058000090728BFA0E80C5048BF0CC05DF804EB79
:10059000890028BF40F8042B08BF704748BF20F8E7
:1005A000022B11F0804F18BF00F8012B70477047E5
:1005B000704770477CB5054600236846CDE9003397
:1005C00000F024F86946284608F0B2F97CBD000026
:1005D0000FB4002300B589B00CA900910B99CB6032
:1005E000214B7B440693214B7B44079304236FF0FC
:1005F0000042CDE901321E4A7A446B460892024617
:10060000002009F012FF09B05DF814FB70B5064632
:100610004FF0FF3015460C46324686B00091CDE9CA
:10062000010169460020049004A8FFF7D1FF0246AB
:100630000498211825B108B1084600E0204628603A
:10064000049800280DD0002A02DD0098884208D0C6
:100650003246081B69460094CDE9010404A8FFF75F
:10066000B7FF06B070BD00000101000019010000D5
:10067000D9000000754600F05FF8AE4605006946F7
:10068000534620F00700854618B020B5FFF768FEF6
:10069000BDE820404FF000064FF000074FF0000883
:1006A0004FF0000B21F00701AC46ACE8C009ACE804
:1006B000C009ACE8C009ACE8C0098D46704710B568
:1006C00000F046F8006810BD10B5044600F040F890
:1006D000046010BD10B5044600F032F80068005DFB
:1006E00000F0010010BD426842B1016811F8013B01
:1006F00023B1521EC0E90012184670470121C160A3
:10070000881E704742685AB1C368016843B983685C
:100710008B4205D0491E521CC0E9001200207047D0
:100720004FF0FF30704710B50446AFF3008020460D
:10073000BDE81040FFF79FBD00487047CC6800201F
:1007400010B500F0CBFA001D10BD00BF6997000086
:1007500000487047CC6800202DE9FF4F06468BB05B
:100760000878FF2806D0491C2D2805D000244FF01A
:10077000000908E000200CE00124F8E709EB8903F8
:10078000491C00EB43090878FF28F7D114B1C9F1DF
:1007900000008146107800252C46AA4629462D28BF
:1007A00001D02B2804D1521C2D2813D000208246C2
:1007B0008B461078FF280FD04FF0000C0A21521CF6
:1007C000A5FB017804FB018105FB0C11C5194BEB5E
:1007D0000104EEE70120EAE7002108464FF000009F
:1007E000BAF1000F02D000EB80004008C0F381573F
:1007F000012F01DD4FF0FF370E9955EA040009EB98
:1008000001080BD04FF0020918F5FA7F16DA4FEA0B
:10081000CA70002F706008DD012007E04FEACA703F
:10082000C6E900B00FB0BDE8F08F00203060FFF7E0
:100830008FFFC0F800901821084616E0B8F5FA7F3F
:1008400018DD002F02DAF748784401E0F6487844D2
:10085000D0E90010C6E9001040EACA707060FFF7E6
:1008600077FFC0F80090142108460FB0BDE8F04FA4
:1008700009F078BD002108464FF00000B8F10001F2
:10088000099002DAC7F1000200E03A4601DAC8F145
:10089000000106A800F026FA06AB93E8070003ABB8
:1008A00083E8070044F23E005BEA040100905846EA
:1008B00004D144F21E012C465D460091210C09042E
:1008C000014306D10099240444EA15442D0410394B
:1008D000009104F07F41014306D10099240244EACB
:1008E00015642D020839009104F07041014306D1CE
:1008F0000099240144EA15742D01091F009104F0A8
:100900004041014306D10099A40044EA9574AD002A
:10091000891E009104F00041084304D100986D192C
:100920006441401E00904FF001033A466846B8F11A
:10093000000FCDE9014503A902DD00F01EFF01E033
:1009400000F0F1FEBAF1000F04460D4601D084F02C
:100950000044002108464FF00000099940F2FF775B
:10096000484010F00C0F07D124F00040284303D07A
:10097000C4F30A50B84212D1FFF7EAFEC0F8009063
:10098000C4F30A50B8420AD1A8487844D0E900100C
:10099000C6E9001004F000410843706042E7C6E970
:1009A00000543FE72DE9FF4F1F464FF0000A4FF07C
:1009B000FF38454691B0D7E90146CDF83CA000F09C
:1009C0008DF9C0680168405C1090B96912986D1C7F
:1009D0008847396A814688470028F6D1B9F1FF3F38
:1009E0000AD0002E24F4D06411DDB9F12B0F08D009
:1009F000B9F12D0F0BD102E0404615B013E744F4D6
:100A00008064B96912986D1C8847761E814660051E
:100A100004A901D52D2000E02B20002E01F1010BAF
:100A20000DF130088DF810003FDDB9F1690F08D0E5
:100A3000B9F1490F05D0B9F16E0F02D0B9F14E0FDF
:100A40001CD13B4601A8009580E85002DDE9121256
:100A50006FF0020009F0EDFCC11CCED10EE0B969C7
:100A600012986D1C884781461398761E44F40074D2
:100A700005600F98401C002E0F9016DDB9F1300F65
:100A8000EDD0B9F1780F02D0B9F1580F0DD10F9810
:100A900001280AD13B46CDE90054DDE91212001FBE
:100AA000029609F0C4FCC11CA7D1109989453ED11A
:100AB00044F0800406E01399681CAAF1010A44F48A
:100AC00000740860B9696D1C1298761E884730283A
:100AD0008146F0D02BE01099894505D1200603D43A
:100AE000761E44F0800418E0484607F034FF08B34F
:100AF000761E0DF123018B4544F4007408D2A9F150
:100B000030000BF8010B200607D5AAF1010003E025
:100B1000200602D40AF101008246A00502D51399ED
:100B2000681C0860B96912986D1C88478146002EC0
:100B3000D1DC53E0002E51DDB9F1650F02D0B9F1DF
:100B4000450F4BD1A00549D5B9696D1C1298761E89
:100B500024F440748847002E81460CDD2B2804D0F5
:100B6000B9F12D0F07D144F48074B96912986D1C46
:100B70008847761E8146E00501D52D2100E02B2116
:100B800008F8011BCDF8008021E0761E0DF1390137
:100B9000884544F400740CD2A9F1300010F0FF0035
:100BA00088F8000002D10099884509D908F10108A8
:100BB00006E0E00501D51E4801E042F20F708246D2
:100BC000B96912986D1C8847814613980560002EFC
:100BD00004DD484607F0BFFE0028D6D1F969129817
:100BE0008847FF2053468BF8000088F8000000205B
:100BF0000A900B9004AA0CA90AA8FFF7ADFDA00566
:100C000002D46FF00100F8E614F0240F12D0E007D0
:100C10001CD13868DDE90A12031D3B600068C0E999
:100C2000001213E060A4000052A4000016A300000C
:100C3000F1D8FFFF0AA9684607F07AFEE00705D160
:100C40003868009A011D3960006802602846D4E6C1
:100C50004FF0013C50F8042B51F8043B9A4221D14B
:100C6000A2EB0C03934313EACC1317D150F8042BD7
:100C700051F8043B9A4215D1A2EB0C03934313EABB
:100C8000CC130BD150F8042B51F8043B9A4209D1F4
:100C9000A2EB0C03934313EACC13DBD04FF000001C
:100CA000704700BFD01A01BAB1FA81F101F0180102
:100CB00022FA01F0CB40C1F12001DBB2C0B2C01A70
:100CC0002CFA01F3D11A914311EAC311E6D170470E
:100CD00001491820ABBEFEE726000200004870471D
:100CE000EC6800202DE9F047814616468AB0354869
:100CF00078440DC88DE80D0032487844801C03AC60
:100D00000DC884E80D0041F69B300844372190FB64
:100D1000F1F290FBF1F5A5F1800501FB12041B3CFB
:100D200002D56442012000E00020DFF898A0804650
:100D30000027FA44AAF1BE0A0EE0E0070AD03246C4
:100D4000684607EB470101230AEB810100F000FD33
:100D50008DE8070064107F1C002CEED1194F7F44F2
:100D6000AE3F19E0E80715D007EB04100DF1180AA3
:100D700090E80E008AE80E00C068F04201D1981990
:100D800008903246012306A903A800F0E1FC03AB5A
:100D900083E807006D10641C002DE3D14FF00103C0
:100DA00032466946B8F1000F03A802D000F0A6FC55
:100DB00001E000F0CDFCC9E90001C9F808200AB043
:100DC000BDE8F087949E0000704700002DE9FF4FBA
:100DD0001F464FF03C0987B04FF00042DDE9141088
:100DE00001F10108DDF858A002EA4050039000200C
:100DF00005908346054604460490B969461E089846
:100E00008847AAF1010A0290BAF1000F3BDD02986F
:100E10002E2815D0102100F016FA00282EDB4FF0F6
:100E2000010B0599014317D0B9F1000F0BDB4A46BE
:100E3000C11700F0F5F905430C43A9F1040905E0D9
:100E4000012004900BE008B145F001050120059058
:100E5000049820B9361D02E0049800B1361FB96924
:100E6000089808F101088847BBF1000FAAF1010AB0
:100E70000290C9D00999C1F80080C5E7029870288E
:100E800008D0502806D0F96908988847BBF1000FB0
:100E900014D04FE0002002900120BBF1000F04901D
:100EA00009D0B969089808F101088847AAF1010931
:100EB000B9F1000F07DCF969089888476FF0010065
:100EC0000BB0BDE8F08F2B2804D02D280CD14FF0AB
:100ED000FF300490B969089808F101088847A9F122
:100EE0000109B9F1000FE6DD411CE4D00A2100F050
:100EF000AAF90028DFDB029908F1010801EB810162
:100F000000EB41000290B969089888470A2100F077
:100F10009AF9099AA9F10109B9F1000FC2F8008004
:100F200001DD0028E7DAF9690898884704990298F2
:100F300000FB016655EA040004D004F040410900BA
:100F400002D006E0039898E0A40044EA9574AD004E
:100F5000B61E04F00041080002D16D196441761EEE
:100F6000159810F0240F03D04FF00B095C4803E0F4
:100F70004FF028096FF07D008246564507DAAAEB4C
:100F800006018944B9F1410F01DD4FF0410901200B
:100F90000021A9F1010200F043F9024628400B4666
:100FA0002140084301D0012100E00021501E0291A0
:100FB00043F1FF3128402140084301D0012000E0E7
:100FC00000200299834651EA0B014FD000210846C8
:100FD0004FF00000039900F4400039B100EB8000AD
:100FE0004FF4400100EBD07001EA60008015012849
:100FF00002DD4FF0FF3000E013D0401C36D00298E5
:1010000060B3BBF1000F0CD14A460120002100F073
:1010100007F928402140084301D0012000E00020CA
:10102000E0B101204A46002100F0FAF803464019D9
:101030000A4661412D1A8C4111D3B9F1400F09DDE7
:10104000159810F0240F02D0AAF1340603E0AAF19B
:10105000170600E0761C00254FF0004406E05B1EFA
:1010600042F1FF3220EA030521EA0204CAF101003D
:10107000B04206DA1B490398084301900020009013
:101080000EE0039AC4F3D321E80A0A43164940EA62
:1010900044500A433146CDE90002684607F051FC4E
:1010A000159810F0240F0BD01598C00715D138688B
:1010B000DDE90012031D3B600068C0E900120CE08E
:1010C00002A8694607F034FC1598C00705D13868B6
:1010D000029A011D3960006802604046F0E6000097
:1010E00002FCFFFF0000F07F0000F03F2DE9FF4F02
:1010F00092461D4685B04FF00041DDE9124BDDE917
:1011000014727F1E01EA4B50414940F0FF4940EA0A
:101110000108002122F020004928049102D04E2825
:1011200028D04CE03BA0012607C88DE80700A9693C
:101130000698641C88477F1E014606D41DF80600E9
:1011400018B121F0200181420BD0E9690698884747
:10115000032E34D0082E32D06FF0010009B0BDE864
:10116000F08F761C032E01D0082EE0D1601CCAF847
:101170000000DCE7A9690698641C88477F1E2AD412
:1011800020F02000412826D1A9690698641C8847D0
:101190007F1E20D420F020004E281CD1A96906987B
:1011A000641C88477F1E48F4002849F48009CAF867
:1011B000004001D4282806D0E969069888475FEAEC
:1011C000CB7012D022E0A9690698641C88477F1E64
:1011D00001D4002803DAE96906988847BCE7292882
:1011E000F1D1641CCAF80040E9E71BF0240F07D0D6
:1011F00028680499031D2B600068C0E9001805E009
:101200002868021D2A600068C0F800902046A5E703
:101210000000F07F494E46494E49545900000000F5
:10122000B2F120030AD5C2F1200301FA02F120FA3B
:1012300003F300FA02F041EA0301704700FA03F1F8
:101240004FF0000070473A2800D2303820F02002DA
:10125000412A01D3A2F13700884201D34FF0FF3079
:10126000704720F07F4C80EA030023F07F47ACEB0F
:10127000070303F57C5300F0004003F1FF032DE961
:1012800080494FEA154B09B44FEA144325EA0B4E47
:1012900024EA03480FF2042606EB132749083E7898
:1012A0005FEA320203FB0667C7F5000707FB06F695
:1012B0004FEA54374FEAD64606F1020607FB066CA2
:1012C000CCF1005C4FEA1C472CEA074C07FB06F404
:1012D0000CFB06F504EB15464FEA961634BF0020CA
:1012E0004FF000404FEAD13706FB07FC4FEA1C4C99
:1012F0000CFB0BF7D21B03FB0CF761EB07010CFB9C
:101300000EF7B0EB074072EB17420CFB08F734BF47
:10131000A2EB0742B2EB074261EB17414FEA0C44E4
:101320004FEA910706FB07FC4FEA1C4C0CFB0BF73E
:10133000B0EBC74072EB573203FB0CF734BFA2EBA4
:10134000C742B2EBC74261EB57310CFB0EF7B0EB73
:10135000C70072EB57720CFB08F734BFA2EBC70251
:10136000B2EBC70261EB5771039F4FEA816141EA1B
:10137000921104EBCC044FEAD1374FEA826206FBAC
:1013800007FC42EA90124FEA80604FEA1C4C0CFBCB
:101390000BF7D21B03FB0CF761EB07010CFB0EF7FD
:1013A000B0EB074072EB17420CFB08F734BFA2EB1F
:1013B0000742B2EB074261EB17414FEA8C554FEA07
:1013C000910704EB9C2406FB07FC4FEA1C4C0CFB2A
:1013D0000BF7B0EBC74072EB573203FB0CF734BF8F
:1013E000A2EBC742B2EBC74261EB57310CFB0EF7E1
:1013F000B0EBC70072EB57720CFB08F734BFA2EBDF
:10140000C702B2EBC70261EB577115EB4C254FEAEF
:10141000816141EA92114FEA82624FEAD13742EA92
:10142000901206FB07FC44F100044FEA80604FEA8B
:101430001C4C0CFB0BF7D21B03FB0CF761EB0701F9
:101440000CFB0EF7B0EB074072EB17420CFB08F7F2
:1014500034BFA2EB0742B2EB074261EB174115EB39
:101460001C154FEA813141EA92414FEA823242EA49
:1014700090424FEA80304FEA0C7644F1000448EA8B
:1014800003434EEA0B484FF0000EB2EB080C71EB31
:10149000030724BF624639464EEB0E0E4FF0000B99
:1014A0000018524149414BEB0B0BB2EB080C71EBAE
:1014B00003077BF1000B24BF624639464EEB0E0E4C
:1014C0004FF0000B0018524149414BEB0B0BB2EBB4
:1014D000080C71EB03077BF1000B24BF6246394611
:1014E0004EEB0E0E51EA020718BF46F0010616EB4E
:1014F0000E7655F1000254F1000103D5BDE88901D3
:10150000BDE80088BDE88901BDE80048B619524130
:1015100041EB0101A3F10103704780807F7E7D7C58
:101520007B7A7978777676757473727171706F6E75
:101530006E6D6C6C6B6A6A69686867666665646420
:10154000636362616160605F5F5E5E5D5D5C5C5BAA
:101550005B5A5A5959585857575656555555545419
:10156000535352525251515050504F4F4F4E4E4D77
:101570004D4D4C4C4C4B4B4B4A4A4A4949494848C3
:101580004847474747464646454545444444444303
:1015900043434342424242414141000046EA06463B
:1015A000A3F570534FEA164646EA42564FEAD22256
:1015B00042EA415210B54FEAD121A3F1010300F0F4
:1015C0002FF820F0004000F1020C00F0004701EB82
:1015D00000501146BCF5006F40EA070000D210BD74
:1015E000BAF1000F0AD01CB503B44FF004004FF05D
:1015F00004014FF000000FBCBDE810404FF00001A7
:10160000BBF1010FB9BF04484FF0FF31034800217F
:1016100040EA070010BD00BFFFFFEF7F0000F07F32
:10162000002B9C4630D477002BD01CB54FEA3707EF
:1016300003B44FF010004FF01001BAF1000F06D0C4
:10164000BCF1000FDCBF40F0080040F008014FF093
:1016500000000FBCBDE810400BF1010BBBF1010F06
:1016600008BF5FEA170722BF12F1010211F1010161
:101670004FF0004143F1000300F0004043EA000056
:101680007047F9D35708D0E746EA064613F1400FF2
:101690004FEA16461FDD13F1200FDFBF16430A463F
:1016A000002120335B42BED0C3F1200746EA064644
:1016B00002FA07F74FEA164646EA0706C3F1200783
:1016C00022FA03F201FA07F721FA03F14FF00003BF
:1016D00042EA0702A7E746EA020646EA06464FEA5A
:1016E000164646EA0106BCBF46EA0646360C4FF0EF
:1016F00000034FF000024FF0000194E72DE9804C09
:101700009A46934670B491E8380007C831EA400C15
:1017100048BF34EA430C03D5FFF7A3FDFFF780FF72
:10172000F0BCBDE8008C2DE9804C9A46934670B41D
:1017300091E8380007C831EA400C48BF34EA430C4E
:1017400003D5FFF78EFDFFF729FFF0BCBDE8008C45
:101750002DE9804C9A46934670B491E8380007C84A
:1017600010F0804F08BF13F0804F03D100F01AF83B
:10177000FFF756FFF0BCBDE8008C2DE9804C9A467F
:10178000934670B491E8380007C810F0804F08BF46
:1017900013F0804F03D100F005F8FFF7FFFEF0BC17
:1017A000BDE8008C20F07F4780EA030023F07F4CE7
:1017B00007EB0C03A3F57C5300F00040A3F1FE03FC
:1017C00092F0000F00F0B38095F0000F00F07780EA
:1017D0002DE901494FEA11404FEA144621EA004839
:1017E00000FB06FC24EA064708FB06F607FB08F8A0
:1017F00000FB07F718EB06484CEB164C4FEA124B70
:1018000018EB07484FEA15464CEB174022EA0B4EFF
:101810000BFB06FC25EA06470EFB06F607FB0EFE51
:101820000BFB07F71EEB064E4CEB164C4FF0000679
:101830001EEB074E4CEB174B18EB0B0840F100006A
:1018400018EB0E0B58EB000840F100008F1A4FF018
:1018500000013CBFC943661B14BFB5EB040C00215B
:101860003CBFC943F61B4FEA17444EEA8E0E27EAE7
:1018700004454FEA1C4704FB07622CEA074C05FBB2
:1018800007F70CFB05F604FB0CFC16EB074642EBD6
:10189000174216EB0C4642EB1C421BEB060658EBBC
:1018A0000202414146EA9E0601D5BDE80189B6190A
:1018B000524141EB0101A3F10103BDE801894FEA67
:1018C00014454FEA114724EA054621EA074C05FB77
:1018D00007F406FB07F70CFB06F105FB0CFC11EB0C
:1018E000074144EB17444FEA124711EB0C4144EB1C
:1018F0001C4422EA074C05FB07F206FB07F70CFB2A
:1019000006F605FB0CFC16EB074642EB174216EBFE
:101910000C4642EB1C456A1854F1000148BF704761
:10192000B619524141EB0101A3F10103704795F053
:10193000000F37D04FEA11424FEA144721EA02461E
:1019400024EA074C02FB07F106FB07F70CFB06F441
:1019500002FB0CFC14EB074441EB17414FEA15471F
:1019600014EB0C4441EB1C4125EA074C02FB07F544
:1019700006FB07F70CFB06F602FB0CFC16EB074612
:1019800045EB174516EB0C4645EB1C42121951F17D
:10199000000148BF7047B619524141EB0101A3F164
:1019A000010370474FEA14454FEA114724EA054600
:1019B00021EA074C05FB07F106FB07F70CFB06F2D3
:1019C0004FF0000605FB0CFC12EB074241EB174100
:1019D00012EB0C4251EB1C4148BF7047921841EB8F
:1019E0000101A3F1010370472DED0E8B834C9FED98
:1019F00084DADFED84DADFED849A9FED84EA41F248
:101A00008836B500DFED82EA9FED829A9FED82AACB
:101A1000DFED82AA9FED82BADFED82BA9FED82CA26
:101A2000DFED82CA5FEA650707F0A2FB22680121A9
:101A30007F489047226802217E489047B0EE4D8A49
:101A4000F0EE6D8AB2EE042AF0EE481AB3EE091AEF
:101A5000F0EE680AB0EE690A774806F0FFFFB2EED2
:101A6000042AF0EE481AB3EE091AF0EE680AB0EE56
:101A7000690A724806F0F2FFB2EE042AF0EE481A44
:101A8000B3EE091AF0EE680AB0EE690A6C4806F087
:101A9000E5FFB2EE042AF0EE481AB3EE091AF0EEB2
:101AA000680AB0EE690A674806F0D8FFB2EE042A69
:101AB000F0EE481AB3EE091AF0EE680AB0EE690AC1
:101AC000614806F0CBFFB2EE042AF0EE481AB3EEFE
:101AD000091AF0EE680AB0EE690A5C4806F0BEFF2B
:101AE000F0EE4E8AB0EE082AF0EE681AB1EE041A53
:101AF000FBEE0E0AB3EE0E0A554806F0AFFFB7EE46
:101B0000002AF0EE681AB0EE481AFAEE040AB2EEB5
:101B1000040A504806F0A2FFB0EE6E8A324629460B
:101B2000B3EE0E1AF0EE480AB0EE490A4A4803F046
:101B300035FB32462946B3EE0E1AF0EE480AB0EEF7
:101B4000490A464803F02AFB32462946B3EE0E1AEC
:101B5000F0EE480AB0EE490A414803F01FFB324656
:101B60002946B3EE0E1AF0EE480AB0EE490A3D4897
:101B700003F014FB32462946B3EE0E1AF0EE480A83
:101B8000B0EE490A384803F009FB32462946B3EE65
:101B90000E1AF0EE480AB0EE490A344803F0FEFA95
:101BA000B0EE4A3AF0EE6A2AB0EE4B2AF6EE001A90
:101BB000B0EE6B1AF0EE4C0AB0EE6C0A2C4804F052
:101BC000DBF93A4646F2A811B2EE001AF0EE040A2A
:101BD000B2EE0E0A274803F0E1FA00F009FA06F027
:101BE00065FD00F0A1FC2448806B07F0CFFB07F0F7
:101BF000DFFA012006F05DFF16E70000700100200B
:101C0000CDCCCC3D0000C8C20000C8420AD7233C5E
:101C100000000000000020420000FA4300007A4467
:101C20000000FA449A99993E8FC2753CCDCCCC3EC7
:101C30007C050020A40500206C600020AC60002022
:101C4000EC6000202C6100206C610020AC61002061
:101C5000EC6100202C62002048660020986600207D
:101C6000E86600203867002088670020D8670020D9
:101C7000286800207C680020000000208AB0084E00
:101C80006C464FF0FF3707AD3A466946306807F0BB
:101C90006BFE09AB2A46211D009800F0CBFFF3E74D
:101CA0000800002070B50C46050008D0022C06D9AB
:101CB000FF22611E00F09EFF291901F8010C70BD82
:101CC000F0B585B000202D4C039004900190029057
:101CD00020882B4D010A8DF80C108DF80D006088BE
:101CE000294E010A8DF80E108DF80F00A08840F2E1
:101CF0000F13010A8DF810108DF811002089010AC8
:101D00008DF812108DF8130003A800906F68002260
:101D10001C493068B847608940F21F13010A8DF8EA
:101D200004108DF80500E07E8DF80600617F9DF8B7
:101D3000070001F001010843217B01F0010140EAA5
:101D40004100217F01F0010140EA8100A17E01F004
:101D5000010140EAC1008DF807000C48B0F8860088
:101D6000010A8DF808108DF8090001A800906C6830
:101D7000002204493068A04705B0F0BDD8630020B8
:101D800070010020A4050020080000200464002049
:101D9000DDE9031288B243BA0C48090C49BAC38181
:101DA000C18491B249BA09B200EE101ADFED080AF7
:101DB000110CB8EEC00A01F00102C1F3400180EE3F
:101DC000201A80ED041AC27701857047D86300207D
:101DD00000007A44FEE70000014801F094B80000DA
:101DE0007C050020014801F08EB800007C05002031
:101DF000014801F088B80000A4050020014801F066
:101E000082B80000A405002010B50446491EC8B2DF
:101E100000EB400101EB00100E49002201EB8001B4
:101E200001230A614A614A62C1E906230A604A60E5
:101E30008A600B622046CA6000F064FF08B100F0BF
:101E40002BFC204601F0DAFA2046BDE810400221C2
:101E500000F0DEBE6C62002010B58AB00C9C0091D0
:101E600092B102930021CDE90321082205928DF859
:101E70001810216807916168002308911A46694685
:101E800007F062FC0AB010BD0193EBE70020704739
:101E90000020704710B500220449054804F0A8FF4F
:101EA0000449034804F097FF002010BD7814002077
:101EB0009C070020780C002010B50146034804F070
:101EC0008AFF024804F060FF002010BD9C0700203C
:101ED00000207047094A10B5D2F8BC22D2F814226B
:101EE0000AB1012010BD0A460146044804F080FFF3
:101EF000BDE81040014804F0F5BF00009C07002039
:101F00008EB0164F164E4FF0FF3809AD424605A968
:101F1000386807F029FD9DF83000059C00F00F009F
:101F2000A4F201213080032908D8142229466846EA
:101F3000FEF7E4FA0B48D0F800C009E00128E5D12B
:101F4000142229466846FEF7D9FA0748D0F80CC093
:101F5000DDE906122046089BE047D7E70000002095
:101F60008E02002088010020E00100208EB0144E77
:101F70004FF0FF3709AD3A4605A9306807F0F4FC89
:101F8000059CA4F20520022808D814222946684698
:101F9000FEF7B4FA0B48D0F800C00BE0A4F580714E
:101FA0000F39E8D1142229466846FEF7A7FA0648F9
:101FB000D0F804C0DDE906122046089BE047DAE7C6
:101FC0000400002088010020800100200748002133
:101FD0000068B0F8442022B180F84610A0F8441000
:101FE0007047012280F84620F8E70000DC0100205D
:101FF0000D4810B5BAEE040A80ED030A80ED010A1F
:102000009FED0A0AF2EE040A80ED040AB1EE080A16
:10201000143003F039FE0648002102220177C2760F
:10202000417780F8201010BDF86500200000000006
:10203000D863002070B539483A4ADFED3B0AB0F961
:102040000610057B364802EE101A384BD0ED041A04
:10205000B8EEC22A90ED060A354CBAEE041A02EE2A
:10206000210A012D10EE101A80ED060A04D09142CB
:1020700018DDC0ED060A1BE0914202DDC0ED060A44
:1020800005E010EE101A994201D980ED061A94ED80
:10209000040AD0ED061A012130EE210A84ED030A6C
:1020A00041610DE010EE101A994201D980ED061A37
:1020B000416909B1012903D190ED060A84ED030AB3
:1020C000E168914202DDC4ED030A03E0994201D9BF
:1020D00084ED031A90ED020A164DBDEEC00A10EE13
:1020E000101A05F8401F90ED030ABDEEC00A10EE6D
:1020F000101A697090ED010A05ED040A90ED000ACE
:102100000B4805ED030A94ED030A143003F0D4FDE7
:1021100094ED030A05ED050A70BD0000D8630020A8
:10212000FC0100200000824200008242000020C129
:10213000F8650020B0650020FFF77CBF90ED000A35
:1021400090ED011AF0EEC00AB0EEC11AF4EEC10A29
:10215000F1EE10FA04D29FED070A80ED000A7047F5
:102160009FED051AF0EE400A40EE410AC0ED000A6C
:102170007047000000000000CDCC4C3E014801F04B
:1021800071B900003C070020014801F06BB9000064
:102190007C060020014801F065B90000DC06002043
:1021A00001681823CAB2103AB2FBF3F2054B6FF381
:1021B0000901032A9B5CC36500D9091D8165084696
:1021C000704700009CA5000810B5014600208B69EF
:1021D0008A6A4FF0C07453B1B3F5005F15D072B185
:1021E000012A0CD0022A0AD0032A09D104E01AB12C
:1021F000012A06D0022A03D1C96AC90100D50120EB
:1022000010BDC96AA142FAD010BD002AF7D0012A38
:10221000F2D0022AF3D0032AF3D010BD30B50468FF
:10222000256825F480252560046863608368402B59
:10223000036803D099600068C26030BD9A6000688E
:10224000C16030BD08B507F0CBFC009000F006F887
:102250000521684607F054F8F8E700002DE9F05F23
:10226000A3482DED028B417801297DD1A14900259C
:1022700045700888C0F30A07A1F11600A7F580672A
:1022800007804A782D37D3088A7843EA4213C3F38C
:102290000A06A6F580664680CB78920942EA830357
:1022A0000A7943EA8223C3F30A03A3F58063838098
:1022B00052084C795A2F42EAC412C2F30A02A2F51C
:1022C0008062C28000D80580761D0A2E00D8458025
:1022D0005B1D0A2B00D88580521D0A2A00D8C580B4
:1022E000A2090272C4F301174772CB8843810B899C
:1022F00083814B89C3810B7B03744B7B4374CB89F4
:102300004382098AA1F5806109B2818201F52571B4
:10231000B1F5A56F00D98582774C794B7449677305
:1023200093ED000A0978DFF8D4B1491CBDEEC08AEC
:10233000744E01F0FF094FF0010A032A04D0022A6B
:102340004ED0012A7CD0A9E039007AD0C1888046DD
:1023500049422180808840426080012F05D0032FB0
:102360000FD0022F22D02CE0BBE08BF805A084F820
:102370001DA0B8F81410504609B1707521E07575AC
:102380001FE07575758235708BF805506577A577F8
:10239000B8F9140007F055FE9FED5B1B53EC112BB1
:1023A00007F0A2FE07F01EFEA0800AE0504880F869
:1023B00000905FEAC97002D084F824A001E084F89C
:1023C00024502573B8F80210E180B8F8001021817C
:1023D000B8F814004000A08018EE100A60816AE08E
:1023E00039005BD08046C08840422080B8F80400A5
:1023F00040426080B8F9020007F023FE9FED441BC5
:1024000053EC112B07F070FE07F0ECFDE080B8F8FC
:1024100000002081B8F91410A18018EE102A84F869
:102420000CA062813C4A5046012F92ED000A3B4AC3
:1024300082ED040A06D0032F19D0022F20D050E0DD
:102440002AE02BE08BF805006077B1F5C87F01DD4D
:10245000707538E001F28F1040F21F32904201D2C5
:10246000757530E011F5C87F2DDA0220F0E775753B
:10247000758235708BF805506577A577A18027E0C8
:102480001B4A5FEAC97182F8009002D084F82400E8
:1024900023E084F8245020E0032F08D02573258002
:1024A0006580A5802581E5800320607310E003F03E
:1024B000BFF803F019FE607B012804D0032807D081
:1024C00002280AD00DE016493575A1F804A008E0ED
:1024D000022030751248858003E0114935750220CD
:1024E000888010480068BDEC028BBDE8F05F0047B3
:1024F000900100209E650020D86300207402002017
:102500006001002044020020333333333333D33FA0
:102510009A9999999999C93F64010020F86500201A
:10252000880200208001002012220249024802F0A5
:1025300061BC00009E65002034060020704700004A
:102540000648DFED070A90ED1E0AB8EEC00A30EE2D
:10255000200ABDEEC00A80ED1E0A70470464002008
:1025600013CDF5460648DFED070A90ED1E0AB8EEDA
:10257000C00A30EE600ABDEEC00A80ED1E0A704748
:102580000464002013CDF54610B501F0E7F90146CB
:102590002748284C027D22B9407D012815D0022809
:1025A00043D00020A4F8740034F96E0F00EE100A36
:1025B0002248F8EEC00A9FED200A02F09EFDBDEE13
:1025C000C00A10EE100A208310BD194A143A106890
:1025D000081AB0F5FA6F02D3FFF7C4FF116094ED4B
:1025E000200A17491748F8EEC00A94ED1E0A6C3409
:1025F000B8EEC00A03F0DEFCBDEEC00A10EE100A11
:1026000000B22081B4F9021000EE101AF8EEC00AF0
:1026100000EE100A0948B8EEC00A02F06EFDBDEEE9
:10262000C00A10EE100A608310BDFFF789FFD6E7DD
:102630004402002004640020000000007C680020A8
:102640001C0100202868002010B540B10E48006829
:1026500080470D491031088A401C088210BD0B4C80
:102660000020A4F8740034F96E0F00EE100A094837
:10267000F8EEC00A9FED060A02F03FFDBDEEC00A6B
:1026800010EE100A208310BD3402002004640020E4
:10269000000000007C68002072B6FEE7F0B54849F3
:1026A000B1F908E04888AEEB000002B2454802806C
:1026B000B1F92C70CB8CFB1A1BB24380B1F950C01E
:1026C000B1F84A4064448480B1F99840B1F892501E
:1026D000651BC580B1F9BC60B1F8B650751B0581AA
:1026E000B1F9E050B1F8DA10002A2944418100DC48
:1026F0005242354912B2002B0A8000DC5B4200EEE8
:1027000010EA1BB24B80F8EEC00A9FED300A60EE73
:10271000800AFDEEE00A10EE901A00EE907A09B2FF
:10272000F8EEE00A0180002960EE800AFDEEE00A82
:1027300010EE907A00EE90CA3FB2F8EEE00A4780C1
:1027400060EE800AFDEEE00A10EE90CA00EE904ABC
:10275000A0F804C0F8EEE00A60EE800AFDEEE00AA0
:1027600010EE904A00EE906AC480F8EEE00A60EE47
:10277000800AFDEEE00A10EE904A00EE905A0481C5
:10278000F8EEE00A20EE800ABDEEC00A10EE104A14
:10279000448100DC49420C4809B2001D002F018031
:1027A00000DC7F423CB24480074808308A4203DAAA
:1027B000A34201DA012100E000210171F0BD000017
:1027C000046400203C6600206C020020CDCC4C3D0F
:1027D00010B500F01DF901F0C1F87A4900220B781C
:1027E000EBB34B68C01AB0F5FA6F05D391ED020A4E
:1027F00081ED030A0A7013E0D1ED020A01EE100A1E
:10280000B6EE000A20EE800AF8EE411A9FED6E2A1D
:1028100070EEC00A81EE821A00EE810A81ED030A91
:10282000B5EEC00A694CF1EE10FA3DDDDFED680A45
:1028300020EE201ABDEEC11A11EE100AB1EE401AB8
:102840002081BDEEC11A11EE100AA0859FED611A1C
:1028500060EE011AFDEEE11A11EE900A00E020E0B0
:10286000A4F85000DFED5C1A60EE211A61EEA00AB8
:10287000FDEEE00A10EE900AA4F89800DFED570A8A
:1028800020EE200ABDEEC00A10EE100A21EE810AE9
:10289000A4F8BC00BDEEC00A10EE100AA4F8E000D7
:1028A0000CE091ED020AB9E72281A285A4F850203C
:1028B000A4F89820A4F8BC20A4F8E020B4F9020001
:1028C000474900EE100AB4F90800F8EEC00A00EE1D
:1028D000100A4448B8EEC00A03F0D3FABDEEC00AAD
:1028E000414910EE100A6083B4F9260000EE100A88
:1028F000B4F92C00F8EEC00A00EE100A3B48B8EE1E
:10290000C00A03F0BEFABDEEC00A394910EE100A43
:10291000E087B4F94A0000EE100AB4F95000F8EE6E
:10292000C00A00EE100A3348B8EEC00A03F0A9FA54
:10293000BDEEC00A304910EE100AA4F86200B4F9E6
:10294000920000EE100AB4F99800F8EEC00A00EE0A
:10295000100A2A48B8EEC00A03F093FABDEEC00A86
:10296000274910EE100AA4F8AA00B4F9B60000EE48
:10297000100AB4F9BC00F8EEC00A00EE100A2148B3
:10298000B8EEC00A03F07DFABDEEC00A1E4910EE93
:10299000100AA4F8CE00B4F9DA0000EE100AB4F977
:1029A000E000F8EEC00A00EE100A1848B8EEC00ABF
:1029B00003F067FABDEEC00A10EE100AA4F8F200A8
:1029C00010BD00005C0200200000FA4404640020F6
:1029D000333333BFA4703D3F6666663F666666BFAD
:1029E0006C60002048660020AC60002098660020E3
:1029F000EC600020E86600202C6100203867002091
:102A00006C61002088670020AC610020D86700203E
:102A1000174810B5417FDFED170A174811B101299A
:102A200003D006E0C0ED000A03E09FED140A80ED3C
:102A3000000A114C90ED000A183C84ED020A6078FF
:102A400050B9B5EEC00AF1EE10FA05DD00F086FFD0
:102A500060600120207008E0B5EEC00AF1EE10FAC7
:102A600004D800202070C4ED020A607010BD000080
:102A7000D863002000000000740200200080BB45E5
:102A8000F0B50446002500F1200102F00BFE94EDA4
:102A9000080A04F1300104F1280003F073F894ED02
:102AA000090A04F13C0104F1340003F06BF894F9D5
:102AB0003000434EC0EBC002D4ED0A1AD4ED0D0A2B
:102AC00094F93C0006EB820303EB800161EEA02A3F
:102AD00091ED000A01EE105A94F93D1094ED0B3A75
:102AE00002EE801A94ED0E0A03EB810321EE802A98
:102AF000D3ED001A94F93130C3EBC30302EE211A6F
:102B000006EB830663EE201A06EB800723EE003AFD
:102B1000D7ED000A06EB8106294F01EEA01A96EDCB
:102B2000000AC43707EB820606EB800C06EB810631
:102B300003EE001ADCED000A00EE105A02EEA00AC5
:102B4000D6ED000A07EB830606EB800706EB81064D
:102B500002EE200AD7ED000A01EEA00AD6ED000A27
:102B6000184E06EB820202EB800703EE200AD7ED37
:102B7000003A00EE905A02EB810242EEA30AD2ED37
:102B8000002A06EB830202EB800042EE220A90ED5F
:102B9000002A02EB810041EE820AD0ED001A43EEDA
:102BA000210AF0EE081A81EE212A80EE211A84ED26
:102BB000002A80EEA10A84ED011A84ED020AF0BD1C
:102BC000BCA5000844A70008094A21B1012904D086
:102BD00002290BD108E0D16800E09168C14011F0F2
:102BE000010F03D0012070471169F7E700207047FB
:102BF0000065002010B5054C04E000BF10F8013B53
:102C00005340E25C491EF9D2104610BD08A80008E6
:102C100090F82020012A07D0022A05D0416A41F409
:102C20008021416201207047006842690A43426185
:102C300000207047F0B590F820500468A468012D7A
:102C400005D0022D03D0416A41F4802157E014F0F1
:102C5000406F01D1E5004FD5C4F301640125A540C3
:102C60001D608D684FF4C0739DB1CE6835434E68CA
:102C700045EAC605066803EB0417F5514FF4C27523
:102C8000076805EB04150E697E51097D012905D001
:102C900009E00E88CD6845EA4655EBE701684E59D4
:102CA00046F480764E511179D579567941EA05611D
:102CB00095792D0445EA062529434FF4C676056823
:102CC00006EB0416A9511178D57841EA056195788B
:102CD00052782D0445EA022211434FF4C47502686C
:102CE00005EB04155151006803EB0411425842F002
:102CF000010242500020F0BD416A41F400114162DE
:102D00000120F0BD10B590F82020012A07D0022A3A
:102D100005D0416A41F480214162012010BD3B4849
:102D2000D0F8002242F00102C0F80022D0F80022C0
:102D300022F47C52C0F80022D0F800224B6A42EA0A
:102D40000322C0F800220A7D02F01F0301229A40EC
:102D5000D0F81C329343C0F81C32CB69B3B9D0F819
:102D60000C329343C0F80C328C894B6864F31F43D8
:102D70004C6900EBC404C4F840320C890B6864F35E
:102D80001F434C6900EBC404C4F84432CB69012BE7
:102D900016D1D0F80C321343C0F80C320C884B68B3
:102DA00064F31F434C6900EBC404C4F840320C893F
:102DB000CB6864F31F434C6900EBC404C4F844328D
:102DC0008B69002BD0F804320ED01343C0F80432C4
:102DD0000B69002BD0F8143208D01343C0F814321A
:102DE000096A012904D008E09343EFE79343F5E72C
:102DF000D0F81C121143C0F81C12D0F8001221F0B8
:102E00000101C0F80012002010BD00000064004065
:102E1000704770B590F82040012C05D0022C03D0EB
:102E2000416A41F4802128E0046809B32469A407B9
:102E300020D04FF4D874056804EB01142D5915F017
:102E40000405956005682D591AD0ED085560056890
:102E50002C5904F00204D4604FF4DA74056804EBD2
:102E600001142E5906F00F06082E0CD308250DE08C
:102E7000E468DCE7416A41F400114162012070BD61
:102E80006D0D1560E3E72D5905F00F051561056817
:102E90002D59C5F30725956105682C59240C5461FB
:102EA0004FF4DC72046802EB0112A4581C70046831
:102EB000A458240A5C700468A458240C9C7004680C
:102EC000A258120EDA704FF4DE72046802EB01129F
:102ED000A4581C710468A458240A5C710468A4589E
:102EE000240C9C710468A258120EDA71006829B192
:102EF000016941F020010161002070BDC16841F00D
:102F00002001C160F8E72DE9F05F05460068002464
:102F10004669D0F804908768D0F80CB0D0F810A0BB
:102F2000D0F81880F10748D0F90714D0012181604A
:102F3000B80703D5284600F08EFA0CE0780702D5D2
:102F40004FF4006407E0380702D54FF4805402E0E4
:102F5000284600F07FFAF80516D529684FF48070EE
:102F60008860B80503D5284600F077FA0CE07805AC
:102F700002D544F4005407E0380502D544F48044F7
:102F800002E0284600F068FAF80316D529684FF4E5
:102F900080308860B80303D5284600F060FA0CE062
:102FA000780302D544F4004407E0380302D544F422
:102FB000803402E0284600F051FA300707D55FEA76
:102FC000CB6004D52968102044F40074C8607007F1
:102FD0004FF0080707D55FEA0B7004D52868C76073
:102FE000284600F0A9F9B00706D52868C068800710
:102FF00002D0284600F0A2F9700607D55FEACA6041
:1030000004D52968102044F480640861B00607D50F
:103010005FEA0A7004D528680761284600F0EAF9DB
:10302000F00606D528680069800702D0284600F01F
:10303000E2F9B00308D55FEAC96005D52968102018
:103040004860284600F0D8F9F00307D55FEA097018
:1030500004D528684760284600F002FA300446D5B7
:103060005FEA497040D5F00504D55FEAC87001D029
:1030700044F00104B00504D55FEA887001D544F03E
:103080000204700504D55FEA487001D544F00404D9
:10309000300529D518F0700F26D008F070004028B0
:1030A00015D006DC102809D020280AD0302816D1E7
:1030B0000AE050280ED0602811D10EE044F0080438
:1030C0000DE044F010040AE044F0200407E044F06E
:1030D000400404E044F0800401E044F48074286873
:1030E000816921F070018161296804204860002C09
:1030F00005D0686A204368622846FFF789FEBDE86C
:10310000F09F70B5040003D094F8200010B104E0E3
:10311000012070BD204600F081F82068016841F070
:103120000101016000F01AFC0546052604E000F0EC
:1031300015FC401B0A2811D820684068C007F6D04B
:103140002068016821F00201016000F007FC0546DB
:103150000BE000F003FC401B0A2806D9606A40F42B
:103160000030606284F82060D2E720684068800701
:10317000EFD4207E0128206801683DD021F0800135
:103180000160607E01282068016838D021F040018C
:103190000160A07E01282068016833D021F0200161
:1031A0000160E07E0128206801682ED041F0100106
:1031B0000160207F01282068016829D021F00801E2
:1031C0000160607F01282068016824D021F004019B
:1031D0000160D4E902010843D4E904121143084311
:1031E0006168491E08432168C861002060620120AF
:1031F00084F82000002070BD41F08001C0E741F05C
:103200004001C5E741F02001CAE721F01001CFE7F6
:1032100041F00801D4E741F00401D9E7F0B587B0E7
:10322000044614216846FDF79BF93E4B3E48DFF803
:10323000F0E01968D4F800C03B4A032502260927AC
:1032400010300024491CF4452AD11960012907D106
:10325000016841F000710160006800F000700590A5
:10326000106840F0080010601068CDE9005600F0CA
:103270000800CDE9047069462C48CDE9024500F00C
:1032800075FA00220521132000F0DAFB132000F06C
:10329000C9FB00220521142000F0D2FB14203AE0E3
:1032A000DFF88CE0F44538D1D0F800C04CF0806CE9
:1032B000C0F800C0D0F800C001290CF0806CCDF837
:1032C00014C0196007D1016841F000710160006805
:1032D00000F000700590106840F002001060106867
:1032E00002AB00F0020005906020CDE9000683E803
:1032F000B00069460F4800F039FA002205213F204E
:1033000000F09EFB3F2000F08DFB002205214020B5
:1033100000F096FB402000F085FB07B0F0BD0000F8
:10332000006400403C00002030380240000C0240A5
:10333000006800400004024070470000F8B5274BC9
:1033400002680021264C9A4200D001212170C9B2A6
:1033500001EB4102234E02EB011106EB810202F167
:10336000440300212832FFF754FD207806F1980528
:1033700000EB400101EB001106EB810100EBC00006
:1033800005EB80001C222831FDF7B8F8207800EB0F
:10339000400202EB001206EB820300EBC001D3E90E
:1033A000112305EB8101C1E9072388B10E480023F1
:1033B0006A46006806F078FA0098002807D00B49A2
:1033C0004FF080500860BFF34F8FBFF36F8FF8BD91
:1033D000294600236A460648EBE7000000640040E7
:1033E000780100206C6200200400002004ED00E061
:1033F00000000020704770477047000070B5044619
:1034000090F82000012804D0606A40F40020606237
:1034100018E0022084F820002068016821F00101F2
:10342000016000F09BFA05460EE000BF00F096FA3E
:10343000401B0A2808D9606A40F400306062052009
:1034400084F82000012070BD20684068C007EDD1DD
:10345000606270BD70477047704770477047704733
:10346000704700002DE9F84304464FF00009CDF8FD
:10347000009063484FF41651A56D0068B0FBF1F75A
:103480002E6894F85C10082000FA01F131420FD048
:1034900021680A6852070BD50A6822F004020A6004
:1034A00094F85C108840A860606D40F00100606591
:1034B00094F85C104FF0010808FA01F0304208D08F
:1034C00021684969090604D5A860606D40F00200D2
:1034D000606594F85C1004208840304208D0216870
:1034E0000968890704D5A860606D40F00400606534
:1034F00094F85C1010208840304218D02168096888
:10350000090714D5A86020680168490304D500683C
:10351000000308D5A16C07E00168C90503D4016860
:1035200021F008010160216C09B12046884794F818
:103530005C1020208840304231D021680968C906DB
:103540002DD5A86094F8350005282068016806D0BC
:10355000490347D5006800031DD4616C1CE021F0CD
:10356000160101602068416921F080014161206CF1
:1035700008B9A06C20B12068016821F00801016041
:1035800094F85C103F208840A86084F8358084F867
:103590003490216D1FE0E16B09B120468847606DD2
:1035A00000282BD0606DC00714D0052084F83500AA
:1035B0002068016821F0010101600098401C009022
:1035C000B84203D820680068C007F6D184F8358077
:1035D00084F83490E16C002910D001B02046BDE899
:1035E000F04308470168C905D5D4016821F01001EE
:1035F000016084F8358084F83490CCE7BDE8F88326
:10360000B00000202DE9F041044600F0A7F906467D
:103610005CB1022084F83500002584F8345020681D
:10362000016821F0010101600DE00120BDE8F08199
:1036300000F094F9801B052805D92020606503203F
:1036400084F83500F2E720680068C007F0D12268EE
:10365000116820480140D4E901031843D4E9033636
:103660003343184363691843A3691843E369184354
:10367000236A18430843616A042903D1D4E90B1370
:1036800019430843106020684069666A20F007010A
:1036900030460E43012704280CD1A06A0643E06A95
:1036A00040B12046FEF790FD20B14020606584F8CF
:1036B0003570BAE7206846612046FEF771FD94F840
:1036C0005C203F2191408160656584F83570002061
:1036D000ACE700003F8010F02DE9F0410446866D14
:1036E00090F83400002501280DD0012084F8340022
:1036F00094F835700020012F07D084F8340002259B
:103700002846BDE8F0810220FBE7022784F83570E7
:1037100060652046FEF782FD94F85C103F208840EB
:10372000B0602068016841F016010160206C20B192
:103730002068016841F0080101602068016841F0DB
:1037400001010160DCE7000070B5044600F006F9F5
:103750000546601C02D004480078044400F0FEF8DE
:10376000401BA042FAD370BDA40000202DE9F84F01
:10377000DFF8BCA10022012503264FF00F090AF152
:10378000040BAAF1040E00BF0B6805FA02F42340F3
:10379000A34270D10F7907F00307012F01D0022F48
:1037A00016D187684FEA420806FA08FC27EA0C0798
:1037B000D1F80CC00CFA08FC4CEA070CC0F808C0A1
:1037C0004768A7430C79C4F3001494403C43446019
:1037D0000C79E443A4070AD0C4684FEA420C06FA05
:1037E0000CF7BC438F6807FA0CF72743C7600C79C6
:1037F00004F00304022C12D1D40800EB840CDCF892
:1038000020405707FF0E09FA07F824EA0804D1F808
:10381000108008FA07F848EA0408CCF82080046809
:103820004FEA420C06FA0CF7BC430F7907F0030786
:1038300007FA0CF7274307604C6814F4403F70D038
:103840003C4C276847F480472760246822F0030730
:1038500004F480440094384C07EB040CDCF808486E
:1038600097074FEA177809FA08F7BC43334FB84275
:1038700002D1002724E054E0314FB84201D10127A2
:103880001EE0304FB84201D1022719E02E4FB84256
:1038900001D1032714E02D4FB84201D104270FE0D6
:1038A0002B4FB84201D105270AE02A4FB84201D177
:1038B000062705E0284FB84201D1072700E0082776
:1038C00007FA08F72743CCF80878DAF8004057469B
:1038D000D1F804C09C435FEACC2C00D51C433C606B
:1038E000DBF800405F46D1F804C09C435FEA8C2CB3
:1038F00000D51C433C60DEF800407746D1F804C098
:103900009C435FEA8C3C00D51C433C60084F083F59
:103910003C68D1F804C09C435FEACC3C00D51C4312
:103920003C60521C102AFFF42FAFBDE8F88F000056
:10393000083C014044380240003001400000024091
:103940000004024000080240000C02400010024047
:103950000014024000180240001C02400148806828
:1039600070470000A40000200248816802781144DA
:1039700081607047A40000200B4810B5016841F435
:1039800000710160016841F480610160016841F4E7
:1039900080710160032000F073F80F2000F006F83A
:1039A00000F024F8002010BD003C024070B50D4D21
:1039B00004464FF47A712878B1FBF0F00A4909689F
:1039C000B1FBF0F001F002FA48B9102C07D2002246
:1039D0002146501E00F034F800206C6070BD0120BC
:1039E00070BD0000A4000020B00000200C4882B090
:1039F000016841F480410160006800F4804000905B
:103A00000748001F016841F08051016000680022F2
:103A100000F0805000900F21901E02B000F010B80E
:103A200044380240002809DB00F01F0201219140C8
:103A30004009800000F1E020C0F80011704700004C
:103A4000F0B40E4B1B680C46C3F30223C3F1070509
:103A5000042D00D90425191D072901D2002300E0F7
:103A6000DB1E012606FA05F1491E214099409E40C1
:103A7000761E16403143F0BC04F035BE0CED00E07C
:103A8000064900F0070208684FF6FF03184040EAB5
:103A90000220034A10430860704700000CED00E06C
:103AA0000000FA0570470068416200207047F0B5D9
:103AB0000368586A39B19C6A4FF4827600EB14446B
:103AC00000204D1E0AE040EA024098620FE006EB3B
:103AD0008007DF59401C04EB1744C0B2A842F6D35C
:103AE00044EA02404FF4807202EB810158500020FA
:103AF000F0BDD0F8E00403F08EBC01EBC10200EB96
:103B00008202D0F8E004126A03F0DFBB01EBC102CD
:103B100000EB8202D0F8E004D2F8602203F031BC5E
:103B2000D0F8E00403F079BC0A0601F00F0101EBC4
:103B3000C10100EB810101D5143101E001F51571DE
:103B4000006804F05FBB70B504460B0601F00F007F
:103B500000EBC00104EB81014FF001024FF00005C2
:103B600002D54A75143103E081F8555201F51571FB
:103B7000087094F89404012808D084F894242068EC
:103B800004F05AF884F89454002070BD022070BDEF
:103B900070B5044601F00F002279904201D901204E
:103BA00070BD0B0601F00F0101EBC10104EB8101B7
:103BB0004FF001024FF0000502D54A75143103E0C1
:103BC00081F8555201F515718D70087094F89404C0
:103BD000012808D084F89424206804F09FF984F820
:103BE0009454002070BD022070BD01F00F0101EB64
:103BF000C10100EB8100D0F8680270472DE9F04167
:103C000004460F0601F00F0000EBC00104EB810138
:103C10004FF001064FF0000502D54E75143103E058
:103C200081F8555201F51571C2F30A0208708A60D5
:103C30000B714A7802B14883022B00D14D7194F880
:103C40009404012809D084F89464206803F042FFAA
:103C5000284684F89454BDE8F0810220FBE710B5B3
:103C600001F00F0404EBC40100EB8101C1E99823CA
:103C70000023C1F8683281F8553281F854428379C3
:103C800001F51571012B00D1CA618279006804F039
:103C90009DF9002010BD70B504460D4601F00F00DF
:103CA0002179884201D9012070BD29064FF0000614
:103CB0004FF0010206D500EBC00104EB81014A750B
:103CC000143107E005EBC50104EB810181F8556271
:103CD00001F515718A70087094F89404012807D0D2
:103CE00084F89424206804F045F9280702D007E0FE
:103CF000022070BDA17904F29C42206804F0E2F831
:103D000084F89464002070BD10B501F00F0404EB3A
:103D1000C40100EB8101C1E9082300238B62012368
:103D20004B7501F8144F8379012B00D1CA61827958
:103D3000006804F04BF9002010BD00002DE9FC5F85
:103D400005680446284604F0F9FA00287DD1206869
:103D500004F020FB002878D0D5F80808C0F30D2027
:103D6000C4F8D404206804F015FB800704D520684B
:103D7000416901F002014161206804F00BFBC106BA
:103D800004F29C40009034D52068816921F0100134
:103D900081612F6A07F00F0000EBC00004EB800682
:103DA000C7F3434006F51576022802D0062811D045
:103DB0001AE047F6F070074216D0C7F30A1217460A
:103DC0002846F16804F0EAFAF0683844F060706957
:103DD000384408E008222846009904F0DFFA7069A8
:103DE000C7F30A11084470612068816941F010012D
:103DF0008161206804F0CEFA00034FF0080B4FF009
:103E0000000A4FF001097CD50026206804F0A1FAD1
:103E1000074674E0F80770D0F1B2206804F0B2FAF7
:103E20008046C00707D005EB4611C1F8089B314614
:103E3000204601F06FFF5FEA087024D505EB4611BC
:103E4000C1F808BB2068016C00E023E200EB4610DB
:103E50000191D0F8082BFB4B994205D9110403D5E9
:103E60004FF40041C0F8081B204600F0F6FAF5496F
:103E70000198884207D9A079012804D1206801213E
:103E8000009A04F01FF85FEAC86004D505EB4611FC
:103E90001020C1F8080B5FEA88701DD5686900061C
:103EA00005D5D5F8040840F48061C5F8041806EB80
:103EB000C60004EB800090F8571200F51570012938
:103EC00005D180F803A0F1B2204600F0E9F905EB36
:103ED00046110220C1F8080B5FEA886004D505EBA3
:103EE00046102021C0F8081B5FEA884005D505EB85
:103EF00046104FF40051C0F8081B7F08761C002FB5
:103F000088D1206804F046FA40036ED5206804F09A
:103F100019FA0746002666E0F80762D0F1B2206879
:103F200004F01EFA8046C00723D006F00F01D5F832
:103F3000342809FA01F18A43C5F8342805EB461103
:103F4000C1F80899A07901280FD106EBC60004EB4F
:103F50008000D0E907211144016236B9606A20B9B6
:103F600020680121009A03F0ADFFF1B22046FFF76F
:103F7000C4FD5FEA087003D505EB4611C1F808B926
:103F80005FEAC86004D505EB46111020C1F80809A6
:103F90005FEA486004D505EB46104021C0F80819D7
:103FA0005FEA887016D53146284604F09CF906EB86
:103FB000C60004EB8000C17D1430012905D180F8D2
:103FC00003A0F1B2204600F067F905EB461102208C
:103FD000C1F808095FEA086003D53146204601F0C0
:103FE000FFFE7F08761C002F96D1206804F0D2F9DE
:103FF000002811DAD5F8040820F00101C5F80418EA
:1040000094F8CC0401282BD0204600F00BFA20684D
:10401000416901F000414161206804F0BBF90005ED
:104020000BD5D5F80808C00702D0204600F03EFAAC
:104030002068416901F400614161206804F0AAF937
:10404000C00467D5D5F8040820F00100C5F80408BD
:104050001021206804F047F900214FF67F3220E05C
:1040600084F8CCA400212046FFF71CFDCFE700BF59
:1040700005EB4110C0F80829D0F8003923F40013EB
:10408000C0F80039C0F8082BD0F8003B23F4001327
:10409000C0F8003BD0F8003B43F00063C0F8003BA1
:1040A000491C20798842E3D8D5F81C0840F001115A
:1040B000C5F81C18E07B002828460DD0D0F88408ED
:1040C00040F00B01C5F88418D5F8440840F00B0106
:1040D0002846C5F844180DE0D0F8140842F22B0128
:1040E0000843C5F81408D5F8100840F00B0128461D
:1040F000C5F81018D0F8000820F4FE61C5F80018C3
:10410000A1792068009A03F0DDFE2068416901F47E
:1041100080514161206804F03DF9800415D5206884
:1041200003F018FD206804F0FCF8E07100F00EFBCD
:104130000146E279206804F08FF9204600F05CF92E
:104140002068416901F400514161206804F022F9BE
:10415000000707D5204600F069F92068416901F0A1
:1041600008014161206804F015F9000616D5A86918
:1041700020F08001A96101260DE000BF06EBC6001A
:1041800004EB800090F85702012803D1F1B22046D9
:10419000FFF7CAFC761C2079B042EFD8206804F003
:1041A000F9F8C0021FD501264F4614E005EB461072
:1041B000D0F8000906EBC60104EB81010A7E012A52
:1041C00008D1002806DACF75F0B240F08001204611
:1041D000FFF7AAFC761C2079B042E7D82068416935
:1041E00001F480114161206804F0D4F8800234D5D4
:1041F00001204A4629E000BF05EB4011D1F8001B21
:1042000000EBC00304EB830393F85862012E1BD12B
:10421000002919DA94F8D464C1F3004106F00106CC
:104220008E4211D183F85722A96941F08003AB6116
:104230006969090608D4D5F8040840F40070C5F887
:10424000040805E00A30544F401C21798142D3D83C
:104250002068416901F400114161206804F09AF876
:10426000400007D52046FFF744FC2068416901F073
:1042700080414161206804F08DF840070AD520682C
:104280004568680702D52046FFF74AFC2068416868
:1042900029434160BDE8FC9FD0F8E00403F00FB96A
:1042A000D0F8E00403F01FB9F8B5040005D094F885
:1042B00095042668002510B106E00120F8BD84F8B9
:1042C0009454204600F056F8032084F89504B6F183
:1042D000A04F00D1A571206803F0EEFD207C8DF881
:1042E000000094E80F0003F043FC0226B8BB002155
:1042F000206804F072F890BB002001270DE000BF99
:1043000000EBC00104EB81014F750875C8850D767F
:10431000CD610D62401CC0B24D6221798142EFD85F
:10432000002011E000EBC00104EB810181F855523F
:1043300081F8540281F85852C1F85C52C1F86052B9
:10434000401CC0B2C1F8645221798142EAD8207C75
:104350008DF8000094E80F0003F0F0FC10B184F831
:104360009564AAE7657484F89574206803F0D8FC16
:104370000020F8BD10B586B0044614216846FCF74D
:10438000EFF82068B0F1A04F2FD119480021026842
:1043900042F001020260006800F0010005904FF455
:1043A000C05000900220CDE90101032003900A20B3
:1043B000049069460F48FFF7D9F90D48001D0168C0
:1043C00041F0800101600A481430016841F48041E5
:1043D00001600068002200F4804005900521432020
:1043E000FFF72EFB4320FFF71DFB06B010BD0000BA
:1043F000303802400000024070B50446C079012503
:1044000070B1022801D0FEF747F92946D4F8E0043C
:1044100003F0D8F8D4F8E004BDE8704003F08CB89D
:104420000025F2E7D0F8E00403F0B5B8D0F8E004D6
:1044300003F0BBB810B5044690F8940401280AD0E4
:10444000012084F894046174206803F0F4FF0020D4
:1044500084F8940410BD022010BDD0F8E02400F2CE
:104460009C41104603F0BAB810B50446006894F8B1
:104470009414012909D0012184F89414C1684906D3
:1044800009D5617B012902D005E0022010BD816BB6
:1044900041F480318163206803F003FF206803F05A
:1044A00031FC002084F8940410BD000010B50446CF
:1044B000D0F8E00403F0D4F82068D0F8001E41F0F2
:1044C0000101C0F8001EE07A002804D0024801680B
:1044D00041F00601016010BD10ED00E02DE9F84348
:1044E000054600684FF00109C1074FF0000601D1F1
:1044F000400727D5DFF80C81C8F86860FFF72EFA6F
:104500000746414C05E000BFFFF728FAC01B022810
:1045100057D820680001F7D468688101287A41EAF9
:104520000070394984310860C8F86890FFF716FABE
:10453000074604E0FFF712FAC01B022841D82068A2
:104540000001F7D52878800752D52F484030016800
:1045500041F08051016000682C4C00F080500090C8
:10456000206840F480702060FFF7F8F9074604E007
:10457000FFF7F4F9C01B022823D82068C005F7D53F
:10458000214C7034206810F4407020D0A98901F4C7
:10459000407181421BD020681D4920F44070C1F851
:1045A00000900E6020602068C00710D0FFF7D6F999
:1045B000064641F2883707E0FFF7D0F9801BB84282
:1045C00002D90320BDE8F88320688007F4D5E968A4
:1045D0000D48C1F301220830032A0BD0016821F4F1
:1045E000F81101602068A989C1F30B01084320601C
:1045F0000020E7E70268074B22F4F81219400A434B
:104600000260EFE7000047420038024000700040BF
:10461000400E4742FFFCFF0F2DE9F0470E46050014
:1046200065D0DFF81481D8F80000F7B200F0070079
:10463000B04207D288F80070D8F8000000F00700F8
:10464000B04254D128683D4C810712D5400703D5AC
:10465000206840F4E05020602878000703D52068E7
:1046600040F4604020602068A96820F0F000084312
:1046700020602878C0072DD03049686808390128A3
:1046800012D0022813D0032811D009688907002905
:104690002DDA216821F0030101432160FFF75EF963
:1046A000814641F2883A0EE009688903EFE709681C
:1046B0008901ECE7FFF752F9A0EB0901514502D956
:1046C0000320BDE8F0872068696800F00C00B0EBBB
:1046D000810FEFD1D8F80010404601F00701B14238
:1046E00007D90770006800F00700B04201D0012030
:1046F000E7E72878400705D52068E96820F4E0500E
:10470000084320602878000706D52068296920F42E
:10471000604040EAC100206000F03EF82168084A8D
:10472000C1F30311515CC84006490860064800689F
:10473000FFF73CF90020C4E7003C02400838024083
:10474000A4A50008B0000020A800002001480068CF
:1047500070470000B000002004480549006809685F
:10476000044AC1F38221515CC8407047B000002068
:1047700008380240B4A500080448054900680968E3
:10478000044AC1F34231515CC8407047B000002078
:1047900008380240B4A50008154810B5006810F0AC
:1047A0000C02144813D01449042A0FD0082A0ED141
:1047B0000F4C241F2268236802F03F025B0207D5DA
:1047C0002068C0F38810A0FB010106E0084610BD78
:1047D0002168C1F38811A1FB00010023FBF7D2FD82
:1047E0002168C1F30141491C4900B0FBF1F010BD43
:1047F000083802400024F400001BB7002DE9F84FF0
:1048000004006ED02078DFF84C93C007A9F10405AE
:104810004AD009F104000168C1F38101012908D0DF
:104820000068C0F3810002280AD1D9F800004002D4
:1048300006D52868800337D560680028E1D033E0CA
:104840006068B0F5803F10D0B0F5A02F286810D078
:1048500020F480302860286820F480202860606878
:10486000A8B1FFF77BF806460DE0286840F48030D9
:10487000F4E740F480202860F7E700BFFFF76EF808
:10488000801B642873D828688003F7D50CE0FFF7F5
:1048900065F8064605E000BFFFF760F8801B642856
:1048A000F0D828688003F7D42078DFF8AC8280073E
:1048B0004FF0000A3ED5A748001D016811F00C0F0B
:1048C00008D00068C0F3810002280BD1D9F800009D
:1048D000400207D42868800716D5E068012800D177
:1048E00012E033E1E068B8B10120C8F80000FFF73A
:1048F00035F8064605E000BFFFF730F8801B0228B8
:10490000C0D828688007F7D52868216920F0F8000A
:1049100040EAC10028600DE0C8F800A0FFF71EF8CB
:10492000064604E0FFF71AF8801B02281FD8286803
:104930008007F7D42078000722D5864F8748616921
:10494000703771B101210160FFF708F8064604E0F5
:10495000FFF704F8801B022809D838688007F7D5CC
:104960000EE0C0F800A0FEF7F9FF064605E082E081
:10497000FEF7F4FF801B02287DD838688007F7D443
:104980002078400768D5DFF8CCB100270BF13C0B4D
:10499000DBF80000C0000BD4DBF8001041F08051C0
:1049A000CBF80010DBF80000012700F080500090E9
:1049B0006B4E3068C00510D4306840F480703060B1
:1049C000FEF7CCFF009005E0FEF7C8FF0099401A03
:1049D000022850D83068C005F6D55E4EA0686C3607
:1049E00001280FD00528306810D020F00100306079
:1049F000306820F004003060A068B8B1FEF7AEFF68
:104A000000900FE0306840F00100F4E740F004004F
:104A10003060F7E7FEF7A2FF0099411A41F28830B3
:104A2000814266D830688007F4D50EE0FEF796FF25
:104A3000009007E0FEF792FF0099411A41F288309A
:104A4000814256D830688007F4D42FB1DBF80010CB
:104A500021F08051CBF80010A069C8B33D49091D71
:104A60000968C1F3810102294AD00228504607D0C3
:104A7000C8F8600000E03CE0FEF770FF04463BE051
:104A80004746C8F86000FEF769FF064605E000BF2C
:104A9000FEF764FF801B02282BD828688001F7D41A
:104AA000D4E907010843A16A2E4A490802EB0141F3
:104AB000626A41EA8211084394F82C1040EA0161CD
:104AC000C9F8001001203866FEF748FF044606E0EA
:104AD0003EE000BFFEF742FF001B022809D828680D
:104AE0008001F7D534E000BFFEF738FF001B022835
:104AF00002D90320BDE8F88F28688001F4D427E0AC
:104B00000128F7D0D9F80000E26900F48001914251
:104B10001CD1226A00F03F01914217D147F6C071C3
:104B2000626A0140B1EB821F10D1A26A4FF0FF33DD
:104B300000F4403103EB5202B1EB024F06D194F87E
:104B40002C1000F07060B0EB016F01D00120D1E7B4
:104B50000020CFE70438024000004742800E474261
:104B6000007000400000FFFF10B5040002D0607F1D
:104B700010B106E0012010BD00202077204600F093
:104B800041F8022060772068C168C943C90632D560
:104B9000CA214162216853204862204601F06AFA26
:104BA00020BB20688168164A1140816021688868AE
:104BB00062681043D4E904231A43104388602168D3
:104BC000E068086120680169228941EA02410161C7
:104BD000204601F073FA48B921680A6C22F4802259
:104BE0000A6421680A6CA3691A430A642268FF21D7
:104BF000516208B110BD00200121617710BD000095
:104C0000BFFF8FFF1FB50021009101910291039119
:104C10000068084988420CD10220009000020390ED
:104C20006846FFF75BFC08B1FDF736FD024901203D
:104C300008601FBD002800403C0E474270B5044686
:104C4000007F0B46012819D00126267702206077C5
:104C5000B2B19878D97840EA0145587819780002BD
:104C600040EA413005432168CA2048622168532048
:104C70004862204601F0FEF9D0B122E0022070BD6A
:104C80005878C10603D500F0EF000A305870D87884
:104C900001F0E4F90204587801F0E0F942EA002258
:104CA000987801F0DBF90243187842EA4035DAE7F8
:104CB0000748054020684560204601F0FFF900B92B
:104CC00066772268FF2151620021217770BD0000C4
:104CD0003FFFFF002DE9F0410446007F0D4601280B
:104CE00023D04FF0010884F81C80022060772068F0
:104CF000002780684FEA4060D2B1002800DBEF70E7
:104D0000A878297840EA01466878E978000240EA04
:104D1000815006432168CA204862216853204862B6
:104D2000204601F0A7F9B8B12CE00220BDE8F081DF
:104D3000002800DBEF70287801F090F90204687811
:104D400001F08CF942EA0022A87801F087F90243C9
:104D5000E87842EA8056DDE70D48064020680660A4
:104D60002068816821F480218160D5E9030108432E
:104D700021688A6810438860204601F09FF908B9CD
:104D800084F81D802268FF2151622777CEE700005A
:104D90007F7F7F0070B504460B482168C860FEF72E
:104DA000DDFD05464FF47A7607E000BFFEF7D6FD3D
:104DB000401BB04201D9032070BD2068C068800646
:104DC000F4D5002070BD00005F7F010010B5401ECB
:104DD000B0F1807F01D3012010BD4FF0E02460616D
:104DE0000F21601703F07FFC0020A06107202061E5
:104DF000002010BD38B5044690F84200202801D0AC
:104E0000022038BD51B14AB1012020630020606307
:104E1000204601F0A1FD216B012901D0012038BD00
:104E200021680A684968009121680C3151E8002F17
:104E300042F0100241E80023002BF5D138BD0000FC
:104E4000F8B500682B490122884202D12A48027035
:104E5000F8BD2A498842FBD1294C20466178C078A8
:104E600029B10025012906D0022941D114E04B289F
:104E7000EED16270F8BD0221502804D0492804D038
:104E8000442804D034E0A27003E0A17001E00320C4
:104E9000A07061702570F8BD19491A4E4D28097827
:104EA00005D07F2924D27054491C2170F8BD755457
:104EB0006946144803F00CFD0098B04201D0007818
:104EC00010B16570A570F8BDA1780029FAD00D4821
:104ED0008030012906D0022907D00329F2D180EDC4
:104EE000020AEFE780ED000AECE780ED010AE9E74E
:104EF0006570F8BD0048004091010020001001409D
:104F0000790100204C630020704770B5040004D084
:104F100094F84100002510B106E0012070BD84F82E
:104F20004050204600F024F8242084F841002068F6
:104F3000C16821F40051C160204601F087FC20685F
:104F4000016921F4904101612068416921F02A0141
:104F500041612068C16841F40051C160656420204E
:104F600084F8410084F842006563002070BD0000B1
:104F70002DE9F04F87B0054614216846FBF7F0FA9B
:104F8000534B2968534802260327072200244FF079
:104F900000694FF4806A4FF4807B99425FD14D499C
:104FA00014310B6843F010030B60096801F0100125
:104FB0000591016841F002010160016801F0020100
:104FC0000591016841F001010160006802AB00F049
:104FD000010005908020CDE90006904683E890010D
:104FE00069463D48FEF7C2FB3002CDE9000602AB40
:104FF000694683E890013948FEF7B8FB394F3848D5
:10500000D0463860C7E90194C7E9034A7C61C7E923
:10501000064B3C625E4638467C62FEF7F3FA08B106
:10502000FDF73AFBEF63BD632E4F2D4860377830B4
:10503000E7E802094020A7E811012A4847F8144987
:105040006030C7E906463C627C62FEF7DBFA08B1D5
:10505000FDF722FBAF63BD6307B0BDE8F08F224BC5
:105060009942F9D11B4910310B6843F480230B603E
:10507000096801F480210591016841F00401016093
:105080000068029400F0040005904FF44060CDE900
:105090000006CDE9037269461448FEF767FB114E1E
:1050A0001348C0363060C6E90194C6E9034A74610A
:1050B000C6E9064B4FF44030C6E908043046FEF717
:1050C000A1FA08B1FDF7E8FAEE63B563C4E70000A2
:1050D000001001403038024000040240000002404D
:1050E000406402407C060020004800400008024066
:1050F0002860024070477047FEE710B5044680EC18
:10510000020A30EE600A80ED020AD0ED030AD0ED0B
:10511000081A30EE601A21EE211A80ED0C1A90ED7B
:10512000091A21EE001A80ED0D1AB0EE001A00EEF9
:10513000C10AD0ED040A04F1340030EE200AD4EDA7
:105140000A0A20EE200A84ED0E0A94ED120AB8EE47
:10515000400A03F007FC94ED0C0AD4ED0D0A04F1AB
:10516000400030EE200AD4ED0E0A30EE200AD4EDD5
:10517000100A30EE200A84ED100A94ED110AB8EE00
:10518000400A03F0EFFB94ED030A84ED040A94ED6A
:10519000020A84ED030A94ED100A10BD00F1200309
:1051A00083EC030AC0E911129FED0A0A80ED0C0A94
:1051B00080ED0E0A80ED0D0A80ED020A80ED030AF3
:1051C00080ED040A80ED100A80ED010A80ED000AEE
:1051D0007047000000000000F0B500230A243025CD
:1051E00037261F4611E000BFB4EB107F02D905EB54
:1051F000107C01E006EB107C01F813C001EB430CBE
:1052000000015B1C8CF80170DBB29342ECD3F0BD63
:1052100008B504F0E5FC0A4E0A4C0B4DCDF8000031
:10522000B4F844002988884201D170688047B4F8F6
:10523000440028800121684604F062F8F0E700008D
:10524000E0010020B06500209802002010B58AB06F
:1052500001200290002008210490CDE905018DF87D
:105260001C00FF208DF820008DF821008DF824000F
:105270008DF822008DF825008DF823008DF826008A
:10528000FC208DF8270008A8009005480123002283
:105290004468054803490068A0470AB010BD0000F3
:1052A000700100207C0500200800002090ED010A1C
:1052B000FCEEC00A10EE901A018480ED0F0A002166
:1052C0000187704710B58AB00120029000200821A4
:1052D0000490CDE905018DF81C00FF208DF8200019
:1052E0008DF821008DF824008DF822008DF825001E
:1052F0008DF823008DF82600FE208DF8270008A8E1
:1053000000900548012300224468054803490068CD
:10531000A0470AB010BD0000700100207C050020ED
:10532000080000200FB4F2EE090A70B52DED028BD3
:105330009DF83400DFED668A069D664C6D1E0009FF
:1053400054F82510B1EE0C8A91ED010ABCEEC00AAA
:1053500010EE102A0A8454F825100880BDF8350094
:1053600040BA00EE100A54F82500B8EE400A80ED6D
:10537000060A9DF837009DF83810000140EA111028
:1053800000EE100A54F825001021B8EE400A80ED16
:10539000070A9DF8390000EE100A54F82500B8EE0F
:1053A000400A80ED040A54F8250090ED060ABDEE8F
:1053B000C00A10EE100ABAEE090A03F075FE54F89E
:1053C0002500F6EE000A80ED010A20EE200A54F8CE
:1053D0002500DFED410A0C2120EE200ADFED3F0A17
:1053E00020EE200AF0EE680A80ED010A54F825004C
:1053F00090ED070ABDEEC00A10EE100A9FED380AC4
:1054000003F052FE54F825000C21F0EE480A80ED1E
:10541000020A54F8250090ED040ABDEEC00A10EE11
:10542000100AB9EE0C0A03F03FFE54F8250080ED97
:10543000050A54F825109DF83A00087354F8251011
:105440009DF83B00487354F82500018CD0ED010A0B
:1054500000EE101A2349B8EE400A30EEC00A10EEF2
:10546000102A8A4202D9028F521C028754F8250062
:10547000028CD0ED010A00EE102AB8EE400A30EEA0
:10548000600A10EE102A8A4202D9018F491E018754
:1054900054F82500B0F93810D0ED010A490300EEA8
:1054A000101AB8EEC00A30EE800A80ED0F0A54F8E8
:1054B000250030F8441F491C018054F825100120B4
:1054C00081F84200BDEC028B70BC5DF814FB00005B
:1054D00000004843DC010020DB0F4940000010427F
:1054E000000048C30020CBC52DE9F04104462DED56
:1054F000068BF0EE60AAF0EE419AB0EE42AADFED24
:105500002C0AB0EE619A9FED2C1A20EE200AF0EEE4
:10551000000ADFED2A8AB1EE0C8A20EE200ADFEDC8
:10552000250A102020EE200ADFED250A03F02FFACD
:1055300007460C20B0EE681ADFED220AB0EE6A0AC8
:1055400003F025FA06460C20B0EE481AF9EE0C0AD4
:10555000B0EE4A0A03F01BFA9FED1C8A80460C202D
:105560009FED191AF0EE480AB0EE690A03F00FFA3F
:1055700005460C20B1EE041AF0EE480AB0EE490AD6
:1055800003F005FA390A217067703109A170310101
:1055900041EA1521E170257101096171010141EABA
:1055A0001820A07184F80780BDEC068BBDE8F0815F
:1055B00000000039DB0F4940DC0F49400000484340
:1055C000DC0F49C0000048C30000FA43000000009F
:1055D000816270472DE9F04115460E468046002451
:1055E000114F12E008EB840090ED000A0E4803F022
:1055F000E2F90020395C696029684906FCD5401C45
:10560000C0B20428F6D3641CA4B2B442EAD307495A
:1056100000200A5C6A602A685206FCD5401CC0B2B1
:105620000428F6D3BDE8F081D801002008AB0008BB
:1056300070B51B480125017C427C090441EA4244C3
:10564000408A174904430020B1F1880101EB0003AF
:1056500005FA00F21E7D22420ED0761CF6B21E75AF
:10566000032E02D98E6816438E601B7D3C2B13D906
:105670000B6913430B610FE0361F382ECE6801D241
:10568000164300E09643CE608E6896438E600E69A6
:10569000964300220E611A75401C1228D6DB70BD9D
:1056A0008865002030EE601AD0ED030AD0ED041AB0
:1056B0001B4A30EEE12AF0EE081AF0EE000A20EE66
:1056C000210A21EE211A20EE200AC0EE020AC1EDC5
:1056D000000A90ED030A90ED042A10EE900A30EED5
:1056E000422A904281EE020AB1EE041A81ED010ACB
:1056F00001DB81ED001A0B480B68F9EE040A8342C6
:1057000001D3C1ED000A10EE103A934201DB81EDA6
:10571000011A4A68824201D3C1ED010A70470000B4
:105720000000A0400000A0C070B5A0F20120DDE99B
:105730000743A1B24DBA00EBC0021649200C44BA8F
:1057400001EB820021F8225044809CB264BA84802C
:105750001B0C837131F82230048A0F4D1E1BAE42A0
:1057600002DA038B5B1C04E0E31AAB4202DA038B20
:105770005B1E038331F82230B0F9184003EB443349
:10578000436131F822100182C18B491CC183012180
:10579000017770BD0464002090E8FFFF30B5050A72
:1057A000039C25706070080AA070E170100A2071D7
:1057B0006271180AA071E37130BD0000104810B585
:1057C0000E4901600321416000214FF410228160E5
:1057D000C0E903124FF400124261017641768176EE
:1057E000C176017701214177FDF78BFC002803D0BA
:1057F000BDE81040FCF750BF10BD00000064004041
:105800007C050020104810B50E490160032141605D
:1058100000214FF410228160C0E903124FF40012FE
:105820004261017641768176C17601770121417727
:10583000FDF767FC002803D0BDE81040FCF72CBF43
:1058400010BD000000680040A4050020154808B500
:10585000016841F400110160016801F40011009138
:10586000016841F4800101600068002200F48000BA
:10587000009005210C20FEF7E3F80C20FEF7D2F88B
:10588000002205213A20FEF7DBF83A20FEF7CAF89D
:10589000002205214620FEF7D3F8BDE80840462047
:1058A000FEF7C0B83038024010B5CEB00022242137
:1058B000102003F0E3FE464C00222421206010203B
:1058C00003F0DCFE606000222421102003F0D6FEED
:1058D000A06000221921102003F0D0FEE0601C22FD
:1058E0003C496846FAF70AFE0021684603F0EDF8E5
:1058F000384960631C221C3107A8FAF7FFFD00211C
:1059000007A803F0E2F83349A0631C2238310EA83F
:10591000FAF7F4FD00210EA803F0D7F82D49206115
:105920001C22543115A8FAF7E9FD002115A803F04F
:10593000CCF8284960611C2270311CA8FAF7DEFD02
:1059400000211CA803F0C1F82249A0611C228C315F
:1059500023A8FAF7D3FD002123A803F0B6F81D49C8
:10596000E0611C22A8312AA8FAF7C8FD00212AA864
:1059700003F0ABF8174960621C22C43131A8FAF772
:10598000BDFD002131A803F0A0F8124920621C22BD
:10599000E03138A8FAF7B2FD002138A803F095F8F5
:1059A0000C49A0621C22FC313FA8FAF7A7FD002198
:1059B0003FA803F08AF8E0621C22074946A8FAF7DC
:1059C0009DFD002146A803F080F820634EB010BD75
:1059D0000000002068A4000880A50008154808B54C
:1059E000016841F002010160016801F002010091CB
:1059F000016841F001010160016801F001010091BD
:105A0000016841F008010160016801F0080100919E
:105A1000016841F004010160016801F00401009196
:105A2000016841F080010160006800F08000009092
:105A300008BD00003038024010B586B01421684619
:105A4000FAF78EFD1B48002419490594C0E900149B
:105A50007F218160FF21C0E9031444618461FFF765
:105A600083F808B1FCF718FE8DF800408DF801406E
:105A70008DF802400394012269460E480494FFF712
:105A800029F908B1FCF708FE01208DF814008DF803
:105A900015008DF8160002468DF8174005A9054837
:105AA000FFF7CCF8002801D0FCF7F6FD06B010BDDA
:105AB00000280040CC0500200C4810B50A490160C0
:105AC0004FF4E1314160002181600C22C160C0E9E6
:105AD00004128161C161FFF718FA002803D0BDE804
